:100C4400E5845408FFE58454804F4470F584E584BA
:100C54005470FFBF70037F0022E4F512F511F51004
:100C6400F50FE47FE07E2EFDFCAB12AA11A910A8BB
:100C74000FC3120EA95017E5122401F512E4351121
:100C8400F511E43510F510E4350FF50F80D4E58443
:100C94005408FFE58454804F4476F584E584547009
:100CA4006470601CE584547024D0600E24E06007F6
:100CB40024F070097F01227F02227F03227F002219
:100CC400E5845408FFE58454804F4475F584E58435
:100CD40054706470601CE584547024D0600E24E069
:100CE400600724F070097F04227F05227F06227F9B
:100CF4000022E5845408FFE58454804F4473F5844E
:100D0400E58454706470601CE584547024D0600ED3
:100D140024E0600724F070097F07227F08227F09FE
:060D2400227F00227F0087
:010D2A0022A6
:10007E000000000000000000000000000000000072
:10008E000000003F00000000000000981800000073
:10009E000008304830400000000000000000000062
:1000AE000004041F041F04000040F840F840400004
:1000BE00000E113F100C0000003008FE887000008A
:1000CE000E110E0106180000001860807088700076
:1000DE00000F110F01010000F008C828F0080800F9
:1000EE000868700000000000000000000000000022
:1000FE000000000718204000000000C03008040077
:10010E00004020180700000000040830C000000066
:10011E000202010F01020200404080F080404000C8
:10012E000101010F01010100000000E000000000CC
:10013E000000000000000000021A1C000000000079
:10014E00010101010101010000000000000000009A
:10015E000000000000000000001818000000000061
:10016E000000000106384000000C30C00000000006
:10017E00000708101008070000E010080810E00043
:10018E000008081F00000000000808F8080800001A
:10019E00000C101010110E000018284888081800C6
:1001AE00000C101111120C000030080808887000A5
:1001BE00000102041F00000000C04048F84848003B
:1001CE00001F111212121100003008080808F0006A
:1001DE00000708111119000000F088080808F00047
:1001EE00001C1010131C1000000000F8000000008E
:1001FE00000E111111110E00007088080888700091
:10020E00000F101010090700000098888810E000F9
:10021E00000000030300000000000018180000009A
:10022E0000000002000000000000020C00000000B0
:10023E000001020408102000000080402010080079
:10024E0002020202020202004040404040404000D2
:10025E000020100804020100000810204080000059
:10026E00001C202020211E0000000018D8000000D5
:10027E000708131417080700E010E828C828D00054
:10028E0000000718070000000878C840C87808006A
:10029E00101F111111120C0008F8080808887000C0
:1002AE000708101010101C00E0100808081020009D
:1002BE00101F10101008070008F808080810E000BA
:1002CE00101F11111710080008F80808C8081000B0
:1002DE00101F11111710080008F80800C0000000C8
:1002EE0007081010101C0000E010080848704000AD
:1002FE00101F1101111F100008F8080008F808005F
:10030E000010101F10100000000808F80808000068
:10031E00000010101F10100006020202FC00000068
:10032E00101F11031418100008F808806818080030
:10033E00101F10000000000008F808080808180038
:10034E00101F1E011E1F100008F800F800F808000C
:10035E00101F1C03101F100008F8088070F8000012
:10036E000708101010080700E01008080810E00039
:10037E00101F111111110E0008F8080000000000E6
:10038E000708101010080700E01028281814E400C1
:10039E00101F1111110E000008F8088060180800D7
:1003AE00000E111110101C0000380808888870000B
:1003BE001810101F10101800000008F80800000098
:1003CE00101F1000101F100000F0080808F00000A9
:1003DE00101E1100111E10000000E018E0000000B9
:1003EE00101F001F001F10000080F800F880000092
:1003FE0010181601161810000818688068180800E2
:10040E00101C1300131C1000000008F80800000058
:10041E0000081010131C1000000838C80808180037
:10042E000000007F40404000000000FC0404040077
:10043E0000300C030000000000000080601C020071
:10044E00004040407F00000000040404FC00000057
:10045E0000002040402000000000000000000000CE
:10046E000000000000000000020202020202020070
:10047E0000404020000000000000000000000000CE
:10048E0000010202020100000030488888F80800CE
:10049E00101F01020202010000F808080808F0000F
:1004AE00000001020202010000E01008080810001E
:1004BE000001020202121F0000F008080810F808DE
:1004CE00000102020202010000F088888888900074
:1004DE000002020F12121800000808F808080000A7
:1004EE00000102020203020000AC525252920C00B2
:1004FE00101F01020202010008F808000008F808A7
:10050E0000021A1B00000000000808F8080800008E
:10051E00000000021A1B00000006020202FC00008E
:10052E00101F00000302020008F848806818080037
:10053E000010101F00000000000808F80808000056
:10054E00020302030201000008F800F800F8080098
:10055E00020301020202010008F808000008F80870
:10056E00000001020201000000E010080810E00087
:10057E00020301020202010002FE0A080808F0004E
:10058E00000102020202030000F008080812FE0237
:10059E0002020301020203000808F8080800000026
:1005AE000001020202030000009848484830000093
:1005BE000002020F02020000000000F00808000016
:1005CE00020300000002030000F008080810F808FB
:1005DE0002030200000203020000E01820C0000027
:1005EE00020300030003020000C038C038C0000040
:1005FE000002030002030200000818E8E0180800D9
:10060E0002030200000203020202E21C30C00000DC
:10061E00000302020203020000081868880818008E
:10062E00000000017E40000000000000FC040000FD
:10063E00000000FF00000000000000FE00000000AF
:10064E000000407E01000000000004FC00000000DD
:10065E0000608080402020C00000000000000000EC
:0912010001230001240001250075
:091111007F0112005F7F0A7E00DD
:10111A00EF1FAA0670011E4A6015E4FCFDD3ED9488
:0F112A0014EC6480948050E80DBD00010C80EE41
:011139002293
:10113A005384F7E4FDAE07EF3392B5C2B4E4FC0C76
:10114A00BC03FCD2B4E4FC0CBC03FCEE25E0FF0DAE
:06115A00BD08E243840819
:01116000226C
:10116100438408E4FDAE07EF3392B5C2B4E4FC0C4E
:10117100BC03FCD2B4E4FC0CBC03FCEE25E0FF0D87
:06118100BD08E25384F7F3
:011187002245
:0E005F00AE05EFAF06600302113A12116122E6
:1010730043848012111653847F1211164384801205
:1010830011167DE27F0112005F7DA37F0112005FD5
:101093007DA07F0112005F7DC07F0112005F7D266E
:1010A3007F0112005F7F057E0012111A7D2C121141
:1010B300117D2E1211117D2F1211117D817F0112CD
:1010C300005F7D201211117DF87F0112005F7D0109
:1010D3007F0112005F7F057E0012111A7DAF7F0131
:0310E30002005FA9
:0211AF00AB078C
:1011B100ED44B0FF12113AEB54F0C4540FFEEB545E
:0E11C1000FFBEE4410FF12113AAF0302113A79
:0A1228001211AF7DFFE4FF02005F2A
:101188007BB7AD037F0112005F7D107F0112005F06
:10119800E4FD7F0112005FE4FAE4FF1211610ABA6C
:0611A80080F71BBBAFDC69
:0111AE00221E
:020003008F204C
:10000500ED131313541FF522B5241AE520B5251554
:10001500ED5407FF7480A807088002C313D8FC4578
:1000250023F5218011ED5407FF7480A8070880028D
:10003500C313D8FCF521E52224F9FFE434FFFE12B1
:10004500121CAD07AF201211AFAD21E4FF12005F06
:0900550085212385222485202544
:01005E00227F
:10066E00EF24E0F51EEDC454F0FFC3743F9FF51C5C
:0A067E00EB75F008A4F51DE4F51B70
:10068800E51B25E0F51FE51BC3940840030207FEA0
:1006980075F010E51EA4247EF582E5F03400F5839C
:1006A800E582251BF582E43583F583E49330E70A78
:1006B800E51D251BFFAD1C12000375F010E51EA4F7
:1006C800247EF582E5F03400F583E582251BF5826A
:1006D800E43583F583E49330E60CE51D251BFFE53F
:1006E8001C14FD12000375F010E51EA4247EF5828B
:1006F800E5F03400F583E582251BF582E43583F5C2
:1007080083E49330E50DE51D251BFFE51C24FEFD64
:1007180012000375F010E51EA4247EF582E5F0347E
:1007280000F583E582251BF582E43583F583E493A0
:1007380030E40DE51D251BFFE51C24FDFD1200031B
:1007480075F010E51EA4247EF582E5F03400F583EB
:10075800E582251BF582E43583F583E49330E30DC8
:10076800E51D251BFFE51C24FCFD12000375F01098
:10077800E51EA4247EF582E5F03400F583E58225A4
:100788001BF582E43583F583E49330E20DE51D25FE
:100798001BFFE51C24FBFD12000375F010E51EA4E9
:1007A800247EF582E5F03400F583E582251BF58289
:1007B800E43583F583E49330E10DE51D251BFFE562
:1007C8001C24FAFD12000375F010E51EA4247EF522
:1007D80082E5F03400F583E582251BF582E4358354
:1007E800F583E49320E003020976E51D251BFFE568
:1007F8001C24F902097275F010E51EA4247EF58206
:10080800E5F03400F583E582251BF582E43583F5B0
:1008180083E49330E70FE51D251B24F8FFE51C242E
:10082800F8FD12000375F010E51EA4247EF582E59C
:10083800F03400F583E582251BF582E43583F583E2
:10084800E49330E60FE51D251B24F8FFE51C24F78B
:10085800FD12000375F010E51EA4247EF582E5F074
:100868003400F583E582251BF582E43583F583E4BE
:100878009330E50FE51D251B24F8FFE51C24F6FD44
:1008880012000375F010E51EA4247EF582E5F0340D
:1008980000F583E582251BF582E43583F583E4932F
:1008A80030E40FE51D251B24F8FFE51C24F5FD1297
:1008B800000375F010E51EA4247EF582E5F03400EF
:1008C800F583E582251BF582E43583F583E49330CF
:1008D800E30FE51D251B24F8FFE51C24F4FD120099
:1008E8000375F010E51EA4247EF582E5F03400F5CA
:1008F80083E582251BF582E43583F583E49330E2B2
:100908000FE51D251B24F8FFE51C24F3FD12000349
:1009180075F010E51EA4247EF582E5F03400F58319
:10092800E582251BF582E43583F583E49330E10FF6
:10093800E51D251B24F8FFE51C24F2FD12000375B4
:10094800F010E51EA4247EF582E5F03400F583E579
:1009580082251BF582E43583F583E49330E00FE5C7
:0E0968001D251B24F8FFE51C24F1FD120003E1
:0C097600051BE51BC3941050030206880B
:010982002252
:060EBA008B0F8A10891164
:100EC000E4F514F515F516F517EDC454F02513F5F2
:100ED0001AD3943F507AED94035075E513940F4064
:100EE00002806DE5154514706FAB0FAA10A91112A1
:100EF0000DF3605C7E00E517251AFBEE3516FA7CD3
:100F0000007D10AF03FE120E738F187C007D10AFB2
:100F100003AE02120E738D19AB0FAA10120DF3FF60
:100F2000AB19AD1812066E74012511F511E43510D8
:100F3000F5100517E517700205167E00251AFFEE5D
:100F40003516FED3EF943FEE648094804095800088
:080F5000751400751501808B7A
:010F58002276
:1010E60057656C636F6D6500746F20504859210019
:1010F6006162636465666768696A6B6C6D6E6F7062
:0B1106007172737475767778797A0047
:0A12320075FFDE75FFAD75EF0422B5
:0D120F00758E207591067592A07593FF22D3
:04006D0075E884228C
:07123C0075D48875D78022EC
:0400760075D103221B
:0712430075A73075E340229E
:1011CF00E4FFFE75B1670FBF00010EBE0BF8BFB88D
:0911DF00F5E5B130E7FB75B2083B
:0111E80022E4
:07124A0075A88075E703227F
:1011E90012123212120F12006D12123C12007612F4
:0811F90012431211CF02124A49
:10098300E4F508F509F50AF50BF50CF50DF50E126E
:1009930011E9E4F50BF50CE50C25E0FFE50B33FE5F
:1009A30074002FF58274003EF583E4F0A3F0050C88
:1009B300E50C7002050BB4E8DEE50BB403D91210A5
:1009C300731211887DA77F0112005F7BFF7A107974
:1009D300E67513047D01120EBA7BFF7A1079EE756A
:1009E30013047D02120EBAE4F50BF50C7F647E004E
:1009F30012111A050CE50C7002050BC394FFE50BED
:100A0300940040E87DA67F0112005FE4F50BF50C2E
:100A13007F647E0012111A050CE50C7002050BC3EE
:100A230094FFE50B940040E8121188E4F50BF50CF4
:100A3300AF0CC007AE0B7C007D64120E1EED25E0EB
:100A4300FFEC33FE742B2FF582740D3EF583E49394
:100A5300FE7401937806CEC313CE13D8F9FDD007E5
:100A6300120003050CE50C7002050BC39480E50B23
:100A7300940040BCE4F50BF50C7F647E0012111A60
:100A8300050CE50C7002050BC394FFE50B940040C5
:100A9300E8121188050EE50E7002050DD39410E5DA
:100AA3000D94274008E4F50DF50E121188C3E50EE9
:100AB3009480E50D94005037AE0DAF0E7C007D148D
:100AC300120E0C7C037DE8120E1EED25E0FFEC33C5
:100AD300FE74002FF58274003EF583E0FEA3E078F8
:100AE30006CEA2E713CE13D8F8FDAF0E1200031201
:100AF3000C448F08E508609C14B409004003020C01
:100B03003A900B1275F003A4C58325F0C5837302D5
:100B13000B2D020B46020B5F020B78020B91020BAB
:100B23009B020BA5020BE1020BF6121188E4F509F7
:100B3300E4FDAF091212280509E509C3948040F0CA
:100B4300020C3A121188E4F5097D01AF091212284B
:100B53000509E509C3948040F0020C3A121188E4B8
:100B6300F509E4FDAF091200030509E509C3948003
:100B730040F0020C3A121188E4F5097D01AF091225
:100B830000030509E509C3948040F0020C3AE4FD33
:100B93007F3F120003020C3AE4FD7F3F121228024A
:100BA3000C3AE4F50BF50CAF0C7D1F120003050C9A
:100BB300E50C7002050BC3947FE50B940040E8E459
:100BC300F50BF50CAD0C7F3F120003050CE50C7023
:100BD30002050BC39440E50B940040E880591211C1
:100BE300887BFF7A1079F6E4F513FD120EBA53856C
:100BF300FE8044121188E4F50BF50CAD0CAF051221
:100C03000003050CE50C7002050BC39440E50B943F
:100C13000040E8750B00750C40AF0CC3747F9FFD5B
:100C2300120003050CE50C7002050BC3947FE50B62
:100C3300940040E5438501E4F509F50AF508020A45
:010C43009719
:100D2B0008000882090309840A020A7F0AF90B707A
:100D3B000BE40C530CBE0D240D850DE00E360E840A
:100D4B000ECC0F0D0F470F790FA40FC60FE10FF34A
:100D5B000FFE0FFF0FFA0FEB0FD50FB60F8F0F61B3
:100D6B000F2B0EEE0EA90E5E0E0C0DB40D560CF2E3
:100D7B000C890C1C0BAA0B350ABC0A4109C309448C
:100D8B0008C3084107BF073D06BC063D05BF054428
:100D9B0004CB045603E40377030E02AA024C01F4BE
:100DAB0001A20157011200D5009F0071004A002BD0
:100DBB000015000600000002000D001F003A005C49
:100DCB00008700B900F30134017C01CA0220027BC9
:100DDB0002DC034203AD041C04900507058105FEEC
:080DEB00067C06FD077E0800EE
:04120A0002260000B8
:0300730002125125
:0412510053917F3204
:03007B00020F5918
:100F5900C0E0C0F0C083C082C0D075D000C000C05E
:100F690004C005C006C007C2ED85BED285BFD30542
:100F790027E52770020526D394E7E5266480948344
:100F89004006752600752700E52725E0FFE526338D
:100F9900FE74002FF58274003EF583E5BFF0A3E5EA
:100FA900BEF0AE26AF277C007D0A120E73EF25E056
:100FB900FFEE33FE742B2FF582740D3EF583E49317
:100FC900FE740193F5D5EEF5D6D007D006D005D03D
:0E0FD90004D000D0D0D082D083D0F0D0E0324F
:03000000020FE705
:0C0FE700787FE4F6D8FD75812702102EFB
:100DF300BB010689828A83E0225002E722BBFE02FE
:090E0300E32289828A83E4932230
:100E0C00EF8DF0A4A8F0CF8CF0A428CE8DF0A42EFA
:020E1C00FE22B4
:100E1E00BC000BBE0029EF8DF084FFADF022E4CCB8
:100E2E00F875F008EF2FFFEE33FEEC33FCEE9DEC81
:100E3E00984005FCEE9DFE0FD5F0E9E4CEFD22EDC7
:100E4E00F8F5F0EE8420D21CFEADF075F008EF2F11
:100E5E00FFED33FD4007985006D5F0F222C398FD02
:050E6E000FD5F0EA229F
:100E7300C2D5EC30E709B2D5E4C39DFDE49CFCEE9A
:100E830030E715B2D5E4C39FFFE49EFE120E1EC3E6
:100E9300E49DFDE49CFC8003120E1E30D507C3E4E1
:060EA3009FFFE49EFE2209
:100EA900EB9FF5F0EA9E42F0E99D42F0E89C45F09F
:010EB9002216
:0C121C00EE30E707C3E49FFFE49EFE22D3
:100FF300020983E493A3F8E493A34003F68001F288
:1010030008DFF48029E493A3F85407240CC8C333FE
:10101300C4540F4420C8834004F456800146F6DFCD
:10102300E4800B0102040810204080901201E47E4A
:10103300019360BCA3FF543F30E509541FFEE493C2
:10104300A360010ECF54C025E060A840B8E493A389
:10105300FAE493A3F8E493A3C8C582C8CAC583CAB4
:10106300F0A3C8C582C8CAC583CADFE9DEE780BE6C
:01120E0000DF
:00000001FF
