:020000040800F2
:1000000060070020E90900086D0200086F0200087F
:1000100073020008770200087B020008000000005D
:100020000000000000000000000000007F02000847
:100030008102000800000000830200088502000819
:10004000030A0008030A0008030A0008030A00085C
:10005000030A0008030A0008030A0008030A00084C
:10006000C5050008FB05000831060008030A000862
:10007000030A0008030A0008030A0008030A00082C
:10008000030A0008030A0008030A0008030A00081C
:10009000030A0008030A0008030A000865060008AE
:1000A000030A0008030A0008030A0008030A0008FC
:1000B000030A0008030A0008030A0008030A0008EC
:1000C000030A0008030A0008030A0008030A0008DC
:1000D000030A00085F090008030A0008030A000871
:1000E000030A0008030A0008030A0008030A0008BC
:1000F000030A0008030A0008030A0008030A0008AC
:10010000030A0008030A0008030A0008030A00089B
:10011000030A0008030A0008030A0008030A00088B
:10012000030A0008030A0008030A0008030A00087B
:10013000030A0008030A0008030A0008030A00086B
:10014000030A0008030A0008030A0008030A00085B
:10015000030A0008030A0008030A0008030A00084B
:10016000030A0008030A0008030A0008030A00083B
:10017000030A0008030A0008030A0008030A00082B
:10018000030A0008030A000800F002F800F03CF837
:100190000AA090E8000C82448344AAF10107DA45E2
:1001A00001D100F031F8AFF2090EBAE80F0013F0F8
:1001B000010F18BFFB1A43F001031847481900004C
:1001C00068190000103A24BF78C878C1FAD85207DD
:1001D00024BF30C830C144BF04680C6070470000C1
:1001E0000023002400250026103A28BF78C1FBD840
:1001F000520728BF30C148BF0B6070471FB501F0E0
:100200007BFC1FBD10B510BD01F032FC1146FFF79D
:10021000F5FF00F009F801F064FC03B4FFF7F2FF0A
:1002200003BC00F03DFB00004FF4A06000F0FCFBBD
:10023000A82000F0B3FA4FF4E13000F03EFB00F0EC
:100240002BF900F043FA00200549086006E005A0FC
:1002500001F0D0FB4FF47A7000F002FBF7E70000EA
:10026000800243424F4B0D0A00000000704700BF60
:10027000FEE700BFFEE700BFFEE700BFFEE77047F6
:1002800070477047704700000CB500200190009047
:100290007648006840F480307449086000BF7348B5
:1002A000006800F4003000900198401C0190009814
:1002B00018B90198B0F5A04FF1D16C48006800F46E
:1002C000003010B10120009001E000200090009863
:1002D000012846D165484030006840F080506349AD
:1002E000403108606248006840F44040604908605E
:1002F0005E48083000685D490831086008460068BB
:1003000040F4004008600846006840F4A0500860CF
:100310005848091F0860081F006840F08070091FD6
:10032000086000BF5148006800F000700028F9D054
:1003300040F20570504908604C480830006820F0D1
:1003400003004A49083108600846006840F002008E
:10035000086000BF45480830006800F00C0008281D
:10036000F8D10CBD10B54548006840F47000434911
:1003700008603E48006840F001003C4908600020E9
:100380003A4908310860394800683D490840374912
:1003900008603C48091D0860081F006820F48020A0
:1003A000091F0860002031490C310860FFF76CFF1D
:1003B0004FF0006031498039086010BD70B50020F1
:1003C0000022022300240221284D08352D6805F063
:1003D0000C0020B1042806D0082834D107E02A4DAB
:1003E0002A4E356033E02A4D284E35602FE01F4DF0
:1003F0002D1D2D68C5F380541C4D2D1D2D6805F055
:100400003F0154B1224DB5FBF1F5184E361D36684B
:10041000C6F3881605FB06F209E01B4DB5FBF1F5A6
:10042000124E361D3668C6F3881605FB06F20F4DD0
:100430002D1D2D68C5F301456D1C6B00B2FBF3F556
:10044000124E356003E0104D104E356000BF00BF06
:10045000064D08352D68C5F303150E4E705D0B4D26
:100460002D68C540094E356070BD0000003802405F
:100470000070004008544007003C024088ED00E056
:10048000FFFFF6FE103000240024F40000000020DE
:1004900000127A00040000201CB50121402000F069
:1004A000DFFE0320009001208DF8040000208DF86D
:1004B000060003208DF8050001208DF8070069462D
:1004C000034800F0A7FB0321014800F01FFC1CBDFE
:1004D000001802401CB50121402000F0C1FE3C2064
:1004E000009000208DF8040003208DF80500012005
:1004F0008DF807006946314800F08CFB1CBD10B533
:10050000044614B101202E4908702D4800780028B7
:1005100035D00421294800F0DFFB70B108212748BD
:1005200000F0DAFB48B11021244800F0D5FB20B1DF
:100530002021224800F0D0FB08BB0A2000F090F9EF
:1005400000201F49087004211C4800F0C5FB08B9B1
:10055000012010BD0821194800F0BEFB08B9022097
:10056000F7E71021154800F0B7FB08B90320F0E7C2
:100570002021124800F0B0FBE8B90420E9E704218B
:100580000E4800F0A9FB012815D108210B4800F006
:10059000A3FB01280FD11021084800F09DFB012882
:1005A00009D12021054800F097FB012803D1044917
:1005B00008700020CDE700BFCBE700000018024024
:1005C0001400002010B50A2000F04AF904217048F8
:1005D00000F082FB68B90BE06E48006808B90120A2
:1005E00000E000206B4908604FF47A7000F038F9A1
:1005F000F2E7012000F051FC10BD10B50A2000F018
:100600002FF90821624800F067FB68B90BE06148E8
:10061000006808B9012000E000205E4908604FF43E
:10062000FA7000F01DF9F2E7042000F036FC10BD6E
:1006300010B50A2000F014F91021554800F04CFBC9
:1006400060B90AE05348006808B9012000E00020C2
:1006500050490860642000F003F9F3E7082000F037
:100660001CFC10BD10B50A2000F0FAF82021484803
:1006700000F032FB30BB24E04648006808B9012096
:1006800000E00020434908604FF47A7000F0E8F879
:100690004148D0F8800208B9012000E000203D491F
:1006A00008604FF4FA7000F0DBF83B48D0F88002A5
:1006B00008B9012000E0002036490860642000F0FD
:1006C000CFF8D9E7102000F0E8FB10BD0EB5FFF71A
:1006D00001FF0121880300F01DFE0221062000F029
:1006E00024FF0321062000F020FF0421062000F053
:1006F0001CFF0521062000F018FF3C200090002080
:100700008DF804000C208DF8050001208DF80600FE
:10071000684600F051FB08208DF8080003208DF892
:10072000090002208DF80A0001208DF80B0002A8B4
:1007300000F07FF909208DF8080002208DF80900EB
:100740008DF80A0001208DF80B0002A800F071F965
:100750000A208DF8080001208DF8090002208DF88C
:100760000A0001208DF80B0002A800F062F91720A2
:100770008DF8080000208DF8090002208DF80A008D
:1007800001208DF80B0002A800F053F90EBD000007
:1007900000180240800243420000434210B5044664
:1007A0006FF0040000F092F9E11704EB5171C1F30E
:1007B000C701394A11701046007800EB4001C1EBC7
:1007C000C0104FF6FF7101EAC0003449088010BD27
:1007D0000146314A12784A434FF0E0235A61002221
:1007E0009A611A46126942F001021A6100BF4FF085
:1007F000E022106900F001021AB100F48032002AF0
:10080000F5D04FF0E022126922F001024FF0E02310
:100810001A6100229A6170470146204A12884A43B1
:100820004FF0E0235A6100229A611A46126942F0A1
:1008300001021A6100BF4FF0E022106900F00102CE
:100840001AB100F48032002AF5D04FF0E02212698C
:1008500022F001024FF0E0231A6100229A617047F2
:1008600070B504464FF4077094FBF0F0C6B24FF435
:10087000077094FBF0F100FB114085B205E04FF4E6
:100880000770FFF7C9FF701EC6B2002EF7D115B171
:100890002846FFF7C1FF70BD160000201800002099
:1008A00000BF704700BF4C4A128802F04002002A85
:1008B000F9D0C2B2484B9A80704710B588B0044650
:1008C0000121084600F0CCFC0121102000F022FD9F
:1008D00007220921414800F028FA07220A213F484F
:1008E00000F023FA4FF4C060069002208DF81C003F
:1008F0008DF81D0000208DF81E0001208DF81F00CE
:1009000006A9364800F086F902940020ADF80C00E4
:10091000ADF80E00ADF81000ADF814000C20ADF8E5
:10092000120002A92C4800F0A0FE01212A4800F084
:1009300024FF012240F22551274800F0D4FF252052
:100940008DF8040003208DF805008DF806000120C5
:100950008DF8070001A800F06CF808B010BD10B5C4
:1009600040F225511C4800F0F9FF10B31A4800F07E
:1009700033FFC4B21A48008800F40040C8B91848D0
:10098000008800F4804060B10A2C03D00020144994
:10099000088020E01248008840F400401049088098
:1009A00019E00D2C06D10E48008840F480400C4917
:1009B000088010E00A480088C0F30D0009490C5473
:1009C00007480088401C0649088008460088C72858
:1009D00001DD0020088010BD001001400000024031
:1009E00020000020340000200948804709480047C3
:1009F000FEE7FEE7FEE7FEE7FEE7FEE7FEE7FEE7CF
:100A0000FEE7FEE704480549054A064B704700002B
:100A100065030008890100086001002060070020CC
:100A2000600300206003002032490143324A116014
:100A3000704770B5002100230F22C4781CB32E4CE0
:100A4000246804F4E064C4F5E064C4F30721C1F150
:100A50000404E3B20A4144789C40E1B28478144033
:100A600021430C07210E254C05786155047804F0CC
:100A70001F050124AC4005786D11AD0005F1E0259E
:100A8000C5F8004109E0047804F01F050124AC40DA
:100A90001B4D0678761145F8264070BD194A0A406C
:100AA0000243154B1B1F1A60704739B1124A121DC1
:100AB00012680243104B1B1D1A6006E00E4A121DFD
:100AC000126882430C4B1B1D1A607047042808D122
:100AD0004FF0E021096941F004014FF0E02211617B
:100AE00007E04FF0E021096921F004014FF0E02216
:100AF000116170470000FA050CED00E000E400E031
:100B000080E100E080FFFF1F10B504469848844252
:100B100008D10121084600F00EFC0021012000F060
:100B20000AFC76E09348844208D10121022000F0BB
:100B300002FC0021022000F0FEFB6AE08E488442A5
:100B400008D10121042000F0F6FB0021042000F070
:100B5000F2FB5EE08948844208D10121082000F0C0
:100B6000EAFB0021082000F0E6FB52E084488442C2
:100B700008D10121102000F0DEFB0021102000F040
:100B8000DAFB46E07F48844208D10121202000F0B2
:100B9000D2FB0021202000F0CEFB3AE07A488442CC
:100BA00008D10121402000F0C6FB0021402000F0C8
:100BB000C2FB2EE07548844208D10121802000F05C
:100BC000BAFB0021802000F0B6FB22E0704884428E
:100BD00008D10121801500F0AEFB0021A01500F026
:100BE000AAFB16E06B48844208D10121401500F0B1
:100BF000A2FB0021601500F09EFB0AE066488442DB
:100C000007D10121001500F096FB0021201500F00E
:100C100092FB10BDF0B50A4600210023002400BF5E
:100C20003DE0012505FA01F3156805EA03049C423D
:100C300034D105684F000326BE40B54305601579E1
:100C40004E00B5400668354305601579012D02D088
:100C50001579022D16D185684F000326BE40B54395
:100C6000856055794E00B540866835438560456896
:100C700001268E40B5434560456896798E40B6B2F0
:100C800035434560C5684F000326BE40B543C56087
:100C9000D5794E00B540C6683543C560491C10295A
:100CA000BFD3F0BD4FF6FF710160002101714171AA
:100CB0008171C171704708B54FF480320092009A7B
:100CC0000A430092009AC261C161009AC261C2697E
:100CD0000092C269009208BD0246002013690B40D1
:100CE0000BB1012000E0002070470146086980B286
:100CF00070470246002053690B400BB1012000E011
:100D0000002070470146486980B2704701837047F0
:100D1000418370470AB1018300E04183704741611C
:100D2000704742694A4042617047F0B50023002491
:100D30004D07ED0E02FA05F3CE1000F1200555F82F
:100D400026504E07F70E0F26BE40B543CF1000F1D8
:100D5000200646F82750CE1000F1200555F8265001
:100D600045EA0304CE1000F1200545F82640F0BD09
:100D7000000002400004024000080240000C024053
:100D8000001002400014024000180240001C024003
:100D90000020024000240240002802400020414977
:100DA0000860091D0860091D0860091D08603E48AB
:100DB0003C4914310860704700213A498279002A81
:100DC0003AD00A46126803689A430B461A600A1D15
:100DD000126803689A430B1D1A60027911440A686D
:100DE00003681A430A602F4A0832126803689A435C
:100DF0002C4B08331A601A1D126803689A43294B5A
:100E00000C331A604279102A0ED11A1F1268036837
:100E10001A43244B08331A601A1D126803681A43D8
:100E2000204B0C331A600DE01E49427911440A68C8
:100E300003681A430A6005E0027911440A680368EE
:100E40009A430A6070470021016001710C214171D1
:100E50000021817170471349103109680143114A1B
:100E6000103211607047014600200E4A1432126899
:100E70000A400AB1012000E00020704709491431FE
:100E80000860704701460020064A143212680A4082
:100E90000AB1012000E000207047024914310860C7
:100EA00070470000003C0140FFFF7F00F9480068E8
:100EB00040F00100F74908600020F6490831086059
:100EC000F4480068F4490840F2490860F348091DF5
:100ED0000860F348EF4984310860F0481038091D74
:100EE0000860EC48006820F48020EA49086000208F
:100EF000E8490C310860E7498C31086070470021EF
:100F0000E44A921C117011460870704710B50146F2
:100F10000022002300204A11012A02D1DD4C23685F
:100F200008E0022A03D1DB4C7034236802E0D94C7C
:100F30007434236801F01F02012494401C400CB15A
:100F4000012000E0002010BD38B5002000900024F2
:100F5000002500BF3120FFF7D9FF05460098401C4F
:100F600000900098B0F5A04F01D0002DF2D03120B4
:100F7000FFF7CCFF08B1012400E00024204638BD73
:100F800001460020C34A106820F0F80040EAC10082
:100F900010607047C349086070470021BD4A703235
:100FA00011701170012802D004280AD104E0012137
:100FB000B84A7032117005E00521B64A70321170DE
:100FC00000E000BF00BF7047B7490860704770B5C8
:100FD000049C41EA82150126C6EB530645EA064504
:100FE000054345EA0465AB4E361D356070BDAD491D
:100FF00008667047820142EA0172A64B84331A6088
:101000007047A8498866704710B5830143EA0163B9
:1010100043EA02739F4C8834236010BDA1490867DE
:101020007047A049C864704702460020994B0833B6
:10103000186820F0EC6042EA01031843954B08332E
:101040001860704702460020924B0833186820F061
:10105000784042EA010318438E4B0833186070470A
:10106000014600208B4A0832106820F00300084334
:101070001060704787480830006800F00C00704727
:1010800001460020834A0832106820F0F00008432F
:1010900010607047014600207E4A0832106820F434
:1010A000E05008431060704701460020794A08323A
:1010B000106820F4604040EAC10010607047F0B54D
:1010C000002100220024022500260223714F083748
:1010D0003F6807F00C0121B1042905D0082937D158
:1010E00005E0724F076036E0714F076033E0694FEB
:1010F0003F1D3F68C7F38056664F3F1D3F6807F0AE
:101100003F036EB16A4FB7FBF3F7DFF888C10CF10C
:10111000040CDCF800C0CCF3881C07FB0CF40CE0DA
:10112000624FB7FBF3F7DFF86CC10CF1040CDCF88D
:1011300000C0CCF3881C07FB0CF4564F3F1D3F68E2
:10114000C7F301477F1C7D00B4FBF5F7076002E0A1
:10115000564F076000BF00BF4E4F08373F6807F08B
:10116000F0010909534F7A5C0768D7404760494F3F
:1011700008373F6807F4E051890A4E4F7A5C4768A8
:10118000D7408760434F08373F6807F46041490BF9
:10119000484F7A5C4768D740C760F0BD002100F433
:1011A0004072B2F5407F0AD13A4A0832116821F400
:1011B000F811414A02401143364A08321160354A5B
:1011C00070321268C0F30B031A43324B70331A604B
:1011D00070473549443908607047334940390860E1
:1011E000704736490860704701460020294A8C3212
:1011F000106820F01F004A1E1043264A8C321060EF
:10120000704701460020234A8C32106820F4F850C1
:101210004A1E40EA02201F4A8C3210607047014685
:1012200000201C4A8C32106820F4401008431060E3
:10123000704701460020174A8C32106820F44000A5
:1012400008431060704701460020124A8C32106833
:1012500020F4403008431060704719490860704717
:1012600039B10C4A3032126802430A4B30331A60EB
:1012700006E0084A303212688243064B30331A6067
:101280007047F9B1034A343212680243014B3433D8
:101290001A601CE000380240FFFFF6EA103000241C
:1012A0000030002000004742800E47420024F40036
:1012B00000127A0022000020FFFCFF0F5C01474271
:1012C000E01147428F4A126882438E4B1A60704782
:1012D00039B18C4A121D126802438A4B1B1D1A60D9
:1012E00006E0884A121D12688243864B1B1D1A6055
:1012F000704739B1834A0C3212680243814B0C3378
:101300001A6006E07F4A0C32126882437D4B0C3330
:101310001A60704739B17B4A103212680243794B28
:1013200010331A6006E0774A103212688243754B18
:1013300010331A60704739B1724A243A1268024376
:10134000704B243B1A6006E06E4A243A12688243CE
:101350006C4B243B1A60704739B16A4A203A1268D4
:101360000243684B203B1A6006E0664A203A126846
:101370008243644B203B1A60704739B1614A1C3A82
:10138000126802435F4B1C3B1A6006E05D4A1C3A40
:10139000126882435B4B1C3B1A60704739B1594A53
:1013A000143A12680243574B143B1A6006E0554A40
:1013B000143A12688243534B143B1A60704739B198
:1013C000504A103A126802434E4B103B1A6006E036
:1013D0004C4A103A126882434A4B103B1A607047DD
:1013E00039B1484A1C3212680243464B1C331A601A
:1013F00006E0444A1C3212688243424B1C331A6096
:10140000704739B13F4A2032126802433D4B2033C6
:101410001A6006E03B4A203212688243394B20337F
:101420001A60704739B1374A243212680243354B8B
:1014300024331A6006E0334A243212688243314B67
:1014400024331A60704739B12E4A2C321268024395
:101450002C4B2C331A6006E02A4A2C321268824345
:10146000284B2C331A60704739B1264A3032126843
:101470000243244B30331A6006E0224A30321268AD
:101480008243204B30331A607047012808D11D4930
:101490003C31096841F008011A4A3C32116007E00A
:1014A00018493C31096821F00801164A3C321160A4
:1014B000704739B1134A273A12780243114B273B40
:1014C0001A7006E00F4A273A127882430D4B273BE9
:1014D0001A7070470B484030006840F0807009492E
:1014E00040310860704701460020064A283A1268D9
:1014F0000A400AB1012000E0002070470149263966
:10150000087070473438024010B501218803FFF796
:1015100056FF00214FF48040FFF751FF10BD1C49DA
:10152000086070471B490862704730B500228B077E
:101530001C0F0F2303FA04F2154B08338C1053F8D9
:1015400024309343124C08348D1044F82530234640
:101550008C1053F824308C07240F00FA04F4234332
:101560000B4C08348D1044F8253030BD0949DC316E
:10157000086070470849086070470020044920311E
:10158000096801F4807109B1012000E00020704772
:1015900000380140000027420004274210B50446ED
:1015A000FA48844208D101211020FFF708FF0021EA
:1015B0001020FFF704FF57E0F548844209D10121CC
:1015C0004804FFF7EBFE00214FF40030FFF7E6FE82
:1015D0004AE0F048844209D101218804FFF7DEFE89
:1015E00000214FF48020FFF7D9FE3DE0EA48844215
:1015F00009D10121C804FFF7D1FE00214FF40020DA
:10160000FFF7CCFE30E0E548844209D1012108050E
:10161000FFF7C4FE00214FF48010FFF7BFFE23E068
:10162000DF48844208D101212020FFF7C8FE0021B5
:101630002020FFF7C4FE17E0DA48844209D10121D7
:101640008807FFF7ABFE00214FF08040FFF7A6FEB2
:101650000AE0D548844207D101214005FFF79EFEEC
:1016600000216005FFF79AFE10BD2DE9FF470546F2
:101670000E460024A14600BFA046B08900B100BFBD
:101680002C8A24F44054F08804432C82AC8941F223
:101690000C608443B088318908437189084304434E
:1016A000AC81AC8A24F44074B0890443AC826846AF
:1016B000FFF705FDB548854202D0B948854202D101
:1016C000DDF80C9001E0DDF80890A88900F40040F6
:1016D00040B109EBC90000EB091031684900B0FBCB
:1016E000F1F707E009EBC90000EB09103168890048
:1016F000B0FBF1F76420B7FBF0F00401200964218E
:1017000001FB1078A88900F4004040B1322000EBC2
:10171000C800B0FBF1F000F00700044308E03220FD
:1017200000EB08106421B0FBF1F000F00F0004435F
:101730002C81BDE8FF874FF41651016000218180A4
:10174000C18001810C21418100218181704710B548
:1017500002460020108A20F470600B884C882343D6
:101760008C882343CC8823431843108210BD00216A
:10177000018041808180C180704721B1828942F41B
:101780000052828104E082894DF6FF731A40828103
:101790007047028B02F47F420283028B0A4302836A
:1017A000704721B1828942F40042828103E082893C
:1017B000C2F30E028281704721B1828A42F4006234
:1017C000828204E0828A4FF2FF731A40828270475D
:1017D000C1F308028280704701468888C0F3080080
:1017E0007047028A4FF6F0731A400282028A0A4357
:1017F0000282704721B1828942F00202828104E0B4
:1018000082894FF6FD731A408281704782894FF2B8
:10181000FF731A40828182890A4382817047028A5B
:101820004FF6DF731A400282028A0A43028270472F
:1018300021B1028A42F48042028204E0028A4BF61D
:10184000FF731A4002827047818941F00101818152
:10185000704721B1828A42F00802828204E0828AC3
:101860004FF6F7731A4082827047028BD2B202831E
:10187000028B42EA01220283704721B1828A42F040
:101880002002828204E0828A4FF6DF731A4082824D
:10189000704721B1828A42F01002828204E0828A7B
:1018A0004FF6EF731A4082827047828A4FF6FB73BD
:1018B0001A408282828A0A438282704721B1828AD8
:1018C00042F00202828204E0828A4FF6FD731A40DF
:1018D000828270471AB1838A0B43838202E0838A33
:1018E0008B4383827047F0B5034600240026002511
:1018F000002040F66A17B94200D100BF1846C1F374
:10190000421401F01F06012707FA06F5012C01D148
:101910000C3004E0022C01D1103000E014301AB178
:1019200007682F43076002E00768AF430760F0BD18
:1019300002460020B1F5007F00D100BF13880B40A4
:101940000BB1012000E00020704701F40072B2F5F5
:10195000007F00D100BFCA430280704770B50246C5
:10196000002400230025002040F66A16B14200D171
:1019700000BFC1F3421501F01F03012606FA03F36D
:10198000012D13D19689334017E00000001001406B
:101990000044004000480040004C0040005000401F
:1019A0000014014000780040007C0040022D02D16C
:1019B000168A334001E0968A33400C12012606FA5B
:1019C00004F41688344013B10CB1012000E000206B
:1019D00070BD10B50022002340F66A14A14200D168
:1019E00000BF0A1201249440A3B2DC43048010BD5E
:1019F000704700000FB4044910B503AA029800F024
:101A000009F810BC5DF814FB1C00002070477047FB
:101A100070477047074B70B50D467B4400F011F8D6
:101A20000446284600F020F810B14FF0FF3070BD9A
:101A3000204670BD87EEFFFF01694A1C02610878ED
:101A4000704700B58FB0CDE90131002105910549FE
:101A50007944CDE903101146684600F02EF80FB026
:101A600000BD0000E5FFFFFF007B00F08000704735
:101A7000754600F03DF8AE4605006946534620F035
:101A80000700854618B020B5FEF7BCFFBDE8204032
:101A90004FF000064FF000074FF000084FF0000B2A
:101AA00021F00701AC46ACE8C009ACE8C009ACE8DD
:101AB000C009ACE8C0098D4670472DE9F0410646E3
:101AC0000024D6E90170F5688046304603E04146BF
:101AD000B847641C3046A8470028F8D12046BDE826
:101AE000F0810446AFF300802046FEF796FB00002D
:101AF00000487047FC0000204FF04070E1EE100AF3
:101B000070470000241B0008000000203400000083
:101B1000C4010008581B0008340000202C070000F6
:101B2000E0010008007A030A000000000000000045
:101B3000010203040607080901000000000000007C
:101B40000000000000000000000001020304010288
:081B5000030406070809000068
:040000050800018965
:00000001FF
