:020000040800F2
:1000000070070020E1530008D9030008DB03000853
:10001000DF030008E3030008E70300080000000016
:10002000000000000000000000000000EB030008DA
:10003000ED03000800000000EF030008F1030008D2
:10004000FB530008FB530008FB530008FB53000858
:10005000FB530008FB530008FB530008FB53000848
:10006000FB530008FB530008FB530008FB53000838
:10007000FB530008FB530008FB530008FB53000828
:10008000FB530008FB530008FB530008FB53000818
:10009000FB530008FB530008FB530008FB53000808
:1000A000FB530008FB530008FB530008FB530008F8
:1000B000FB530008FB530008FB530008FB530008E8
:1000C000FB530008FB530008FB530008FB530008D8
:1000D000FB53000857530008FB530008FB5300086C
:1000E000FB530008FB530008FB530008FB530008B8
:1000F000FB530008FB530008FB530008FB530008A8
:10010000FB530008FB530008FB530008FB53000897
:10011000FB530008FB530008FB530008FB53000887
:10012000FB530008FB530008FB530008FB53000877
:10013000FB530008FB530008FB530008FB53000867
:10014000FB530008FB530008FB530008FB53000857
:10015000FB530008FB530008FB530008FB53000847
:10016000FB530008FB530008FB530008FB53000837
:10017000FB530008FB530008FB530008FB53000827
:10018000FB530008FB53000800F002F800F041F8B0
:100190000AA090E8000C82448344AAF10107DA45E2
:1001A00001D100F036F8AFF2090EBAE80F0013F0F3
:1001B000010F18BFFB1A43F001031847A884000081
:1001C000C8840000103A24BF78C878C1FAD8520712
:1001D00024BF30C830C144BF04680C6070470000C1
:1001E0000023002400250026103A28BF78C1FBD840
:1001F000520728BF30C148BF0B607047782906F00E
:100200004F83002070471FB506F01AFE1FBD10B5C2
:1002100010BD06F09FFC1146FFF7F5FF00F008F84F
:1002200006F0BDFC03B4FFF7F2FF03BC05F034F8A1
:1002300086B000244FF4A06005F0F2F8A82004F086
:10024000A9FF4FF4E13005F034F800F0DBF901F0DC
:100250005EF84FF478404B4908804B4882884BA1A8
:1002600003A806F0E1FA8BE00C2C41D2DFE804F0A1
:10027000060B0F13181D22272C31363B4FF6FF704B
:1002800001F013F834E0002001F00FF830E01F20F7
:1002900001F00BF82CE04FF4784001F006F827E06D
:1002A0004FF61F0001F001F822E04FF4FC6000F06F
:1002B000FCFF1DE047F6FF7000F0F7FF18E04FF677
:1002C000E07000F0F2FF13E04FF6074000F0EDFFA2
:1002D0000EE048F2304000F0E8FF09E04CF2186010
:1002E00000F0E3FF04E04BF6404000F0DEFF00BF0B
:1002F00000BF4FF478402349088027A018210B46FF
:10030000D222CDE9001028211E2004F010FF27A0E2
:1003100010210B46C822CDE9001046211E2004F012
:1003200006FF25A010210B46C822CDE900105A2156
:100330001E2004F0FCFE03A810210B46C822CDE9C4
:1003400000106E211E2004F0F2FE1FA00C210B46AF
:10035000C822CDE9001082211E2004F0E8FE601CB6
:10036000C4B20C2C00D100241A48006808B901203E
:1003700000E00020174908604FF47A7004F06CFF29
:1003800072E7000014000020340000204C43442099
:1003900049443A25303458004578706C6F72657264
:1003A0002053544D33324634000000005446544C20
:1003B000434420544553540041544F4D40414C490F
:1003C000454E54454B000000323031342F352F3428
:1003D00000000000A4824242704700BFFEE700BF59
:1003E000FEE700BFFEE700BFFEE7704770477047BB
:1003F000704700000CB5002001900090764800681E
:1004000040F480307449086000BF7348006800F40D
:10041000003000900198401C0190009818B9019894
:10042000B0F5A04FF1D16C48006800F4003010B175
:100430000120009001E0002000900098012846D1A2
:1004400065484030006840F08050634940310860A2
:100450006248006840F44040604908605E480830E7
:1004600000685D49083108600846006840F40040B3
:1004700008600846006840F4A05008605848091F0A
:100480000860081F006840F08070091F086000BF06
:100490005148006800F000700028F9D040F2057063
:1004A000504908604C480830006820F003004A4971
:1004B000083108600846006840F00200086000BF8C
:1004C00045480830006800F00C000828F8D10CBD41
:1004D00010B54548006840F47000434908603E4844
:1004E000006840F001003C49086000203A490831AA
:1004F0000860394800683D490840374908603C4871
:10050000091D0860081F006820F48020091F08608A
:10051000002031490C310860FFF76CFF4FF000609C
:1005200031498039086010BD70B5002000220223D7
:1005300000240221284D08352D6805F00C0020B15B
:10054000042806D0082834D107E02A4D2A4E356009
:1005500033E02A4D284E35602FE01F4D2D1D2D68AC
:10056000C5F380541C4D2D1D2D6805F03F0154B17D
:10057000224DB5FBF1F5184E361D3668C6F38816C8
:1005800005FB06F209E01B4DB5FBF1F5124E361DD9
:100590003668C6F3881605FB06F20F4D2D1D2D6833
:1005A000C5F301456D1C6B00B2FBF3F5124E3560CF
:1005B00003E0104D104E356000BF00BF064D0835FA
:1005C0002D68C5F303150E4E705D0B4D2D68C540AB
:1005D000094E356070BD00000038024000700040D8
:1005E00008544007003C024088ED00E0FFFFF6FEA3
:1005F000103000240024F4000000002000127A00D3
:10060000040000201CB50121202005F081FD4FF4DD
:10061000C060009001208DF8040000208DF80600D5
:1006200003208DF8050001208DF807006946044875
:1006300004F0ECFF4FF4C061014805F063F81CBD05
:100640000014024001B5BDF800000090BDF80000A4
:10065000F849088008BD01B5BDF800000090BDF85C
:100660000000F449891C088008BD08B5F148801CC9
:1006700000880090BDF8000008BDEE4A10804FF0E1
:10068000D842A2F88010704710B504462046FFF704
:10069000D9FF052004F098FDFFF7E7FF10BDE648FD
:1006A0000089E44908807047E249891C0880704746
:1006B00030B5014601F01F04C1F34513CA0AE50233
:1006C00005EB43151544A8B230BD00BF0100A0F1F1
:1006D0000102D0B2FAD1704730B504460D46D64873
:1006E000808849F24131884205D0D348808845F25C
:1006F0001031884214D1D0494889FFF7A3FF201256
:10070000FFF7A9FFE0B2FFF7A6FFCB498889FFF703
:1007100099FF2812FFF79FFFE8B2FFF79CFFABE0BD
:10072000C548808846F6040188421DD1C2488079B8
:10073000012804D1C0480088401E001B84B2BE4975
:100740004889FFF77FFF2012FFF785FFE0B2FFF730
:1007500082FFB9498889FFF775FF2812FFF77BFFF1
:10076000E8B2FFF778FF87E0B348808841F663116D
:10077000884247D1B0488079A8B9AF480088401E68
:10078000001B84B2AC494889FFF75CFF0020FFF7EB
:1007900062FF0020FFF75FFF2012FFF75CFFE0B26F
:1007A000FFF759FF16E0A4494889FFF74BFF2012D5
:1007B000FFF751FFE0B2FFF74EFF9F490988491E3E
:1007C000C1F30F20FFF747FF9B490978491EC8B2C4
:1007D000FFF741FF98498889FFF734FF2812FFF798
:1007E0003AFFE8B2FFF737FF93494988491EC1F342
:1007F0000F20FFF730FF90498978491EC8B2FFF7F4
:100800002AFF39E08C48808845F21051884220D177
:1008100089494889FFF716FF2012FFF71CFF864918
:100820004989491C88B2FFF70DFFE0B2FFF713FFBB
:1008300081498889FFF706FF2812FFF70CFF7E49E0
:100840008989491C88B2FFF7FDFEE8B2FFF703FF74
:1008500012E079488079012804D177480088401E49
:10086000001B84B2744948892146FFF706FF72498C
:1008700088892946FFF701FF30BD2DE9F041054683
:100880000E4600240027A0466B480088A84203DDDE
:1008900069484088B04202DC0020BDE8F081314662
:1008A0002846FFF719FF6448808849F241318842A1
:1008B0000BD06148808845F21031884205D05E48EF
:1008C000808841F66311884203D12E20FFF7BAFEDB
:1008D00009E05948808845F21051884203D14FF40D
:1008E0003850FFF7AFFEFFF7C0FE0446524880883D
:1008F00041F66311884201D12046CEE70220FFF77E
:10090000E4FEFFF7B2FE04460220FFF7DEFEFFF72B
:10091000ACFE8046E7B24FF6FF7000EA0727E01210
:10092000C002B91240EA411040EAE820B5E700B53C
:100930004148808849F24131884211D03E48808840
:1009400046F6040188420BD03B48808845F21031BE
:10095000884205D03848808841F66311884203D127
:100960002920FFF76FFE0FE03348808845F21051D1
:10097000884204D14FF42450FFF764FE04E040F2B3
:1009800073110720FFF779FE00BD00B52A48808863
:1009900049F24131884211D02748808846F6040147
:1009A00088420BD02448808845F21031884205D017
:1009B0002148808841F66311884203D12820FFF73F
:1009C00041FE0EE01C48808845F21051884204D157
:1009D0004FF42050FFF736FE03E000210720FFF719
:1009E0004CFE00BDF0B50546002400271248807972
:1009F00001280BD11048808846F60401884205D0B2
:100A00000D48808841F66311884208D10A488079F0
:100A100018BB0948808841F6631188421DD1082D12
:100A20001AD2DFE805F0040B0D0F11131517062578
:100A300012E000007E00006C3400002007250BE06F
:100A4000042509E0052507E0012505E0002503E070
:100A5000032501E0022500BF00BFFE48808849F25F
:100A60004131884217D0FB48808846F6040188420D
:100A700011D0F848808845F2103188420BD0F548F3
:100A8000808845F21051884205D0F248808841F6AE
:100A9000631188427ED1082D1CD2DFE805F00406E0
:100AA000090C0F12151800BF14E044F0800411E087
:100AB00044F040040EE044F0C0040BE044F0200495
:100AC00008E044F0600405E044F0A00402E044F0D3
:100AD000E00400BF00BFDF48808845F21051884223
:100AE00002D14FF4585700E03627DA48808845F2A3
:100AF000103188420DD0D748808845F21051884285
:100B000007D0D448808841F66311884201D044F070
:100B10000804D048808846F60401884201D144F098
:100B2000020421463846FFF7A8FDCA48808841F6EE
:100B3000631188421DD004F0200068B1C5480088C8
:100B4000C4494988884214DAC24806884088C149A5
:100B50000880084646800CE0BE480088BD494988A8
:100B6000884206DDBB4806884088BA4908800846A6
:100B70004680B848808845F21051884254D1B54922
:100B80004889FFF75FFD0020FFF765FDB1494989FE
:100B9000491C00E077E088B2FFF754FD0020FFF722
:100BA0005AFDAC494989891C88B2FFF74BFDA94918
:100BB0000988491EC1F30F20FFF74DFDA54949895A
:100BC000C91C88B2FFF73EFDA2490978491EC8B288
:100BD000FFF741FD9F498889FFF734FD0020FFF7AB
:100BE0003AFD9C498989491C88B2FFF72BFD0020FA
:100BF000FFF731FD97498989891C88B2FFF722FDEB
:100C000094494988491EC1F30F20FFF724FD9149FB
:100C10008989C91C88B2FFF715FD8E498978491E5C
:100C2000C8B2FFF718FD55E08A494889FFF70AFD69
:100C30000020FFF710FD0020FFF70DFD8549098812
:100C4000491EC1F30F20FFF706FD82490978491EAE
:100C5000C8B2FFF700FD7F498889FFF7F3FC002049
:100C6000FFF7F9FC0020FFF7F6FC7A494988491E96
:100C7000C1F30F20FFF7EFFC76498978491EC8B20F
:100C8000FFF7E9FC26E0082D1CD2DFE805F0040799
:100C90000A0D0F12151844F0300413E044F010044C
:100CA00010E044F020040DE000BF0BE044F03804F5
:100CB00008E044F0280405E044F0180402E044F0A1
:100CC000080400BF00BF032744F48054214638467F
:100CD000FFF7D3FCF0BD30B504460D46294620464B
:100CE000FFF7FAFCFFF7DBFC5B4800885B490880F4
:100CF00030BD70B504460D4616465648808849F208
:100D00004131884205D05348808845F210318842ED
:100D100014D150494889FFF795FC2012FFF79BFC3E
:100D2000E0B2FFF798FC4B498889FFF78BFC28124B
:100D3000FFF791FCE8B2FFF78EFC93E0454880880E
:100D400045F21051884220D142494889FFF77AFC88
:100D50002012FFF780FC3F494989491C88B2FFF700
:100D600071FCE0B2FFF777FC3A498889FFF76AFC2B
:100D70002812FFF770FC37498989491C88B2FFF7B0
:100D800061FCE8B2FFF767FC6CE03248808841F60E
:100D90006311884228D12F48807920B92D480088D6
:100DA000401E001B84B22B494889FFF74BFC2012E0
:100DB000FFF751FCE0B2FFF74EFC2012FFF74BFCAF
:100DC000E0B2FFF748FC23498889FFF73BFC281273
:100DD000FFF741FCE8B2FFF73EFC2812FFF73BFCAF
:100DE000E8B2FFF738FC3DE01A48808846F6040177
:100DF00088421DD117488079012804D11548008800
:100E0000401E001B84B213494889FFF71BFC2012C7
:100E1000FFF721FCE0B2FFF71EFC0E498889FFF7BF
:100E200011FC2812FFF717FCE8B2FFF714FC19E0D9
:100E300008488079012804D106480088401E001B1C
:100E400084B2044948892146FFF717FC0149888983
:100E5000294605E034000020140000208000006CCA
:100E6000FFF70BFCFB480089FB4908804FF0D84096
:100E7000A0F8806070BD70B52DED048B0446BE20D7
:100E8000FFF7E0FB0520FFF7E6FB204605F0C7FE75
:100E900041EC190B9FEDF10B53EC102B05F0D2FE3A
:100EA00041EC180B05F08EFE85B22846FFF7D3FB08
:100EB0000120FFF7D0FBFF20FFF7CDFB0020FFF75D
:100EC000CAFB0020FFF7C7FBBDEC048B70BD10B55B
:100ED0000446002C66D1DF498871F02008804FF469
:100EE000A07048800846808849F2413188420BD082
:100EF000D848808846F60401884205D0D5488088C5
:100F000045F2103188421AD12C20D24908812A207A
:100F100048812B2088810846808846F60401884253
:100F200005D0CC48808845F21031884206D14FF474
:100F3000A070C84908804FF4F0704880A1E0C5480F
:100F4000808845F21051884210D14FF43050C14989
:100F500008814FF4285048814FF42C5088814FF479
:100F6000F07008804FF4487048808AE0B948808863
:100F700041F6631188420DD12C20B64908812B20FF
:100F800048812A2088814FF4F07008804FF448701F
:100F9000488076E02220AF49088120204881212026
:100FA00088816EE00120AB4988714FF4A070088001
:100FB000F02048800846808849F24131884205D0B7
:100FC000A448808845F21031884207D12C20A149DD
:100FD00008812A2048812B2088813FE09D48808815
:100FE00046F60401884207D12C209A4908812B201B
:100FF00048812A20888131E09648808845F2105146
:10100000884210D14FF43050924908814FF4285053
:1010100048814FF42C5088814FF4487008804FF479
:10102000F07048801AE08B48808841F6631188424E
:101030000DD12C20874908812A2048812B208881C6
:101040004FF4487008804FF4F070488006E022208A
:101050008049088121204881202088817D4880881E
:1010600046F60401884205D07A48808845F210315E
:10107000884206D14FF4F070764908804FF4A07092
:1010800048800020FFF7AEFC10BD2DE9F04F86B080
:1010900004460D469046994604EB0800401E86B271
:1010A00005EB0900401E87B26A48808849F2413149
:1010B000884215D06748808845F2103188420FD0A9
:1010C0006448808846F60401884209D061488079E6
:1010D000012826D15F48808841F66311884220D1DB
:1010E0005C494889FFF7AEFA2012FFF7B4FAE0B284
:1010F000FFF7B1FA3012FFF7AEFAF0B2FFF7ABFA32
:1011000054498889FFF79EFA2812FFF7A4FAE8B23B
:10111000FFF7A1FA3812FFF79EFAF8B2FFF79BFA31
:10112000C0E04C48808841F66311884234D1494878
:101130000088A0EB0800001B84B205EB0900401EEC
:101140001FFA80F943494889FFF77CFA2012FFF71C
:1011500082FAE0B2FFF77FFA04EB0801491EC1F3FF
:101160000F20FFF778FA04EB0801491EC8B2FFF719
:1011700072FA38498889FFF765FA2812FFF76BFA87
:10118000E8B2FFF768FA4FEA2920FFF764FA09F09E
:10119000FF00FFF760FA85E02E48808845F2105185
:1011A000884244D12B494889FFF74CFA2012FFF7B7
:1011B00052FA28494989491C88B2FFF743FAE0B23C
:1011C000FFF749FA23494989891C88B2FFF73AFA9F
:1011D0003012FFF740FA1F494989C91C88B2FFF74E
:1011E00031FAF0B2FFF737FA1A498889FFF72AFA7D
:1011F0002812FFF730FA17498989491C88B2FFF78E
:1012000021FAE8B2FFF727FA12498989891C88B2C6
:10121000FFF718FA3812FFF71EFA0E498989C91C20
:1012200088B2FFF70FFAF8B2FFF715FA3AE009486B
:101230008079012816D1AA46BB4606480088801B43
:10124000401E80B2019003480088001B401E80B2FF
:1012500000900BE0340000207E00006C666666663D
:1012600066660440A246B34601950097502005905B
:10127000512004905220039053200290514605982B
:10128000FFF7FBF959460498FFF7F7F9019903981E
:10129000FFF7F3F900990298FFF7EFF92946204686
:1012A000FFF71AFA06B0BDE8F08F70B504460026C5
:1012B000FE48058840884543FC48808846F604017E
:1012C000884216D1F9488079012812D10020F749C7
:1012D00088712A2048812B20888100210846FFF749
:1012E000FBF90120F14988712B2048812A2088814F
:1012F00003E000210846FFF7EFF9FFF7D0F90026D9
:1013000002E0EB480480761CAE42FAD370BD00B513
:10131000A1B00020209001217A2004F0F9FE0121E3
:10132000084604F02DFF4EF2B3701E9002208DF897
:101330007C0000208DF87E0003208DF87D000120C8
:101340008DF87F001EA9DB4804F060F94FF680702D
:101350001E9002208DF87C0000208DF87E00032076
:101360008DF87D0001208DF87F001EA9D24804F081
:101370004DF90C220021CF4804F0D3F90C220121B1
:10138000CC4804F0CEF90C220421CA4804F0C9F973
:101390000C220521C74804F0C4F90C220721C548D6
:1013A00004F0BFF90C220821C24804F0BAF90C225B
:1013B0000921C04804F0B5F90C220A21BD4804F007
:1013C000B0F90C220D21BB4804F0ABF90C220E2120
:1013D000B84804F0A6F90C220F21B64804F0A1F990
:1013E0000C220721B44804F09CF90C220821B248D1
:1013F00004F097F90C220921AF4804F092F90C226D
:101400000A21AD4804F08DF90C220B21AA4804F002
:1014100088F90C221146A84804F083F90C220D210A
:10142000A54804F07EF90C220E21A34804F079F9B6
:101430000C220F21A04804F074F90F20089000201E
:1014400009903C200A9000200B900C900D900E907B
:1014500009200190002002900820039000200490B1
:1014600005900690079006200F9000201090119094
:101470001020129000201390159014901690179041
:101480004FF480501890002019904FF480401A902B
:1014900000201B9008A81C9001A81D900FA804F024
:1014A00094F90121062004F01BFA322003F0D4FE47
:1014B00001210020FFF7E1F8322003F0CDFE0020EB
:1014C000FFF7E2F87949888008468088FF280ADB20
:1014D000084680884FF6FF71884204D073488088A0
:1014E000B0F5134F7ED1D320FFF7ACF8FFF7BDF86E
:1014F0006E498880FFF7B9F86C498880FFF7B5F826
:101500006A498880084680884FF6FF7101EA00200A
:1015100066498880FFF7A9F86449898808436349C8
:1015200088800846808849F2413188425AD0BF20DD
:10153000FFF788F8FFF799F85C498880FFF795F87E
:101540005A498880FFF791F858498880FFF78DF84D
:1015500056498880084680884FF6FF7101EA0020CE
:1015600052498880FFF781F85049898808434F49DC
:1015700088800846808846F6040188427AD0D420C4
:10158000FFF760F8FFF771F848498880FFF76DF8BA
:1015900046498880FFF769F8444988800846808872
:1015A0004FF6FF7101EA002040498880FFF75DF89F
:1015B0003E49898808433D4988800846808845F22D
:1015C0001031884256D04FF45A40FFF73BF8FFF7EE
:1015D0004CF8364988804FF45B40FFF733F8FFF74B
:1015E00044F800E046E031498880084680884FF69C
:1015F000FF7101EA00202D4988804FF45C40FFF71D
:1016000021F8FFF732F8294989880843274988805B
:1016100008468088B0F5004F02D145F2105088800E
:101620002248808845F21051884223D0A120FFF73C
:1016300009F8FFF71AF81D498880FFF716F81B49CB
:101640008880084680884FF6FF7101EA002017491C
:101650008880FFF70AF8154989880843134988806C
:101660000846808845F26171884203D141F66310D3
:101670000E4988800D48808849F24131884211D056
:101680000A48808845F2103188420BD0074880888C
:1016900045F21051884205D00448808841F6631114
:1016A000884229D1054800680AE000003400002083
:1016B0008000006C000C0240001002401C0100A0E1
:1016C00020F00F004FF02041C1F81C010846D0F86F
:1016D0001C0120F47060C1F81C010846D0F81C0100
:1016E00040F00300C1F81C010846D0F81C0140F48A
:1016F0000070C1F81C0128E0FE48808846F604010D
:10170000884205D0FB4880884CF2055188421CD1A4
:10171000F948006820F00F004FF02041C1F81C018B
:101720000846D0F81C0120F47060C1F81C0108467E
:10173000D0F81C0140F00A00C1F81C010846D0F89E
:101740001C0140F44060C1F81C01EA488188EBA00C
:1017500005F05EF8E748808849F2413188427CD143
:10176000CF20FEF76FFF0020FEF775FFC120FEF7C8
:1017700072FF3020FEF76FFFED20FEF763FF64205D
:10178000FEF769FF0320FEF766FF1220FEF763FFF6
:101790008120FEF760FFE820FEF754FF8520FEF76A
:1017A0005AFF1020FEF757FF7A20FEF754FFCB2098
:1017B000FEF748FF3920FEF74EFF2C20FEF74BFFC7
:1017C0000020FEF748FF3420FEF745FF0220FEF719
:1017D00042FFF720FEF736FF2020FEF73CFFEA200D
:1017E000FEF730FF0020FEF736FF0020FEF733FF44
:1017F000C020FEF727FF1B20FEF72DFFC120FEF7BC
:1018000021FF0120FEF727FFC520FEF71BFF302038
:10181000FEF721FF3020FEF71EFFC720FEF712FF64
:10182000B720FEF718FF3620FEF70CFF4820FEF722
:1018300012FF3A20FEF706FF5520FEF70CFFB120FD
:10184000FEF700FF0020FEF706FF1A20FEF703FF59
:10185000B620FEF7F7FE0A2000E099E0FEF7FBFE57
:10186000A220FEF7F8FEF220FEF7ECFE0020FEF7C5
:10187000F2FE2620FEF7E6FE0120FEF7ECFEE02059
:10188000FEF7E0FE0F20FEF7E6FE2A20FEF7E3FE5D
:101890002820FEF7E0FE0820FEF7DDFE0E20FEF712
:1018A000DAFE0820FEF7D7FE5420FEF7D4FEA9206A
:1018B000FEF7D1FE4320FEF7CEFE0A20FEF7CBFE58
:1018C0000F20FEF7C8FE0020FEF7C5FE0020FEF741
:1018D000C2FE0020FEF7BFFE0020FEF7BCFEE120A6
:1018E000FEF7B0FE0020FEF7B6FE1520FEF7B3FEB1
:1018F0001720FEF7B0FE0720FEF7ADFE1120FEF721
:10190000AAFE0620FEF7A7FE2B20FEF7A4FE562017
:10191000FEF7A1FE3C20FEF79EFE0520FEF79BFE93
:101920001020FEF798FE0F20FEF795FE3F20FEF7F1
:1019300092FE3F20FEF78FFE0F20FEF78CFE2B203D
:10194000FEF780FE0020FEF786FE0020FEF783FEF5
:101950000120FEF780FE3F20FEF77DFE2A20FEF7E5
:1019600071FE0020FEF777FE0020FEF774FE0020D7
:10197000FEF771FEEF20FEF76EFE1120FEF762FE0D
:10198000782003F069FC2920FEF75CFE03F02AB9F9
:101990005848808846F6040188427CD11120FEF721
:1019A00051FE142003F058FCD020FEF74BFE072018
:1019B000FEF751FE4220FEF74EFE1D20FEF74BFEC5
:1019C000D120FEF73FFE0020FEF745FE1A20FEF76D
:1019D00042FE0920FEF73FFED220FEF733FE012033
:1019E000FEF739FE2220FEF736FEC020FEF72AFE63
:1019F0001020FEF730FE3B20FEF72DFE0020FEF704
:101A00002AFE0220FEF727FE1120FEF724FEC52045
:101A1000FEF718FE0320FEF71EFEC820FEF712FE9A
:101A20000020FEF718FE2520FEF715FE2120FEF708
:101A300012FE0520FEF70FFE0020FEF70CFE0A2026
:101A4000FEF709FE6520FEF706FE2520FEF703FEE1
:101A50007720FEF700FE5020FEF7FDFD0F20FEF779
:101A6000FAFD0020FEF7F7FDF820FEF7EBFD012060
:101A7000FEF7F1FDFE20FEF7E5FD0020FEF7EBFD91
:101A80000220FEF7E8FD2020FEF7DCFD3620FEF701
:101A9000D9FD082000E039E0FEF7DDFD3A20FEF731
:101AA000D1FD5520FEF7D7FD2B20FEF7CBFD002002
:101AB000FEF7D1FD0020FEF7CEFD0120FEF7CBFDA5
:101AC0003F20FEF7C8FD2A20FEF7BCFD0020FEF7F0
:101AD000C2FD0020FEF7BFFD0120FEF7BCFDDF20A8
:101AE000FEF7B9FD782003F0B7FB2920FEF7AAFD29
:101AF0004CE70000340000201C0100A0204C4344AF
:101B00002049443A25780D0A00000000FE488088EC
:101B100045F21031884240F07C87ED20FEF792FDBF
:101B20000120FEF798FDFE20FEF795FDEE20FEF762
:101B300089FDDE20FEF78FFD2120FEF78CFDF120D0
:101B4000FEF780FD0120FEF786FDDF20FEF77AFD1F
:101B50001020FEF780FDC420FEF774FD8F20FEF7F5
:101B60007AFDC620FEF76EFD0020FEF774FDE22030
:101B7000FEF771FDE220FEF76EFDE220FEF76BFD41
:101B8000BF20FEF75FFDAA20FEF765FDB020FEF73F
:101B900059FD0D20FEF75FFD0020FEF75CFD0D20D6
:101BA000FEF759FD0020FEF756FD1120FEF753FD0C
:101BB0000020FEF750FD1920FEF74DFD0020FEF736
:101BC0004AFD2120FEF747FD0020FEF744FD2D20B1
:101BD000FEF741FD0020FEF73EFD3D20FEF73BFDF8
:101BE0000020FEF738FD5D20FEF735FD0020FEF7F2
:101BF00032FD5D20FEF72FFD0020FEF72CFDB12009
:101C0000FEF720FD8020FEF726FD0020FEF723FDD5
:101C10008B20FEF720FD0020FEF71DFD9620FEF72D
:101C20001AFD0020FEF717FDB220FEF70BFD002085
:101C3000FEF711FD0020FEF70EFD0220FEF70BFD62
:101C40000020FEF708FD0320FEF705FD0020FEF74B
:101C500002FDB320FEF7F6FC0020FEF7FCFC00209E
:101C6000FEF7F9FC0020FEF7F6FC0020FEF7F3FC7F
:101C70000020FEF7F0FC0020FEF7EDFC0020FEF750
:101C8000EAFC0020FEF7E7FC0020FEF7E4FC002061
:101C9000FEF7E1FC0020FEF7DEFC0020FEF7DBFC97
:101CA0000020FEF7D8FC0020FEF7D5FC0020FEF750
:101CB000D2FC0020FEF7CFFC0020FEF7CCFC002079
:101CC000FEF7C9FC0020FEF7C6FC0020FEF7C3FCAF
:101CD0000020FEF7C0FC0020FEF7BDFC0020FEF750
:101CE000BAFC0020FEF7B7FCB420FEF7ABFC8B205B
:101CF000FEF7B1FC0020FEF7AEFC9620FEF7ABFC31
:101D00000020FEF7A8FCA120FEF7A5FC0020FEF7AE
:101D1000A2FCB520FEF796FC0220FEF79CFC0020FA
:101D2000FEF799FC0320FEF796FC0020FEF793FCDB
:101D30000420FEF790FC0020FEF78DFCB620FEF795
:101D400081FC0020FEF787FC0020FEF784FCB72012
:101D5000FEF778FC0020FEF77EFC0020FEF77BFCFF
:101D60003F20FEF778FC0020FEF775FC5E20FEF7B2
:101D700072FC0020FEF76FFC6420FEF76CFC002074
:101D8000FEF769FC8C20FEF766FC0020FEF763FC82
:101D9000AC20FEF760FC0020FEF75DFCDC20FEF7C7
:101DA0005AFC0020FEF757FC7020FEF754FC002080
:101DB000FEF751FC9020FEF74EFC0020FEF74BFC96
:101DC000EB20FEF748FC0020FEF745FCDC20FEF788
:101DD00042FC0020FEF73FFCB820FEF733FC002059
:101DE000FEF739FC0020FEF736FC0020FEF733FC3E
:101DF0000020FEF730FC0020FEF72DFC0020FEF74F
:101E00002AFC0020FEF727FC0020FEF724FCBA2065
:101E1000FEF718FC2420FEF71EFC0020FEF71BFC3A
:101E20000020FEF718FC0020FEF715FCC120FEF78D
:101E300009FC2020FEF70FFC0020FEF70CFC5420CC
:101E4000FEF709FC0020FEF706FCFF20FEF703FC6E
:101E50000020FEF700FCC220FEF7F4FB0A20FEF78C
:101E6000FAFB0020FEF7F7FB0420FEF7F4FB00204E
:101E7000FEF7F1FBC320FEF7E5FB3C20FEF7EBFB92
:101E80000020FEF7E8FB3A20FEF7E5FB0020FEF716
:101E9000E2FB3920FEF7DFFB0020FEF7DCFB3720FA
:101EA000FEF7D9FB0020FEF7D6FB3C20FEF7D3FB64
:101EB0000020FEF7D0FB3620FEF7CDFB0020FEF71A
:101EC000CAFB3220FEF7C7FB0020FEF7C4FB2F2021
:101ED000FEF7C1FB0020FEF7BEFB2C20FEF7BBFB8C
:101EE0000020FEF7B8FB2920FEF7B5FB0020FEF727
:101EF000B2FB2620FEF7AFFB0020FEF7ACFB242050
:101F0000FEF7A9FB002001E034000020FEF7A3FB50
:101F10002420FEF7A0FB0020FEF79DFB2320FEF708
:101F20009AFB0020FEF797FB3C20FEF794FB002075
:101F3000FEF791FB3620FEF78EFB0020FEF78BFBB1
:101F40003220FEF788FB0020FEF785FB2F20FEF7EE
:101F500082FB0020FEF77FFB2C20FEF77CFB00209D
:101F6000FEF779FB2920FEF776FB0020FEF773FBD6
:101F70002620FEF770FB0020FEF76DFB2420FEF705
:101F80006AFB0020FEF767FB2420FEF764FB0020BD
:101F9000FEF761FB2320FEF75EFB0020FEF75BFBF4
:101FA000C420FEF74FFB6220FEF755FB0020FEF732
:101FB00052FB0520FEF74FFB0020FEF74CFB842070
:101FC000FEF749FB0020FEF746FBF020FEF743FB3F
:101FD0000020FEF740FB1820FEF73DFB0020FEF737
:101FE0003AFBA420FEF737FB0020FEF734FB182055
:101FF000FEF731FB0020FEF72EFB5020FEF72BFBF7
:102000000020FEF728FB0C20FEF725FB0020FEF742
:1020100022FB1720FEF71FFB0020FEF71CFB95207C
:10202000FEF719FB0020FEF716FBF320FEF713FB6B
:102030000020FEF710FBE620FEF70DFB0020FEF768
:102040000AFBC520FEF7FEFA3220FEF704FB002053
:10205000FEF701FB4420FEF7FEFA0020FEF7FBFA34
:102060006520FEF7F8FA0020FEF7F5FA7620FEF775
:10207000F2FA0020FEF7EFFA8820FEF7ECFA0020D3
:10208000FEF7E9FAC620FEF7DDFA2020FEF7E3FAB4
:102090000020FEF7E0FA1720FEF7DDFA0020FEF739
:1020A000DAFA0120FEF7D7FA0020FEF7D4FAC720AB
:1020B000FEF7C8FA0020FEF7CEFA0020FEF7CBFAB2
:1020C0000020FEF7C8FA0020FEF7C5FAC820FEF788
:1020D000B9FA0020FEF7BFFA0020FEF7BCFA002094
:1020E000FEF7B9FA0020FEF7B6FAC920FEF7AAFA01
:1020F0000020FEF7B0FA0020FEF7ADFA0020FEF750
:10210000AAFA0020FEF7A7FA0020FEF7A4FA0020A2
:10211000FEF7A1FA0020FEF79EFA0020FEF79BFAD8
:102120000020FEF798FA0020FEF795FA0020FEF74F
:1021300092FA0020FEF78FFA0020FEF78CFA0020BA
:10214000FEF789FA0020FEF786FA0020FEF783FAF0
:10215000E020FEF777FA1620FEF77DFA0020FEF762
:102160007AFA1C20FEF777FA0020FEF774FA212095
:10217000FEF771FA0020FEF76EFA3620FEF76BFAD2
:102180000020FEF768FA4620FEF765FA0020FEF709
:1021900062FA5220FEF75FFA0020FEF75CFA642034
:1021A000FEF759FA0020FEF756FA7A20FEF753FAA6
:1021B0000020FEF750FA8B20FEF74DFA0020FEF7C4
:1021C0004AFA9920FEF747FA0020FEF744FAA820C1
:1021D000FEF741FA0020FEF73EFAB920FEF73BFA7F
:1021E0000020FEF738FAC420FEF735FA0020FEF78B
:1021F00032FACA20FEF72FFA0020FEF72CFAD2207E
:10220000FEF729FA0020FEF726FAD920FEF723FA76
:102210000020FEF720FAE020FEF71DFA0020FEF76E
:102220001AFAF320FEF717FA0020FEF714FAE1205D
:10223000FEF708FA1620FEF70EFA0020FEF70BFA5A
:102240001C20FEF708FA0020FEF705FA2220FEF710
:1022500002FA0020FEF7FFF93620FEF7FCF9002015
:10226000FEF7F9F94520FEF7F6F90020FEF7F3F93D
:102270005220FEF7F0F90020FEF7EDF96420FEF79A
:10228000EAF90020FEF7E7F97A20FEF7E4F90020EA
:10229000FEF7E1F98B20FEF7DEF90020FEF7DBF90F
:1022A0009920FEF7D8F90020FEF7D5F9A820FEF70F
:1022B000D2F90020FEF7CFF9B920FEF7CCF90020C3
:1022C000FEF7C9F9C420FEF7C6F90020FEF7C3F9EE
:1022D000CA20FEF7C0F90020FEF7BDF9D220FEF7B4
:1022E000BAF90020FEF7B7F9D820FEF7B4F90020BC
:1022F000FEF7B1F9E020FEF7AEF90020FEF7ABF9EA
:10230000F320FEF7A8F90020FEF7A5F9E220FEF77A
:1023100099F90520FEF79FF90020FEF79CF90B20A4
:10232000FEF799F90020FEF796F91B20FEF793F9C6
:102330000020FEF790F93420FEF78DF90020FEF71B
:102340008AF94420FEF787F90020FEF784F94F2030
:10235000FEF781F90020FEF77EF96120FEF77BF998
:102360000020FEF778F97920FEF775F90020FEF7D6
:1023700072F98820FEF76FF90020FEF76CF99720BC
:10238000FEF769F90020FEF766F9A620FEF763F96B
:102390000020FEF760F9B720FEF75DF90020FEF798
:1023A0005AF9C220FEF757F90020FEF754F9C7206A
:1023B000FEF751F90020FEF74EF9D120FEF74BF958
:1023C0000020FEF748F9D620FEF745F90020FEF779
:1023D00042F9DD20FEF73FF90020FEF73CF9F3203B
:1023E000FEF739F90020FEF736F9E320FEF72AF967
:1023F0000520FEF730F90020FEF72DF90A20FEF740
:102400002AF90020FEF727F91C20FEF724F9002006
:10241000FEF721F93320FEF71EF90020FEF71BF925
:102420004420FEF718F90020FEF715F95020FEF7BA
:1024300012F90020FEF70FF96220FEF70CF90020D8
:10244000FEF709F97820FEF706F90020FEF703F9F8
:102450008820FEF700F90020FEF7FDF89720FEF730
:10246000FAF80020FEF7F7F8A620FEF7F4F80020AF
:10247000FEF7F1F8B720FEF7EEF80020FEF7EBF8D4
:10248000C220FEF7E8F80020FEF7E5F8C720FEF7C7
:10249000E2F80020FEF7DFF8D120FEF7DCF800209C
:1024A000FEF7D9F8D520FEF7D6F80020FEF7D3F8CE
:1024B000DD20FEF7D0F80020FEF7CDF8F320FEF780
:1024C000CAF80020FEF7C7F8E420FEF7BBF80120A9
:1024D000FEF7C1F80020FEF7BEF80120FEF7BBF8BA
:1024E0000020FEF7B8F80220FEF7B5F80020FEF74E
:1024F000B2F82A20FEF7AFF80020FEF7ACF83C2037
:10250000FEF7A9F80020FEF7A6F84B20FEF7A3F887
:102510000020FEF7A0F85D20FEF79DF80020FEF7F2
:102520009AF87420FEF797F80020FEF794F88420BC
:10253000FEF791F80020FEF78EF89320FEF78BF857
:102540000020FEF788F8A220FEF785F80020FEF7AD
:1025500082F8B320FEF77FF80020FEF77CF8BE205B
:10256000FEF779F80020FEF776F8C420FEF773F83E
:102570000020FEF770F8CD20FEF76DF80020FEF782
:102580006AF8D320FEF767F80020FEF764F8DD2034
:10259000FEF761F80020FEF75EF8F320FEF75BF827
:1025A0000020FEF758F8E520FEF74CF80020FEF773
:1025B00052F80020FEF74FF80020FEF74CF80020FC
:1025C000FEF749F80220FEF746F80020FEF743F830
:1025D0002920FEF740F80020FEF73DF83C20FEF7EA
:1025E0003AF80020FEF737F84B20FEF734F80020C9
:1025F000FEF731F85D20FEF72EF80020FEF72BF8ED
:102600007420FEF728F80020FEF725F88420FEF756
:1026100022F80020FEF71FF89320FEF71CF8002098
:10262000FEF719F8A220FEF716F80020FEF713F8BF
:10263000B320FEF710F80020FEF70DF8BE20FEF7DD
:102640000AF80020FEF707F8C420FEF704F800207F
:10265000FEF701F8CD20FDF7FEFF0020FDF7FBFFA0
:10266000D320FDF7F8FF0020FDF7F5FFDC20FDF794
:10267000F2FF0020FDF7EFFFF320FDF7ECFF002055
:10268000FDF7E9FFE620FDF7DDFF1120FDF7E3FF91
:102690000020FDF7E0FF3420FDF7DDFF0020FDF70F
:1026A000DAFF5620FDF7D7FF0020FDF7D4FF762094
:1026B000FDF7D1FF0020FDF7CEFF7720FDF7CBFF20
:1026C0000020FDF7C8FF6620FDF7C5FF0020FDF7DD
:1026D000C2FF8820FDF7BFFF0020FDF7BCFF992057
:1026E000FDF7B9FF0020FDF7B6FFBB20FDF7B3FFF4
:1026F0000020FDF7B0FF9920FDF7ADFF0020FDF7AA
:10270000AAFF6620FDF7A7FF0020FDF7A4FF5520D4
:10271000FDF7A1FF0020FDF79EFF5520FDF79BFF71
:102720000020FDF798FF4520FDF795FF0020FDF7FD
:1027300092FF4320FDF78FFF0020FDF78CFF442020
:10274000FDF789FF0020FDF786FFE720FDF77AFF00
:102750003220FDF780FF0020FDF77DFF5520FDF7BB
:102760007AFF0020FDF777FF7620FDF774FF002049
:10277000FDF771FF6620FDF76EFF0020FDF76BFF90
:102780006720FDF768FF0020FDF765FF6720FDF774
:1027900062FF0020FDF75FFF8720FDF75CFF002050
:1027A000FDF759FF9920FDF756FF0020FDF753FF75
:1027B000BB20FDF750FF0020FDF74DFF9920FDF7EE
:1027C0004AFF0020FDF747FF7720FDF744FF002078
:1027D000FDF741FF4420FDF73EFF0020FDF73BFFE2
:1027E0005620FDF738FF0020FDF735FF2320FDF7C9
:1027F00032FF0020FDF72FFF3320FDF72CFF0020D4
:10280000FDF729FF4520FDF726FF0020FDF723FFF8
:10281000E820FDF717FF0020FDF71DFF0020FDF762
:102820001AFF9920FDF717FF0020FDF714FF8720FE
:10283000FDF711FF0020FDF70EFF8820FDF70BFFCD
:102840000020FDF708FF7720FDF705FF0020FDF7CA
:1028500002FF6620FDF7FFFE0020FDF7FCFE88204A
:10286000FDF7F9FE0020FDF7F6FEAA20FDF7F3FEC6
:102870000020FDF7F0FEBB20FDF7EDFE0020FDF788
:10288000EAFE9920FDF7E7FE0020FDF7E4FE662052
:10289000FDF7E1FE0020FDF7DEFE5520FDF7DBFE33
:1028A0000020FDF7D8FE5520FDF7D5FE0020FDF7EE
:1028B000D2FE4420FDF7CFFE0020FDF7CCFE4420E1
:1028C000FDF7C9FE0020FDF7C6FE5520FDF7C3FE4B
:1028D0000020FDF7C0FEE920FDF7B4FEAA20FDF7B9
:1028E000BAFE0020FDF7B7FE0020FDF7B4FE002081
:1028F000FDF7B1FE0020FDF7A5FEAA20FDF7ABFE17
:10290000CF20FDF79FFE0020FDF7A5FE0020FDF77C
:10291000A2FE0020FDF79FFE0020FDF79CFE002098
:10292000FDF799FE0020FDF796FE0020FDF793FECF
:102930000020FDF790FE0020FDF78DFE0020FDF742
:102940008AFE0020FDF787FE0020FDF784FE0020B0
:10295000FDF781FE0020FDF77EFE0020FDF77BFEE7
:102960000020FDF778FE0020FDF775FEF020FDF752
:1029700069FE0020FDF76FFE5020FDF76CFE002081
:10298000FDF769FE0020FDF766FE0020FDF763FEFF
:10299000F320FDF757FE0020FDF75DFEF920FDF75F
:1029A00051FE0620FDF757FE1020FDF754FE2920AA
:1029B000FDF751FE0020FDF74EFE3A20FDF742FEE6
:1029C0005520FDF748FE1120FDF73CFE642002F083
:1029D00043FC2920FDF736FE3520FDF733FE0020AD
:1029E000FDF739FE5120FDF72DFEFF20FDF733FEE8
:1029F0005320FDF727FE2C20FDF72DFE5520FDF777
:102A000021FE8220FDF727FE2C20FDF71BFE02F0A1
:102A1000E9B8FE48808845F2105188427ED15521A0
:102A20004FF47040FDF729FEAA214FF20100FDF797
:102A300024FE52214FF20200FDF71FFE08214FF243
:102A40000300FDF71AFE01214FF20400FDF715FE09
:102A50000D214FF43040FDF710FE0D214BF2010027
:102A6000FDF70BFE0D214BF20200FDF706FE3421AF
:102A70004FF43640FDF701FE34214BF20160FDF7C3
:102A8000FCFD34214BF20260FDF7F7FD0D214FF400
:102A90003140FDF7F2FD0D214BF20110FDF7EDFD88
:102AA0000D214BF20210FDF7E8FD34214FF43740C1
:102AB000FDF7E3FD34214BF20170FDF7DEFD34211B
:102AC0004BF20270FDF7D9FD00214FF43240FDF7C3
:102AD000D4FD00214BF20120FDF7CFFD00214BF288
:102AE0000220FDF7CAFD24214FF43840FDF7C5FD53
:102AF00024214BF60100FDF7C0FD24214BF6020016
:102B0000FDF7BBFD01214FF43F40FDF7B6FD0F215E
:102B10004FF43340FDF7B1FD0F2100E0FEE34BF22F
:102B20000130FDF7AAFD0F214BF20230FDF7A5FDA4
:102B300034214FF43940FDF7A0FD34214BF601104C
:102B4000FDF79BFD34214BF60210FDF796FD0821A1
:102B50004FF43540FDF791FD08214BF20150FDF790
:102B60008CFD08214BF20250FDF787FD03214FF445
:102B70004240FDF782FD24214FF43A40FDF77DFDF0
:102B800024214BF60120FDF778FD24214BF602208D
:102B9000FDF773FD00214FF43C40FDF76EFD7821F9
:102BA0004BF60140FDF769FD00214BF60240FDF7B1
:102BB00064FD00214FF43D40FDF75FFD78214BF6A9
:102BC0000150FDF75AFD00214BF60250FDF755FD6F
:102BD00000214FF43E40FDF750FD64214BF60160AB
:102BE000FDF74BFD00214FF45140FDF746FD332129
:102BF0004DF20110FDF741FD00214DF20210FDF7ED
:102C00003CFD34214DF20310FDF737FD00214DF25C
:102C10000410FDF732FD3A214DF20510FDF72DFDB0
:102C200000214DF20610FDF728FD4A214DF2071054
:102C3000FDF723FD00214DF20810FDF71EFD5C217C
:102C40004DF20910FDF719FD00214DF20A10FDF7B4
:102C500014FD81214DF20B10FDF70FFD00214DF207
:102C60000C10FDF70AFDA6214DF20D10FDF705FD34
:102C700000214DF20E10FDF700FDE5214DF20F1081
:102C8000FDF7FBFC01214DF21010FDF7F6FC1321BE
:102C90004DF21110FDF7F1FC01214DF21210FDF77C
:102CA000ECFC54214DF21310FDF7E7FC01214DF22D
:102CB0001410FDF7E2FC82214DF21510FDF7DDFC4A
:102CC00001214DF21610FDF7D8FCCA214DF2171064
:102CD000FDF7D3FC02214DF21810FDF7CEFC0021C8
:102CE0004DF21910FDF7C9FC02214DF21A10FDF743
:102CF000C4FC01214DF21B10FDF7BFFC02214DF277
:102D00001C10FDF7BAFC34214DF21D10FDF7B5FC87
:102D100002214DF21E10FDF7B0FC67214DF21F108D
:102D2000FDF7ABFC02214DF22010FDF7A6FC84213B
:102D30004DF22110FDF7A1FC02214DF22210FDF70A
:102D40009CFCA4214DF22310FDF797FC02214DF2CB
:102D50002410FDF792FCB7214DF22510FDF78DFCF4
:102D600002214DF22610FDF788FCCF214DF22710ED
:102D7000FDF783FC02214DF22810FDF77EFCDE21D9
:102D80004DF22910FDF779FC02214DF22A10FDF7D2
:102D900074FCF2214DF22B10FDF76FFC02214DF275
:102DA0002C10FDF76AFCFE214DF22D10FDF765FC9D
:102DB00003214DF22E10FDF760FC10214DF22F1073
:102DC000FDF75BFC03214DF23010FDF756FC33217B
:102DD0004DF23110FDF751FC03214DF23210FDF799
:102DE0004CFC6D214DF23310FDF747FC00214FF4F0
:102DF0005240FDF742FC33214DF20120FDF73DFC2E
:102E000000214DF20220FDF738FC01E034000020E3
:102E100034214DF20320FDF730FC00214DF2042057
:102E2000FDF72BFC3A214DF20520FDF726FC002191
:102E30004DF20620FDF721FC4A214DF20720FDF757
:102E40001CFC00214DF20820FDF717FC5C214DF21F
:102E50000920FDF712FC00214DF20A20FDF70DFCC0
:102E600081214DF20B20FDF708FC00214DF20C20D2
:102E7000FDF703FCA6214DF20D20FDF7FEFB00211E
:102E80004DF20E20FDF7F9FBE5214DF20F20FDF785
:102E9000F4FB01214DF21020FDF7EFFB13214DF261
:102EA0001120FDF7EAFB01214DF21220FDF7E5FBB1
:102EB00054214DF21320FDF7E0FB01214DF21420C7
:102EC000FDF7DBFB82214DF21520FDF7D6FB01213A
:102ED0004DF21620FDF7D1FBCA214DF21720FDF768
:102EE000CCFB02214DF21820FDF7C7FB00214DF26B
:102EF0001920FDF7C2FB02214DF21A20FDF7BDFBA0
:102F000001214DF21B20FDF7B8FB02214DF21C20E0
:102F1000FDF7B3FB34214DF21D20FDF7AEFB02217E
:102F20004DF21E20FDF7A9FB67214DF21F20FDF792
:102F3000A4FB02214DF22020FDF79FFB84214DF2DE
:102F40002120FDF79AFB02214DF22220FDF795FB8F
:102F5000A4214DF22320FDF790FB02214DF2242005
:102F6000FDF78BFBB7214DF22520FDF786FB0221F3
:102F70004DF22620FDF781FBCF214DF22720FDF7F2
:102F80007CFB02214DF22820FDF777FBDE214DF27C
:102F90002920FDF772FB02214DF22A20FDF76DFB7F
:102FA000F2214DF22B20FDF768FB02214DF22C207F
:102FB000FDF763FBFE214DF22D20FDF75EFB0321A3
:102FC0004DF22E20FDF759FB10214DF22F20FDF779
:102FD00054FB03214DF23020FDF74FFB33214DF21E
:102FE0003120FDF74AFB03214DF23220FDF745FB6E
:102FF0006D214DF23320FDF740FB00214FF453408B
:10300000FDF73BFB33214DF20130FDF736FB00218C
:103010004DF20230FDF731FB34214DF20330FDF764
:103020002CFB00214DF20430FDF727FB3A214DF235
:103030000530FDF722FB00214DF20630FDF71DFBA8
:103040004A214DF20730FDF718FB00214DF2083000
:10305000FDF713FB5C214DF20930FDF70EFB00215B
:103060004DF20A30FDF709FB81214DF20B30FDF7DF
:1030700004FB00214DF20C30FDF7FFFAA6214DF2C2
:103080000D30FDF7FAFA00214DF20E30FDF7F5FA9A
:10309000E5214DF20F30FDF7F0FA01214DF210302D
:1030A000FDF7EBFA13214DF21130FDF7E6FA01219D
:1030B0004DF21230FDF7E1FA54214DF21330FDF7D5
:1030C000DCFA01214DF21430FDF7D7FA82214DF2DE
:1030D0001530FDF7D2FA01214DF21630FDF7CDFA89
:1030E000CA214DF21730FDF7C8FA02214DF218300F
:1030F000FDF7C3FA00214DF21930FDF7BEFA0221A7
:103100004DF21A30FDF7B9FA01214DF21B30FDF7EF
:10311000B4FA02214DF21C30FDF7AFFA34214DF222
:103120001D30FDF7AAFA02214DF21E30FDF7A5FA77
:1031300067214DF21F30FDF7A0FA02214DF2203039
:10314000FDF79BFA84214DF22130FDF796FA02211A
:103150004DF22230FDF791FAA4214DF22330FDF714
:103160008CFA02214DF22430FDF787FAB7214DF297
:103170002530FDF782FA02214DF22630FDF77DFA67
:10318000CF214DF22730FDF778FA02214DF2283099
:10319000FDF773FADE214DF22930FDF76EFA0221B8
:1031A0004DF22A30FDF769FAF2214DF22B30FDF78E
:1031B00064FA02214DF22C30FDF75FFAFE214DF248
:1031C0002D30FDF75AFA03214DF22E30FDF755FA56
:1031D00010214DF22F30FDF750FA03214DF230301F
:1031E000FDF74BFA33214DF23130FDF746FA03215A
:1031F0004DF23230FDF741FA6D214DF23330FDF7DB
:103200003CFA00214FF45440FDF737FA33214DF2D8
:103210000140FDF732FA00214DF20240FDF72DFA90
:1032200034214DF20340FDF728FA00214DF204400D
:10323000FDF723FA3A214DF20540FDF71EFA002171
:103240004DF20640FDF719FA4A214DF20740FDF70D
:1032500014FA00214DF20840FDF70FFA5C214DF2FF
:103260000940FDF70AFA00214DF20A40FDF705FA80
:1032700081214DF20B40FDF700FA00214DF20C4088
:10328000FDF7FBF9A6214DF20D40FDF7F6F90021FF
:103290004DF20E40FDF7F1F9E5214DF20F40FDF73B
:1032A000ECF901214DF21040FDF7E7F913214DF241
:1032B0001140FDF7E2F901214DF21240FDF7DDF971
:1032C00054214DF21340FDF7D8F901214DF214407D
:1032D000FDF7D3F982214DF21540FDF7CEF901211A
:1032E0004DF21640FDF7C9F9CA214DF21740FDF71E
:1032F000C4F902214DF21840FDF7BFF900214DF24B
:103300001940FDF7BAF902214DF21A40FDF7B5F95F
:1033100001214DF21B40FDF7B0F900E004E302216A
:103320004DF21C40FDF7A9F934214DF21D40FDF787
:10333000A4F902214DF21E40FDF79FF967214DF2DD
:103340001F40FDF79AF902214DF22040FDF795F953
:1033500084214DF22140FDF790F902214DF22240E7
:10336000FDF78BF9A4214DF22340FDF786F90221E8
:103370004DF22440FDF781F9B7214DF22540FDF7CC
:103380007CF902214DF22640FDF777F9CF214DF26D
:103390002740FDF772F902214DF22840FDF76DF943
:1033A000DE214DF22940FDF768F902214DF22A4055
:1033B000FDF763F9F2214DF22B40FDF75EF9022192
:1033C0004DF22C40FDF759F9FE214DF22D40FDF74D
:1033D00054F903214DF22E40FDF74FF910214DF223
:1033E0002F40FDF74AF903214DF23040FDF745F932
:1033F00033214DF23140FDF740F903214DF23240C7
:10340000FDF73BF96D214DF23340FDF736F9002110
:103410004FF45540FDF731F933214DF20150FDF7DE
:103420002CF900214DF20250FDF727F934214DF21D
:103430000350FDF722F900214DF20450FDF71DF96C
:103440003A214DF20550FDF718F900214DF20650D2
:10345000FDF713F94A214DF20750FDF70EF900214F
:103460004DF20850FDF709F95C214DF20950FDF7C6
:1034700004F900214DF20A50FDF7FFF881214DF2C9
:103480000B50FDF7FAF800214DF20C50FDF7F5F85E
:10349000A6214DF20D50FDF7F0F800214DF20E502F
:1034A000FDF7EBF8E5214DF20F50FDF7E6F80121AD
:1034B0004DF21050FDF7E1F813214DF21150FDF7D8
:1034C000DCF801214DF21250FDF7D7F854214DF2EE
:1034D0001350FDF7D2F801214DF21450FDF7CDF84D
:1034E00082214DF21550FDF7C8F801214DF216501A
:1034F000FDF7C3F8CA214DF21750FDF7BEF80221BF
:103500004DF21850FDF7B9F800214DF21950FDF7B2
:10351000B4F802214DF21A50FDF7AFF801214DF237
:103520001B50FDF7AAF802214DF21C50FDF7A5F83B
:1035300034214DF21D50FDF7A0F802214DF21E502E
:10354000FDF79BF867214DF21F50FDF796F8022119
:103550004DF22050FDF791F884214DF22150FDF7F6
:103560008CF802214DF22250FDF787F8A4214DF28C
:103570002350FDF782F802214DF22450FDF77DF82B
:10358000B7214DF22550FDF778F802214DF2265073
:10359000FDF773F8CF214DF22750FDF76EF80221A9
:1035A0004DF22850FDF769F8DE214DF22950FDF764
:1035B00064F802214DF22A50FDF75FF8F2214DF236
:1035C0002B50FDF75AF802214DF22C50FDF755F81B
:1035D000FE214DF22D50FDF750F803214DF22E50F3
:1035E000FDF74BF810214DF22F50FDF746F803215F
:1035F0004DF23050FDF741F833214DF23150FDF7D7
:103600003CF803214DF23250FDF737F86D214DF2B1
:103610003350FDF732F800214FF45640FDF72DF8F6
:1036200033214DF20160FDF728F800214DF20260D0
:10363000FDF723F834214DF20360FDF71EF8002159
:103640004DF20460FDF719F83A214DF20560FDF7DF
:1036500014F800214DF20660FDF70FF84A214DF2F3
:103660000760FDF70AF800214DF20860FDF705F844
:103670005C214DF20960FDF700F800214DF20A606F
:10368000FCF7FBFF81214DF20B60FCF7F6FF0021F8
:103690004DF20C60FCF7F1FFA6214DF20D60FCF736
:1036A000ECFF00214DF20E60FCF7E7FFE5214DF243
:1036B0000F60FCF7E2FF01214DF21060FCF7DDFF27
:1036C00013214DF21160FCF7D8FF01214DF2126079
:1036D000FCF7D3FF54214DF21360FCF7CEFF01211C
:1036E0004DF21460FCF7C9FF82214DF21560FCF722
:1036F000C4FF01214DF21660FCF7BFFFCA214DF255
:103700001760FCF7BAFF02214DF21860FCF7B5FF15
:1037100000214DF21960FCF7B0FF02214DF21A6052
:10372000FCF7ABFF01214DF21B60FCF7A6FF022165
:103730004DF21C60FCF7A1FF34214DF21D60FCF737
:103740009CFF02214DF21E60FCF797FF67214DF2AE
:103750001F60FCF792FF02214DF22060FCF78DFF05
:1037600084214DF22160FCF788FF02214DF2226096
:10377000FCF783FFA4214DF22360FCF77EFF0221BA
:103780004DF22460FCF779FFB7214DF22560FCF77C
:1037900074FF02214DF22660FCF76FFFCF214DF23E
:1037A0002760FCF76AFF02214DF22860FCF765FFF5
:1037B000DE214DF22960FCF760FF02214DF22A6004
:1037C000FCF75BFFF2214DF22B60FCF756FF022164
:1037D0004DF22C60FCF751FFFE214DF22D60FCF7FD
:1037E0004CFF03214DF22E60FCF747FF10214DF2F4
:1037F0002F60FCF742FF03214DF23060FCF73DFFE4
:1038000033214DF23160FCF738FF03214DF2326075
:10381000FCF733FF6D214DF23360FCF72EFF55218D
:103820004FF47040FCF729FFAA214FF20100FCF78A
:1038300024FF52214FF20200FCF71FFF08214FF234
:103840000300FCF71AFF00214FF20400FCF715FFFC
:10385000CC214FF43140FCF710FF00214BF2011056
:10386000FCF70BFF05214FF43640FCF706FF7021F3
:103870004FF43740FCF701FF70214BF20170FCF769
:10388000FCFE01214FF43840FCF7F7FE03214BF614
:103890000100FCF7F2FE03214BF60200FCF7EDFEFF
:1038A00003214BF60300FCF7E8FE02214FF43C40F5
:1038B000FCF7E3FE00214BF60140FCF7DEFE0021A1
:1038C0004BF60240FCF7D9FED0214FF44940FCF7FB
:1038D000D4FE02214CF60110FCF7CFFE50214CF62D
:1038E0000210FCF7CAFE50214CF60310FCF7C5FE8F
:1038F00050214CF60410FCF7C0FE00214FF4545048
:10390000FCF7BBFE55214FF46850FCF7B6FE4FF4B0
:103910008850FCF797FE782001F056FC4FF42450B5
:10392000FCF790FE01F05EB9FE48808849F225312F
:1039300088427DD147F6F001E520FCF79EFE4FF46A
:1039400080710120FCF799FE4FF4E0610220FCF742
:1039500094FE41F230010320FCF78FFE0021042089
:10396000FCF78BFE40F202210820FCF786FE0021C6
:103970000920FCF782FE00210A20FCF77EFE0021D0
:103980000C20FCF77AFE00210D20FCF776FE0021CA
:103990000F20FCF772FE00211020FCF76EFE0721BD
:1039A0001120FCF76AFE00211220FCF766FE0021C0
:1039B0001320FCF762FE00210720FCF75EFE41F2B7
:1039C00090611020FCF759FE40F227211120FCF7EE
:1039D00054FE9D211220FCF750FE4FF4C8511320D5
:1039E000FCF74BFE25212920FCF747FE0D212B205B
:1039F000FCF743FE07213020FCF73FFE40F2033185
:103A00003120FCF73AFE03213220FCF736FE40F26B
:103A100006213520FCF731FE08213620FCF72DFE6B
:103A200040F206413720FCF728FE4FF4417100E0D8
:103A300058E03820FCF721FE07213920FCF71DFE55
:103A400040F202613C20FCF718FE08213D20FCF703
:103A500014FE00215020FCF710FEEF215120FCF74E
:103A60000CFE00215220FCF708FE40F23F115320CB
:103A7000FCF703FE4FF427416020FCF7FEFD012117
:103A80006120FCF7FAFD00216A20FCF7F6FD002119
:103A90008020FCF7F2FD00218120FCF7EEFD0021E3
:103AA0008220FCF7EAFD00218320FCF7E6FD0021DF
:103AB0008420FCF7E2FD00218520FCF7DEFD1021CB
:103AC0009020FCF7DAFD4FF4C0619220FCF7D5FDA1
:103AD00040F233110720FCF7D0FD22210020FCF733
:103AE000CCFD1FE78F48808849F2283188427DD17C
:103AF00041F28F01EC20FCF7C0FD41F23421EF20B0
:103B0000FCF7BBFD4FF480710120FCF7B6FD4FF4CC
:103B1000E0610220FCF7B1FD41F230010320FCF727
:103B2000ACFD00210420FCF7A8FD40F20221082092
:103B3000FCF7A3FD00210920FCF79FFD00210A20CE
:103B4000FCF79BFD01210C20FCF797FD00210D20C7
:103B5000FCF793FD00210F20FCF78FFD00211020C2
:103B6000FCF78BFD07211120FCF787FD00211220B7
:103B7000FCF783FD00211320FCF77FFD01210720C6
:103B8000FCF77BFD322001F067FB41F290411020F1
:103B9000FCF773FD40F227211120FCF76EFD322067
:103BA00001F05AFB8A211220FCF767FD322001F058
:103BB00053FB4FF4D0511320FCF75FFD0621292061
:103BC000FCF75BFD0D212B20FCF757FD322001F0A7
:103BD00043FB00212020FCF750FD00212120FCF7B1
:103BE0004CFD322001F038FB002100E075E0302070
:103BF000FCF743FD40F204613120FCF73EFD40F24A
:103C000005313220FCF739FD00213520FCF735FD68
:103C100040F609413620FCF730FD4FF401713720A2
:103C2000FCF72BFD40F201313820FCF726FD40F275
:103C300007713920FCF721FD00213C20FCF71DFD18
:103C400040F60A213D20FCF718FD322001F004FB6C
:103C500000215020FCF711FDEF215120FCF70DFD54
:103C600000215220FCF709FD40F23F115320FCF7E0
:103C700004FD4FF427416020FCF7FFFC0121612087
:103C8000FCF7FBFC00216A20FCF7F7FC00218020F8
:103C9000FCF7F3FC00218120FCF7EFFC00218220DF
:103CA000FCF7EBFC00218320FCF7E7FC00218420DB
:103CB000FCF7E3FC00218520FCF7DFFC10219020BD
:103CC000FCF7DBFC4FF4C0619220FCF7D6FC40F21D
:103CD00033110720FCF7D1FC24E61248808849F212
:103CE000203188427ED100210846FCF7C6FC4FF403
:103CF00080710120FCF7C1FC4FF4E0610220FCF769
:103D0000BCFC41F230010320FCF7B7FC0021042089
:103D1000FCF7B3FC40F202210820FCF7AEFC0021C6
:103D2000092001E034000020FCF7A7FC00210A2054
:103D3000FCF7A3FC01210C20FCF79FFC00210D20C7
:103D4000FCF79BFC00210F20FCF797FC322001F0D0
:103D500083FA40F201110720FCF78FFC322001F0BA
:103D60007BFA4FF486511020FCF787FC07211120C5
:103D7000FCF783FC4FF488711220FCF77EFC4FF4B3
:103D800030611320FCF779FC00212920FCF775FC39
:103D900044F210012B20FCF770FC00215020FCF7AE
:103DA0006CFCEF215120FCF768FC00215220FCF74D
:103DB00064FC40F23F115320FCF75FFC4FF41C51B0
:103DC0006020FCF75AFC01216120FCF756FC002121
:103DD0006A20FCF752FC00218020FCF74EFC0021F9
:103DE000812000E030E0FCF748FC00218220FCF755
:103DF00044FC00218320FCF740FC00218420FCF7D8
:103E00003CFC00218520FCF738FC10219020FCF7B9
:103E100034FC00219220FCF730FC01219320FCF7B8
:103E20002CFC4FF488719520FCF727FC002197208B
:103E3000FCF723FC00219820FCF71FFC40F27311D3
:103E40000720FCF71AFC6DE5FE48808849F2313105
:103E500088427DD141F21401E720FCF70EFC4FF4BB
:103E600080710120FCF709FC4FF400710220FCF77F
:103E700004FC41F238010320FCF7FFFB40F2022171
:103E80000820FCF7FAFB00210920FCF7F6FB0021D3
:103E90000A20FCF7F2FB00210C20FCF7EEFB0021CE
:103EA0000D20FCF7EAFB00210F20FCF7E6FB0021C8
:103EB0001020FCF7E2FB07211120FCF7DEFB0021BC
:103EC0001220FCF7DAFB00211320FCF7D6FBC820F8
:103ED00001F0C2F941F290611020FCF7CEFB40F2F4
:103EE00027211120FCF7C9FB322001F0B5F90C2184
:103EF0001220FCF7C2FB322001F0AEF94FF4006152
:103F00001320FCF7BAFB11212920FCF7B6FB0B218B
:103F10002B20FCF7B2FB322001F09EF9002120207B
:103F2000FCF7ABFB40F23F112120FCF7A6FB002180
:103F30003020FCF7A2FB4FF483713120FCF79DFB8E
:103F400000213220FCF799FB4FF40171352000E08D
:103F500064E0FCF792FB41F20A613620FCF78DFB2E
:103F600040F207713720FCF788FB4FF4837138204B
:103F7000FCF783FB40F207713920FCF77EFB40F22F
:103F800002413C20FCF779FB40F60F413D20FCF755
:103F900074FB00215020FCF770FBEF215120FCF74F
:103FA0006CFB00215220FCF768FB40F23F115320CC
:103FB000FCF763FB4FF41C516020FCF75EFB012112
:103FC0006120FCF75AFB00216A20FCF756FB002118
:103FD0008020FCF752FB00218120FCF74EFB0021E2
:103FE0008220FCF74AFB00218320FCF746FB0021DE
:103FF0008420FCF742FB00218520FCF73EFB1021CA
:104000009020FCF73AFB4FF4C0619220FCF735FB9F
:1040100040F233110720FCF730FB83E489488088A5
:1040200045F2084188427DD14FF480710120FCF7B0
:1040300024FB4FF4E0610220FCF71FFB41F230014A
:104040000320FCF71AFB00210420FCF716FB40F2CA
:1040500007210820FCF711FB00210920FCF70DFBCC
:1040600000210A20FCF709FB00210C20FCF705FBCE
:1040700000210D20FCF701FB00210F20FCF7FDFAC9
:10408000142001F0E9F841F2B0611020FCF7F5FAD4
:1040900001211120FCF7F1FA01211720FCF7EDFABC
:1040A0004FF49C711220FCF7E8FA4FF400611320E2
:1040B000FCF7E3FA09212920FCF7DFFA09212A207D
:1040C000FCF7DBFA0021A420FCF7D7FA00215020EE
:1040D000FCF7D3FAEF215120FCF7CFFA0021522050
:1040E000FCF7CBFA40F23F115320FCF7C6FA4FF42D
:1040F0001C516020FCF7C1FA01216120FCF7BDFAD8
:1041000000216A20FCF7B9FA00218020FCF7B5FAFB
:1041100000218120FCF7B1FA00218220FCF7ADFAE2
:10412000002100E024E08320FCF7A7FA002184208E
:10413000FCF7A3FA00218520FCF79FFA13219020B9
:10414000FCF79BFA00219220FCF797FA03219320B9
:10415000FCF793FA4FF488719520FCF78EFA40F241
:1041600073110720FCF789FA322001F075F8B8E4E2
:104170003448808841F2055188427DD100210720D2
:10418000FCF77BFA322001F067F84FF48E711220B1
:10419000FCF773FA0121A420FCF76FFA0F21082025
:1041A000FCF76BFA08210A20FCF767FA08210D20BA
:1041B000FCF763FA40F207713020FCF75EFA072142
:1041C0003120FCF75AFA40F203613220FCF755FA2D
:1041D0004FF4E0613320FCF750FA40F20221342022
:1041E000FCF74BFA02213520FCF747FA41F60F7134
:1041F0003620FCF742FA40F207713720FCF73DFA0F
:1042000000213820FCF739FA00213920FCF735FA73
:1042100040F207713A20FCF730FA00213B20FCF70E
:104220002CFA07213C20FCF728FA00213D20FCF75E
:1042300024FA322001F010F801210720FCF71DFAC2
:10424000012101E0340000201720FCF716FA32208B
:1042500001F002F84FF4BD511020FCF70EFA40F2C5
:1042600017211120FCF709FA4FF48F711220FCF787
:1042700004FA4FF4706100E098E01320FCF7FDF9B8
:1042800000212A20FCF7F9F90A212920FCF7F5F989
:104290004FF49F711220FCF7F0F900215020FCF739
:1042A000ECF9EF215120FCF7E8F900215220FCF74E
:1042B000E4F940F23F115320FCF7DFF94FF41C51B1
:1042C0006020FCF7DAF901216120FCF7D6F9002122
:1042D0006A20FCF7D2F900218020FCF7CEF90021FA
:1042E0008120FCF7CAF900218220FCF7C6F90021E1
:1042F0008320FCF7C2F900218420FCF7BEF90021DD
:104300008520FCF7BAF913219020FCF7B6F94FF499
:1043100040719220FCF7B1F905219320FCF7ADF92B
:1043200000219520FCF7A9F900219720FCF7A5F9B9
:1043300000219820FCF7A1F94FF480710120FCF7CF
:104340009CF94FF4E0610220FCF797F941F2380143
:104350000320FCF792F900210420FCF78EF90021DC
:104360000C20FCF78AF900210F20FCF786F90021C8
:104370002020FCF782F900212120FCF77EF9212181
:104380000720FCF77AF9142000F066FF612107206E
:10439000FCF773F9142000F05FFF40F2731107205F
:1043A000FCF76BF9142000F057FF95E4FE48808875
:1043B0004BF2055188427CD100210846FCF75DF99B
:1043C00000210846FCF759F900210846FCF755F989
:1043D00000210846FCF751F90121A420FCF74DF912
:1043E000142000F039FF4FF41C516020FCF745F910
:1043F00040F202210820FCF740F94FF4057130200B
:10440000FCF73BF943F215713120FCF736F940F225
:1044100004613220FCF731F940F616613320FCF7D5
:104420002CF942F211213420FCF727F94FF4A8515E
:104430003520FCF722F948F207513620FCF71DF928
:1044400041F207413720FCF718F941F203413820C7
:10445000FCF713F920213920FCF70FF91A219020DD
:10446000FCF70BF900211020FCF707F907211120B8
:10447000FCF703F900211220FCF7FFF800211320BC
:10448000FCF7FBF8142000F0E7FE4FF4E661102083
:10449000FCF7F3F840F237111120FCF7EEF8142086
:1044A00000F0DAFE4FF4DC711220FCF7E6F814207D
:1044B00000E085E000F0D0FE4FF470611320FCF7BF
:1044C000DCF880212A20FCF7D8F848212920FCF7C5
:1044D000D4F8142000F0C0FE4FF480710120FCF7E6
:1044E000CCF84FF4E0610220FCF7C7F841F2380144
:1044F0000320FCF7C2F840F202210820FCF7BDF8C7
:1045000000210A20FCF7B9F800210C20FCF7B5F8CF
:1045100000210D20FCF7B1F830210E20FCF7ADF89A
:1045200000215020FCF7A9F8EF215120FCF7A5F855
:1045300000215220FCF7A1F840F23F115320FCF774
:104540009CF84FF41C516020FCF797F80121612082
:10455000FCF793F800216A20FCF78FF811219020D6
:10456000FCF78BF84FF4C0619220FCF786F840F21C
:1045700002419320FCF781F802219420FCF77DF89A
:10458000142000F069FE01210720FCF776F81420C2
:1045900000F062FE61210720FCF76FF840F2731112
:1045A0000720FCF76AF800212020FCF766F80021BC
:1045B0002120FCF762F822210020FCF75EF811E3CD
:1045C000794880884CF2055188427CD10021084608
:1045D000FCF753F800210846FCF74FF8142000F0D0
:1045E0003BFE00210846FCF748F800210846FCF78E
:1045F00044F800210846FCF740F800210846FCF783
:104600003CF80121A420FCF738F8142000F024FE27
:104610004FF41C516020FCF730F840F606010820EA
:10462000FCF72BF840F203713020FCF726F801214B
:104630003120FCF722F804213220FCF71EF84FF459
:1046400081713320FCF719F84FF440713420FCF7E6
:1046500014F840F203113520FCF70FF81F21362023
:10466000FCF70BF840F203713720FCF706F8012144
:104670003820FCF702F804213920FBF7FEFF152152
:104680009020FBF7FAFF4FF482611020FBF7F5FF53
:1046900040F247211120FBF7F0FF4FF4DE711220AA
:1046A000FBF7EBFF4FF460611320FBF7E6FF782088
:1046B00000F0D2FD4FF480710120FBF7DEFF4FF4D4
:1046C0000071022000E052E0FBF7D7FF41F2300119
:1046D0000320FBF7D2FF08210A20FBF7CEFF0021C1
:1046E0000C20FBF7CAFF20210E20FBF7C6FF00219C
:1046F0000F20FBF7C2FF00212020FBF7BEFF0021A7
:104700002120FBF7BAFF3D212A20FBF7B6FF14203A
:1047100000F0A2FD2D212920FBF7AFFF0021502042
:10472000FBF7ABFF4DF2EF015120FBF7A6FF002195
:104730005220FBF7A2FF40F23F115320FBF79DFFF1
:1047400000216120FBF799FF00216A20FBF795FF0C
:104750004FF440719220FBF790FF05219320FBF767
:104760008CFF4FF480710720FBF787FF3AE20E4879
:10477000808844F2315188427ED101210020FBF72C
:104780007CFF0A2000F068FD41F228611020FBF751
:1047900074FF0E211220FBF770FF40F63921132021
:1047A000FBF76BFF0A2001E03400002000F054FD0D
:1047B00040211120FBF761FF50211520FBF75DFF21
:1047C0000A2000F049FD1E211220FBF756FF0A20A7
:1047D00000F042FD4FF4B1511020FBF74EFF42F6BE
:1047E00039211320FBF749FF0A2000F035FD4FF473
:1047F00080710120FBF741FF4FF440710220FBF76D
:104800003CFF41F238010320FBF737FF40F2022161
:104810000820FBF732FF08210A20FBF72EFF0021BA
:104820003020FBF72AFF40F202413120FBF725FF41
:104830004FF483713220FBF720FF40F20351332005
:10484000FBF71BFF4FF482713420FBF716FF40F299
:1048500001313520FBF711FF40F207713620FBF7DD
:104860000CFF40F205313720FBF707FF4FF40271D0
:104870003820FBF702FF00E03EE040F60B713920E4
:10488000FBF7FBFE02214120FBF7F7FE4FF41C5122
:104890006020FBF7F2FE01216120FBF7EEFE4FF4F2
:1048A00004719020FBF7E9FE4FF485719220FBF72D
:1048B000E4FE04219320FBF7E0FE4FF48071A0207A
:1048C000FBF7DBFE01210720FBF7D7FE21210720A4
:1048D000FBF7D3FE23210720FBF7CFFE3321072070
:1048E000FBF7CBFE40F233110720FBF7C6FE002199
:1048F000A020FBF7C2FE75E1F748808844F23551ED
:1049000088427CD130211520FBF7B7FE10219A2078
:10491000FBF7B3FE20211120FBF7AFFE43F2284145
:104920001020FBF7AAFE02211220FBF7A6FE41F29F
:1049300038011320FBF7A1FE282000F08DFC122186
:104940000846FBF79AFE282000F086FC43F220413F
:104950001020FBF792FE43F238011320FBF78DFE87
:10496000462000F079FC00213020FBF786FE40F263
:1049700002413120FBF781FE40F207313220FBF784
:104980007CFE4FF441713320FBF777FE0421342085
:10499000FBF773FE40F201413520FBF76EFE40F25B
:1049A00007713620FBF769FE40F205313720FBF72F
:1049B00064FE4FF4C2613820FBF75FFE4FF4C26122
:1049C0003920FBF75AFE4FF480710120FBF755FEAA
:1049D0004FF440710220FBF750FE41F230010320FA
:1049E000FBF74BFE40F608010820FBF746FE0821C6
:1049F0000A20FBF742FE4FF41C51602000E033E038
:104A0000FBF73BFE01216120FBF737FE4FF49F715E
:104A10009020FBF732FE4FF480719220FBF72DFEC1
:104A20004FF480719320FBF728FE4FF44051A020F3
:104A3000FBF723FE1021A320FBF71FFE0121072017
:104A4000FBF71BFE21210720FBF717FE2321072080
:104A5000FBF713FE33210720FBF70FFE40F2331163
:104A60000720FBF70AFEBDE09B48808841F66311F2
:104A70008842F8D1E220FBF7E5FD1D20FBF7EBFDB6
:104A80000220FBF7E8FD0420FBF7E5FD642000F0C1
:104A90009BFBE020FBF7D6FD0120FBF7DCFD0A20A5
:104AA00000F0DAFBE020FBF7CDFD0320FBF7D3FDA0
:104AB0000C2000F0D1FB0120FBF7C4FD0A2000F020
:104AC000CBFBE620FBF7BEFD2F20FBF7C4FDFF204C
:104AD000FBF7C1FDFF20FBF7BEFDB020FBF7B2FDE9
:104AE0002020FBF7B8FD0020FBF7B5FD0320FBF706
:104AF000B2FD40F21F30FBF7AEFD0120FBF7ABFD2E
:104B000040F2DF10FBF7A7FD0020FBF7A4FDB42067
:104B1000FBF798FD0420FBF79EFD40F21F40FBF7DA
:104B20009AFD0020FBF797FD2E20FBF794FD002057
:104B3000FBF791FD0020FBF78EFD0020FBF78BFDBE
:104B40000020FBF788FDB620FBF77CFD0220FBF779
:104B500082FD4FF40370FBF77EFD0020FBF77BFD29
:104B60001720FBF778FD1520FBF775FD0020FBF7FC
:104B700072FD0020FBF76FFDF020FBF763FD0320C3
:104B8000FBF769FD2920FBF75DFDD020FBF75AFDFF
:104B90000020FBF760FDBE20FBF754FD0520FBF76E
:104BA0005AFDFE20FBF757FD0120FBF754FD0020C6
:104BB000FBF751FD0020FBF74EFD0020FBF74BFDFE
:104BC000B820FBF73FFD0320FBF745FD0120FBF775
:104BD00042FDBA20FBF736FD0120FBF73CFD6420C7
:104BE000FCF749F90020FCF772F901203B49086005
:104BF0004FF6FF70FCF759FB21B000BD2DE9FC4FCB
:104C000005460E4617469846DDF82C900020019088
:104C10003148808846F60401884229D12E4880799F
:104C2000012825D1AB4635462B480088C01B401EC5
:104C300086B2474628480088A0EB0B00401E1FFAAA
:104C400080F80020244988712A2048812B208881FF
:104C500043463A4631462846CDF80090FFF7CEFF4E
:104C600001201D4988712B2048812A2088811DE060
:104C7000781B401C80B20190344615E0214628463E
:104C8000FBF72AFDFBF70BFD4FF0000A07E04FF0A2
:104C9000D840A0F880900AF101001FFA80FA01982C
:104CA0008245F4DB601C84B24445E7DDBDE8FC8F3F
:104CB0002DE9F84F07460D4690469946DDF828B095
:104CC000A8EB0700401C1FFA80FAA9EB0500401C66
:104CD00080B20090002418E034000020BC824042E2
:104CE000281981B23846FBF7F7FCFBF7D8FC002601
:104CF00007E004FB0A603BF81000F8490880701CCC
:104D000086B25645F5DB601C84B200988442E7DB2E
:104D1000BDE8F88F2DE9FF4F84B081468A46002018
:104D2000039002900698A0EB09050798A0EB0A06ED
:104D3000CDF80490CDF800A0002D01DD012705E09D
:104D40000DB9002702E04FF0FF376D42002E02DD63
:104D50004FF0010806E016B94FF0000802E04FF0EE
:104D6000FF387642B54201DD2C4600E034464FF074
:104D7000000B21E0009A91B2019A90B2FBF7ABFFD1
:104D80000398284403900298304402900398A0426C
:104D900005DD0398001B03900198384401900298A8
:104DA000A04205DD0298001B02900098404400904C
:104DB0000BF101001FFA80FB601C8345DADD08B0AF
:104DC000BDE8F08FF0B504460D4616461F462B464B
:104DD000324629462046FFF79DFF3B46224629469C
:104DE0002046FFF797FF3B46324639462046FFF7FD
:104DF00091FF3B46324629463046FFF78BFFF0BD18
:104E00002DE9F04306460F46904600244546032010
:104E1000A0EB48093CE07A1B91B2321990B2FBF743
:104E20005AFF3A1B91B2721990B2FBF754FF3A192C
:104E300091B2721990B2FBF74EFF7A1991B2321902
:104E400090B2FBF748FF7A1991B2321B90B2FBF790
:104E500042FF3A1991B2721B90B2FBF73CFF7A1BEA
:104E600091B2321B90B2FBF736FF3A1B91B2721B24
:104E700090B2FBF730FF641CB9F1000F03DAA00019
:104E8000801D814404E0601B80000A3081446D1E57
:104E9000AC42C0DDBDE8F0832DE9F84F80460E46F8
:104EA00017461C46B3462046E31704EB5373DB104A
:104EB00021464FEAE47C04EB5C7C4FEAEC0CA4EB6B
:104EC000CC0CBCF1000F02D04FF0010C01E04FF010
:104ED000000C6344224604EBD27C4FEA6C0C03FBCB
:104EE0000CF3DBB20093A7F12000C7B2002556E017
:104EF0000C2C07D107EB4700794901EB800010F833
:104F0000059013E0102C05D1764800EB071010F83F
:104F100005900BE0182C07D107EBC700724901EB95
:104F2000800010F8059001E0BDE8F88F4FF0000A0E
:104F30002FE009F0800030B16C48028831464046CD
:104F4000FBF7D7FE07E00A9828B96948028831467E
:104F50004046FBF7CEFE4FEA49604FEA1069701CED
:104F600086B264484088B04200DCDDE7A6EB0B0067
:104F7000A0420AD15E4608F101001FFA80F85D48A0
:104F80000088404500DCCFE706E00AF1010000F0B0
:104F9000FF0ABAF1080FCCDB00BF681CC5B200984D
:104FA0008542A5DB00BFBFE710B50246012000E047
:104FB00050430B00A1F10104E1B2F9D110BD2DE97C
:104FC000FF4F81B0074691461E460E9D4FF0000AE6
:104FD000002439E0301B401EC1B20A20FFF7E4FF75
:104FE000B9FBF0F00A21B0FBF1F201FB1208BAF1B3
:104FF000000F16D1701EA04213DDB8F1000F0ED1C4
:105000000020AB4605EBDB71491001FB04710090F9
:1050100088B22B4620220299FFF73EFF12E04FF0A4
:10502000010A0020AB4605EBDB71491001FB04715E
:10503000009088B208F13001CAB22B460299FFF7FE
:105040002BFF00BF601CC4B2B442C3DB05B0BDE897
:10505000F08F2DE9FF4F82B0064692461F46DDE9EC
:105060000F480020019000255CE0781B401EC1B273
:105070000A20FFF799FFBAFBF0F00A21B0FBF1F22A
:1050800001FB1209019840BB781EA84236DDB9F138
:10509000000F31D108F0800078B108F00100A3467C
:1050A00004EBDB71491001FB0561009088B22346D7
:1050B00030220399FFF7F0FE0EE008F00100A3464E
:1050C00004EBDB71491001FB0561009088B22346B7
:1050D00020220399FFF7E0FE22E00FE08000006C41
:1050E0004A6E0008BE720008AE7800081400002066
:1050F00016000020340000200120019008F001007B
:10510000A34604EBDB71491001FB0561009088B2F6
:1051100009F13001CAB223460399FFF7BDFE00BF73
:10512000681CC5B2BD42A0DB06B0BDE8F08F2DE91A
:10513000F84704460D4690469946DDE9096704F0B4
:10514000FF0A08EB04001FFA80F809EB05001FFABC
:1051500080F916E0444502DB5446A81985B24D4556
:1051600000DB14E0002000903A78334629462046C0
:10517000FFF792FE304606EBD07104EB61018CB272
:105180007F1C38787E2802DC38782028E2DA00BFDD
:10519000BDE8F88710B504466FF0040000F092F9FE
:1051A000E11704EB5171C1F3C701394A1170104680
:1051B000007800EB4001C1EBC0104FF6FF7101EA2F
:1051C000C0003449088010BD0146314A12784A4374
:1051D0004FF0E0235A6100229A611A46126942F0A8
:1051E00001021A6100BF4FF0E022106900F00102D5
:1051F0001AB100F48032002AF5D04FF0E022126993
:1052000022F001024FF0E0231A6100229A617047F8
:105210000146204A12884A434FF0E0235A61002297
:105220009A611A46126942F001021A6100BF4FF0FA
:10523000E022106900F001021AB100F48032002A65
:10524000F5D04FF0E022126922F001024FF0E02386
:105250001A6100229A61704770B504464FF40770D6
:1052600094FBF0F0C6B24FF4077094FBF0F100FB32
:10527000114085B205E04FF40770FFF7C9FF701EBB
:10528000C6B2002EF7D115B12846FFF7C1FF70BD99
:10529000180000201A00002000BF704700BF4C4AD1
:1052A000128802F04002002AF9D0C2B2484B9A801C
:1052B000704710B588B004460121084600F028FF69
:1052C0000121102000F07EFF07220921414800F053
:1052D00028FA07220A213F4800F023FA4FF4C06061
:1052E000069002208DF81C008DF81D0000208DF81E
:1052F0001E0001208DF81F0006A9364800F086F92F
:1053000002940020ADF80C00ADF80E00ADF81000CE
:10531000ADF814000C20ADF8120002A92C4801F0E1
:10532000B2F801212A4801F036F9012240F2255154
:10533000274801F0E6F925208DF8040003208DF8B8
:1053400005008DF8060001208DF8070001A800F087
:105350006CF808B010BD10B540F225511C4801F0A2
:105360000BFA10B31A4801F045F9C4B21A48008884
:1053700000F40040C8B91848008800F4804060B1CB
:105380000A2C03D000201449088020E0124800882D
:1053900040F400401049088019E00D2C06D10E4859
:1053A000008840F480400C49088010E00A480088DA
:1053B000C0F30D0009490C5407480088401C0649F9
:1053C000088008460088C72801DD0020088010BD3D
:1053D0000010014000000240200000204200002098
:1053E0000948804709480047FEE7FEE7FEE7FEE779
:1053F000FEE7FEE7FEE7FEE7FEE7FEE704480549B5
:10540000054A064B70470000D104000889010008D6
:10541000700100207007002070030020700300203E
:1054200032490143324A1160704770B500210023B0
:105430000F22C4781CB32E4C246804F4E064C4F535
:10544000E064C4F30721C1F10404E3B20A414478E3
:105450009C40E1B28478144021430C07210E254C76
:1054600005786155047804F01F050124AC400578E7
:105470006D11AD0005F1E025C5F8004109E00478A3
:1054800004F01F050124AC401B4D0678761145F849
:10549000264070BD194A0A400243154B1B1F1A6073
:1054A000704739B1124A121D12680243104B1B1D7E
:1054B0001A6006E00E4A121D126882430C4B1B1D37
:1054C0001A607047042808D14FF0E021096941F0C3
:1054D00004014FF0E022116107E04FF0E02109697B
:1054E00021F004014FF0E022116170470000FA053D
:1054F0000CED00E000E400E080E100E080FFFF1F31
:1055000010B504469848844208D10121084600F0AD
:105510006AFE0021012000F066FE76E09348844296
:1055200008D10121022000F05EFE0021022000F0DF
:105530005AFE6AE08E48844208D10121042000F01E
:1055400052FE0021042000F04EFE5EE089488442B5
:1055500008D10121082000F046FE0021082000F0BB
:1055600042FE52E08448844208D10121102000F01C
:105570003AFE0021102000F036FE46E07F488442CB
:1055800008D10121202000F02EFE0021202000F073
:105590002AFE3AE07A48844208D10121402000F0F6
:1055A00022FE0021402000F01EFE2EE075488442BD
:1055B00008D10121802000F016FE0021802000F09B
:1055C00012FE22E07048844208D10121801500F0CB
:1055D0000AFE0021A01500F006FE16E06B4884428A
:1055E00008D10121401500F0FEFD0021601500F0FA
:1055F000FAFD0AE06648844207D10121001500F057
:10560000F2FD0021201500F0EEFD10BDF0B50A46B8
:1056100000210023002400BF3DE0012505FA01F32D
:10562000156805EA03049C4234D105684F0003263F
:10563000BE40B543056015794E00B5400668354358
:1056400005601579012D02D01579022D16D18568D6
:105650004F000326BE40B543856055794E00B540E6
:10566000866835438560456801268E40B5434560B0
:10567000456896798E40B6B235434560C5684F009F
:105680000326BE40B543C560D5794E00B540C66817
:105690003543C560491C1029BFD3F0BD4FF6FF71DB
:1056A00001600021017141718171C171704708B5BC
:1056B0004FF480320092009A0A430092009AC2612D
:1056C000C161009AC261C2690092C269009208BDBC
:1056D0000246002013690B400BB1012000E00020BE
:1056E00070470146086980B270470246002053693E
:1056F0000B400BB1012000E00020704701464869D3
:1057000080B2704701837047418370470AB10183BB
:1057100000E0418370474161704742694A404261FD
:105720007047F0B5002300244D07ED0E02FA05F393
:10573000CE1000F1200555F826504E07F70E0F2623
:10574000BE40B543CF1000F1200646F82750CE10DA
:1057500000F1200555F8265045EA0304CE1000F16B
:10576000200545F82640F0BD00000240000402403C
:1057700000080240000C02400010024000140240E9
:1057800000180240001C0240002002400024024099
:105790000028024030B943F2DB028100A1F1C04190
:1057A0000A6005E043F2D2028100A1F1C0410A6023
:1057B0006FF07042411C8900A1F1C0410A60810074
:1057C000A1F1C041C1F804217047D0E90112114391
:1057D000C26811430269114342691143826911434E
:1057E000C2691143026A1143426A1143826A11433A
:1057F000C26A1143026B114302689200A2F1C042D7
:105800001160816808290BD101688900A1F1C041AC
:10581000096841F0400201688900A1F1C0410A60B5
:10582000416B0968426B526841EA0211426B92680F
:1058300041EA0221426B928941EA0241426B128A9B
:1058400041EA0251426B127D41EA0261426B926968
:1058500011430268521C9200A2F1C0421160C16A59
:10586000B1F5804F1BD1816B0968826B526841EAA8
:105870000211826B926841EA0221826B128A41EA2C
:105880000251826B127D41EA0261826B926911437F
:1058900002689200A2F1C042C2F8041107E06FF062
:1058A000704201688900A1F1C041C1F8042170472C
:1058B000002101600221416000218160C16001611D
:1058C00041618161C16101624FF4805141624900CF
:1058D00081620021C1620163F849416381637047BD
:1058E00051B18200A2F1C042126842F0010382006D
:1058F000A2F1C042136009E08200A2F1C042126826
:10590000EF4B1A408300A3F1C0431A607047102880
:105910000AD118214FF020421166402151664FF004
:10592000FC319166D16610E01821E64A11604021F1
:105930004FF02042C2F884104FF0FC31E14A0832A7
:1059400011604FF02042C2F88C10704730B5002132
:1059500000220023446844F0080485682C43C5688D
:105960002C4305692C43456944EA4524856944EA8A
:105970004531C4692468C5696D6844EA0524C56970
:105980002D8944EA0544C5692D7B44EA0562046A11
:105990002468056A6D6844EA0524056A2D8944EA8D
:1059A0000544056A2D7B44EA05630468102C05D183
:1059B0004FF020442166A266E36608E0C14C2160F6
:1059C0004FF02044C4F88820BE4C0C34236030BD16
:1059D00010210160002141608160C160016141616D
:1059E0008161FC21C2691160C2695160C269916024
:1059F000C269D160026A1160026A5160026A9160F4
:105A0000026AD160704799B1102808D14FF0204246
:105A1000126E42F004024FF020431A661DE0A94ABC
:105A2000126842F004024FF02043C3F8802014E0D3
:105A3000102809D14FF02042126EA14BDB1E1A40F4
:105A40004FF020431A6608E09E4A12689C4BDB1E0A
:105A50001A404FF02043C3F88020704799B11028B6
:105A600008D14FF02042126E42F040024FF0204326
:105A70001A661DE0934A126842F040024FF020433C
:105A8000C3F8802014E0102809D14FF02042126E94
:105A90008B4B3F3B1A404FF020431A6608E0894A7F
:105AA0001268874B3F3B1A404FF02043C3F88020D9
:105AB000704701460020102903D14FF02042506F5B
:105AC00002E0804A14321068704718207D49203166
:105AD000086000200906C1F8A4004FF0FC307949A5
