:10141600E5845408FFE58454804F4470F584E584E0
:101426005470FFBF70037F0022E4F511F510F50F2D
:10143600F50EE47FE07E2EFDFCAB11AA10A90FA8E5
:101446000EC31216695017E5112401F511E4351083
:10145600F510E4350FF50FE4350EF50E80D4E5846E
:101466005408FFE58454804F4476F584E58454702F
:101476006470601CE584547024D0600E24E060071C
:1014860024F070097F01227F02227F03227F00223F
:10149600E5845408FFE58454804F4475F584E5845B
:1014A60054706470601CE584547024D0600E24E08F
:1014B600600724F070097F04227F05227F06227FC1
:1014C6000022E5845408FFE58454804F4473F58474
:1014D600E58454706470601CE584547024D0600EFA
:1014E60024E0600724F070097F07227F08227F0925
:0614F600227F00227F00AE
:0114FC0022CD
:10007E008040201008040201000000000000000073
:10008E000000000000000000804020100804020163
:10009E00C04060504B4D7341414141414140400091
:1000AE0010204080FF02020282422212FF0402014F
:1000BE00905031353F55579F55553725111010002B
:1000CE00112B69BF692B1100916B69BF692F130149
:1000DE00884968380F0C0625252404FF0444340093
:1000EE00020498609C027F02FC4424F00C060F016F
:1000FE00C04764547C0503FF01050911610101002D
:10010E0000C241427C0000FF82C46010080402015C
:10011E0080403F322A47C2430418F01310141800CF
:10012E000106F80000FE0001824C30D038060301B3
:10013E0088503F55DD55575F555575151F0000000A
:10014E004040405F55555555D555755F4844420161
:10015E00804720FF0804424F49494949494F400012
:10016E00800000FF000002F2A26222322AF6020193
:10017E000000000000000000000000000000000071
:10018E000000003F00000000000000981800000072
:10019E000008304830400000000000000000000061
:1001AE000004041F041F04000040F840F840400003
:1001BE00000E113F100C0000003008FE8870000089
:1001CE000E110E0106180000001860807088700075
:1001DE00000F110F01010000F008C828F0080800F8
:1001EE000868700000000000000000000000000021
:1001FE000000000718204000000000C03008040076
:10020E00004020180700000000040830C000000065
:10021E000202010F01020200404080F080404000C7
:10022E000101010F01010100000000E000000000CB
:10023E000000000000000000021A1C000000000078
:10024E000101010101010100000000000000000099
:10025E000000000000000000001818000000000060
:10026E000000000106384000000C30C00000000005
:10027E00000708101008070000E010080810E00042
:10028E000008081F00000000000808F80808000019
:10029E00000C101010110E000018284888081800C5
:1002AE00000C101111120C000030080808887000A4
:1002BE00000102041F00000000C04048F84848003A
:1002CE00001F111212121100003008080808F00069
:1002DE00000708111119000000F088080808F00046
:1002EE00001C1010131C1000000000F8000000008D
:1002FE00000E111111110E00007088080888700090
:10030E00000F101010090700000098888810E000F8
:10031E000000000303000000000000181800000099
:10032E0000000002000000000000020C00000000AF
:10033E000001020408102000000080402010080078
:10034E0002020202020202004040404040404000D1
:10035E000020100804020100000810204080000058
:10036E00001C202020211E0000000018D8000000D4
:10037E000708131417080700E010E828C828D00053
:10038E0000000718070000000878C840C878080069
:10039E00101F111111120C0008F8080808887000BF
:1003AE000708101010101C00E0100808081020009C
:1003BE00101F10101008070008F808080810E000B9
:1003CE00101F11111710080008F80808C8081000AF
:1003DE00101F11111710080008F80800C0000000C7
:1003EE0007081010101C0000E010080848704000AC
:1003FE00101F1101111F100008F8080008F808005E
:10040E000010101F10100000000808F80808000067
:10041E00000010101F10100006020202FC00000067
:10042E00101F11031418100008F80880681808002F
:10043E00101F10000000000008F808080808180037
:10044E00101F1E011E1F100008F800F800F808000B
:10045E00101F1C03101F100008F8088070F8000011
:10046E000708101010080700E01008080810E00038
:10047E00101F111111110E0008F8080000000000E5
:10048E000708101010080700E01028281814E400C0
:10049E00101F1111110E000008F8088060180800D6
:1004AE00000E111110101C0000380808888870000A
:1004BE001810101F10101800000008F80800000097
:1004CE00101F1000101F100000F0080808F00000A8
:1004DE00101E1100111E10000000E018E0000000B8
:1004EE00101F001F001F10000080F800F880000091
:1004FE0010181601161810000818688068180800E1
:10050E00101C1300131C1000000008F80800000057
:10051E0000081010131C1000000838C80808180036
:10052E000000007F40404000000000FC0404040076
:10053E0000300C030000000000000080601C020070
:10054E00004040407F00000000040404FC00000056
:10055E0000002040402000000000000000000000CD
:10056E00000000000000000002020202020202006F
:10057E0000404020000000000000000000000000CD
:10058E0000010202020100000030488888F80800CD
:10059E00101F01020202010000F808080808F0000E
:1005AE00000001020202010000E01008080810001D
:1005BE000001020202121F0000F008080810F808DD
:1005CE00000102020202010000F088888888900073
:1005DE000002020F12121800000808F808080000A6
:1005EE00000102020203020000AC525252920C00B1
:1005FE00101F01020202010008F808000008F808A6
:10060E0000021A1B00000000000808F8080800008D
:10061E00000000021A1B00000006020202FC00008D
:10062E00101F00000302020008F848806818080036
:10063E000010101F00000000000808F80808000055
:10064E00020302030201000008F800F800F8080097
:10065E00020301020202010008F808000008F8086F
:10066E00000001020201000000E010080810E00086
:10067E00020301020202010002FE0A080808F0004D
:10068E00000102020202030000F008080812FE0236
:10069E0002020301020203000808F8080800000025
:1006AE000001020202030000009848484830000092
:1006BE000002020F02020000000000F00808000015
:1006CE00020300000002030000F008080810F808FA
:1006DE0002030200000203020000E01820C0000026
:1006EE00020300030003020000C038C038C000003F
:1006FE000002030002030200000818E8E0180800D8
:10070E0002030200000203020202E21C30C00000DB
:10071E00000302020203020000081868880818008D
:10072E00000000017E40000000000000FC040000FC
:10073E00000000FF00000000000000FE00000000AE
:10074E000000407E01000000000004FC00000000DC
:10075E0000608080402020C00000000000000000EB
:091AA300012600012700012800C2
:0919A5007F01121A957F0A7E00F1
:1019AE00EF1FAA0670011E4A6015E4FCFDD3ED94EC
:0F19BE0014EC6480948050E80DBD00010C80EEA5
:0119CD0022F7
:1019CE005384F7E4FDAE07EF3392B5C2B4E4FC0CDA
:1019DE00BC03FCD2B4E4FC0CBC03FCEE25E0FF0D12
:0619EE00BD08E24384087D
:0119F40022D0
:1019F500438408E4FDAE07EF3392B5C2B4E4FC0CB2
:101A0500BC03FCD2B4E4FC0CBC03FCEE25E0FF0DEA
:061A1500BD08E25384F756
:011A1B0022A8
:0E1A9500AE05EFAF0660030219CE1219F5225E
:1018D3004384801219AA53847F1219AA4384801265
:1018E30019AA7DE27F01121A957DA37F01121A9531
:1018F3007DA07F01121A957DC07F01121A957D2666
:101903007F01121A957F057E001219AE7D2C1219E4
:10191300A57D2E1219A57D2F1219A57D817F011298
:101923001A957D201219A57DF87F01121A957D0164
:101933007F01121A957F057E001219AE7DAF7F01DC
:03194300021A95F0
:021A4300AB07EF
:101A4500ED44B0FF1219CEEB54F0C4540FFEEB5425
:0E1A55000FFBEE4410FF1219CEAF030219CEA4
:0A1ACA00121A437DFFE4FF021A9593
:101A1C007BB7AD037F01121A957D107F01121A95C9
:101A2C00E4FD7F01121A95E4FAE4FF1219F50ABAE3
:061A3C0080F71BBBAFDCCC
:011A42002281
:0319460024FEFD7F
:021949008F1FEE
:10194B00ED131313541FF521B5271AE51FB52815F1
:10195B00ED5407FF7480A807088002C313D8FC4519
:10196B0026F5208011ED5407FF7480A8070880022C
:10197B00C313D8FCF520E52124F9FFE434FFFE1254
:10198B001ABEAD07AF1F121A43AD20E4FF121A9512
:09199B00852026852127851F28DF
:0119A4002220
:100B1900EF24E0F51DEDC454F0FFC3743F9FF51BAE
:0A0B2900EB75F008A4F51CE4F51AC2
:100B3300E51A25E0F51EE51AC394084003020CA646
:100B430075F010E51DA4247EF582E5F03401F583EC
:100B5300E582251AF582E43583F583E49330E70AC9
:100B6300E51C251AFFAD1B12194975F010E51DA4EC
:100B7300247EF582E5F03401F583E582251AF582BA
:100B8300E43583F583E49330E60CE51C251AFFE591
:100B93001B14FD12194975F010E51DA4247EF5827E
:100BA300E5F03401F583E582251AF582E43583F512
:100BB30083E49330E50AE51C251AFFE51B12194669
:100BC30075F010E51DA4247EF582E5F03401F5836C
:100BD300E582251AF582E43583F583E49330E40D49
:100BE300E51C251AFFE51B24FDFD12194975F010BC
:100BF300E51DA4247EF582E5F03401F583E5822525
:100C03001AF582E43583F583E49330E30DE51C257F
:100C13001AFFE51B24FCFD12194975F010E51DA40C
:100C2300247EF582E5F03401F583E582251AF58209
:100C3300E43583F583E49330E20DE51C251AFFE5E3
:100C43001B24FBFD12194975F010E51DA4247EF544
:100C530082E5F03401F583E582251AF582E43583D4
:100C6300F583E49330E10DE51C251AFFE51B24FA17
:100C7300FD12194975F010E51DA4247EF582E5F0F7
:100C83003401F583E582251AF582E43583F583E49F
:100C93009320E003020E1EE51C251AFFE51B24F931
:100CA300020E1A75F010E51DA4247EF582E5F034DA
:100CB30001F583E582251AF582E43583F583E49310
:100CC30030E70FE51C251A24F8FFE51B24F8FD1275
:100CD300194975F010E51DA4247EF582E5F0340171
:100CE300F583E582251AF582E43583F583E49330B1
:100CF300E60FE51C251A24F8FFE51B24F7FD12195E
:100D03004975F010E51DA4247EF582E5F03401F564
:100D130083E582251AF582E43583F583E49330E590
:100D23000FE51C251A24F8FFE51B24F6FD121949CB
:100D330075F010E51DA4247EF582E5F03401F583FA
:100D4300E582251AF582E43583F583E49330E40FD5
:100D5300E51C251A24F8FFE51B24F5FD1219497536
:100D6300F010E51DA4247EF582E5F03401F583E55A
:100D730082251AF582E43583F583E49330E30FE5A6
:100D83001C251A24F8FFE51B24F4FD12194975F0FC
:100D930010E51DA4247EF582E5F03401F583E58298
:100DA300251AF582E43583F583E49330E20FE51CDD
:100DB300251A24F8FFE51B24F3FD12194975F010D9
:100DC300E51DA4247EF582E5F03401F583E5822553
:100DD3001AF582E43583F583E49330E10FE51C25AE
:100DE3001A24F8FFE51B24F2FD12194975F010E5EA
:100DF3001DA4247EF582E5F03401F583E582251AEE
:100E0300F582E43583F583E49330E00FE51C251A7E
:0B0E130024F8FFE51B24F1FD12194933
:0C0E1E00051AE51AC394105003020B33B0
:010E2A0022A5
:06171A008B0E8A0F8910FE
:10172000E4F513F514F515F516EDC454F02512F58E
:1017300019D3943F507AED94035075E512940F40FD
:1017400002806DE5144513706FAB0EAA0FA910123D
:1017500015C5605C7E00E5162519FBEE3515FA7C93
:10176000007D10AF03FE1216338F177C007D10AF83
:1017700003AE021216338D18AB0EAA0F1215C5FF59
:10178000AB18AD17120B1974012510F510E4350FC5
:10179000F50F0516E516700205157E002519FFEEFA
:1017A0003515FED3EF943FEE648094804095800021
:0817B000751300751401808B14
:0117B800220E
:100E2B008F25EDC454F0FFC3743F9FF523EBC454DF
:100E3B00F0F524E4F522E522C394104003020FA63B
:100E4B00E525C43354E0249EF582E43400F583E5B4
:100E5B00822522F582E43583F583E49330E70AE5B6
:100E6B00242522FFAD23121949E525C43354E02470
:100E7B009EF582E43400F583E5822522F582E43584
:100E8B0083F583E49330E60CE5242522FFE5231458
:100E9B00FD121949E525C43354E0249EF582E43450
:100EAB0000F583E5822522F582E43583F583E4930F
:100EBB0030E50AE5242522FFE523121946E525C472
:100ECB003354E0249EF582E43400F583E582252239
:100EDB00F582E43583F583E49330E40DE524252294
:100EEB00FFE52324FDFD121949E525C43354E02405
:100EFB009EF582E43400F583E5822522F582E43504
:100F0B0083F583E49330E30DE5242522FFE52324C9
:100F1B00FCFD121949E525C43354E0249EF582E407
:100F2B003400F583E5822522F582E43583F583E4ED
:100F3B009330E20DE5242522FFE52324FBFD121956
:100F4B0049E525C43354E0249EF582E43400F5834F
:100F5B00E5822522F582E43583F583E49330E10DB8
:100F6B00E5242522FFE52324FAFD121949E525C4C2
:100F7B003354E0249EF582E43400F583E582252288
:100F8B00F582E43583F583E49320E003021116E543
:100F9B00242522FFE52324F9021112E525C433543D
:100FAB00E0249EF582E43400F583E5822522F58268
:100FBB00E43583F583E49330E70FE524252224F011
:100FCB00FFE52324F8FD121949E525C43354E02429
:100FDB009EF582E43400F583E5822522F582E43523
:100FEB0083F583E49330E60FE524252224F0FFE517
:100FFB002324F7FD121949E525C43354E0249EF54B
:10100B0082E43400F583E5822522F582E43583F50D
:10101B0083E49330E50FE524252224F0FFE5232418
:10102B00F6FD121949E525C43354E0249EF582E4FC
:10103B003400F583E5822522F582E43583F583E4DC
:10104B009330E40FE524252224F0FFE52324F5FD5E
:10105B00121949E525C43354E0249EF582E434008B
:10106B00F583E5822522F582E43583F583E493301D
:10107B00E30FE524252224F0FFE52324F4FD1219C8
:10108B0049E525C43354E0249EF582E43400F5830E
:10109B00E5822522F582E43583F583E49330E20F74
:1010AB00E524252224F0FFE52324F3FD121949E55D
:1010BB0025C43354E0249EF582E43400F583E582A5
:1010CB002522F582E43583F583E49330E10FE524A3
:1010DB00252224F0FFE52324F2FD121949E525C44E
:1010EB003354E0249EF582E43400F583E582252217
:1010FB00F582E43583F583E49330E00FE524252274
:10110B0024F0FFE52324F1FD1219490522E522C342
:07111B0094205003020E4175
:0111220022AA
:10076E008F1DEDC454F0FFC3743F9FF51BEBC454B3
:10077E00F0F51CE4F51AE51AC3941040030209447F
:10078E00E51DC43354E0249EF582E43400F583E580
:10079E0082251AF582E43583F583E493FFE51A90FA
:1007AE00007E93FEC3EF9E30E70AE51C251AFFADCF
:1007BE001B121949E51DC43354E0249EF582E4341E
:1007CE0000F583E582251AF582E43583F583E493FB
:1007DE00FFE51A90007E93FEC3EF9E30E60CE51CFB
:1007EE00251AFFE51B14FD121949E51DC43354E00B
:1007FE00249EF582E43400F583E582251AF582E421
:10080E003583F583E493FFE51A90007E93FEC3EFE4
:10081E009E30E50DE51C251AFFE51B24FEFD121981
:10082E0049E51DC43354E0249EF582E43400F5837B
:10083E00E582251AF582E43583F583E493FFE51A04
:10084E0090007E93FEC3EF9E30E40DE51C251AFF4B
:10085E00E51B24FDFD121949E51DC43354E0249E09
:10086E00F582E43400F583E582251AF582E43583BA
:10087E00F583E493FFE51A90007E93FEC3EF9E305E
:10088E00E30DE51C251AFFE51B24FCFD121949E5B5
:10089E001DC43354E0249EF582E43400F583E582D2
:1008AE00251AF582E43583F583E493FFE51A90006B
:1008BE007E93FEC3EF9E30E20DE51C251AFFE51B6D
:1008CE0024FBFD121949E51DC43354E0249EF58224
:1008DE00E43400F583E582251AF582E43583F58349
:1008EE00E493FFE51A90007E93FEC3EF9E30E10D78
:1008FE00E51C251AFFE51B24FAFD121949E51DC456
:10090E003354E0249EF582E43400F583E582251A03
:10091E00F582E43583F583E493FFE51A90007E9328
:10092E00FEC3EF9E20E003020B0CE51C251AFFE52B
:10093E001B24F9020B08E51DC43354E0249EF582F6
:10094E00E43400F583E582251AF582E43583F583D8
:10095E00E493FFE51A90007E93FEC3EF9E30E70FFF
:10096E00E51C251A24F0FFE51B24F8FD121949E5B4
:10097E001DC43354E0249EF582E43400F583E582F1
:10098E00251AF582E43583F583E493FFE51A90008A
:10099E007E93FEC3EF9E30E60FE51C251A24F0FF72
:1009AE00E51B24F7FD121949E51DC43354E0249EBE
:1009BE00F582E43400F583E582251AF582E4358369
:1009CE00F583E493FFE51A90007E93FEC3EF9E300D
:1009DE00E50FE51C251A24F0FFE51B24F6FD121980
:1009EE0049E51DC43354E0249EF582E43400F583BA
:1009FE00E582251AF582E43583F583E493FFE51A43
:100A0E0090007E93FEC3EF9E30E40FE51C251A2462
:100A1E00F0FFE51B24F5FD121949E51DC43354E022
:100A2E00249EF582E43400F583E582251AF582E4EE
:100A3E003583F583E493FFE51A90007E93FEC3EFB2
:100A4E009E30E30FE51C251A24F0FFE51B24F4FD70
:100A5E00121949E51DC43354E0249EF582E4340096
:100A6E00F583E582251AF582E43583F583E493FF59
:100A7E00E51A90007E93FEC3EF9E30E20FE51C2533
:100A8E001A24F0FFE51B24F3FD121949E51DC433AA
:100A9E0054E0249EF582E43400F583E582251AF5B0
:100AAE0082E43583F583E493FFE51A90007E93FE8E
:100ABE00C3EF9E30E10FE51C251A24F0FFE51B2441
:100ACE00F2FD121949E51DC43354E0249EF582E46B
:100ADE003400F583E582251AF582E43583F583E447
:100AEE0093FFE51A90007E93FEC3EF9E30E00FE574
:100AFE001C251A24F0FFE51B24F1FD121949051AD5
:0A0B0E00E51AC39420500302078487
:010B180022BA
:06167A008B0E8A0F89109F
:10168000E4F513F514F515F516ED75F008A425121B
:10169000F519D3943F507AED94035075E512940FE9
:1016A0004002806DE5144513706FAB0EAA0FA910B0
:1016B0001215C5605C7E00E5162519FBEE3515FA9E
:1016C0007C007D08AF03FE1216338F177C007D0867
:1016D000AF03AE021216338D18AB0EAA0F1215C54A
:1016E000FFAB18AD1712076E74012510F510E43525
:1016F0000FF50F0516E516700205157E002519FF7A
:10170000EE3515FED3EF943FEE64809480409580D3
:0917100000751300751401808BB3
:0117190022AD
:1000030050726F6A6563742D3100332E372D2D3393
:100013002E313400707265737320746865206275C5
:1000230074746F6E002D2D2D2D2D2D2D2D2D2D2D19
:100033002D2D2D2D2D0030313233343536373839CF
:10004300006162636465666768696A6B6C6D6E6F95
:10005300707172737475767778797A0030313233D0
:0A00630034353600790078006F0094
:0A1AD40075FFDE75FFAD75EF04220B
:0D1AB100758E207591067592A07593FF2229
:04006D0075E884228C
:071ADE0075D48875D7802242
:0400760075D103221B
:071AE50075A73075E34022F4
:101A6300E4FFFE75B1670FBF00010EBE0BF8BFB8F0
:091A7300F5E5B130E7FB75B2089E
:011A7C002247
:071AEC0075A88075E70322D5
:101A7D00121AD4121AB112006D121ADE1200761259
:081A8D001AE5121A63021AECBB
:10112300E4F508F509121A7DE4F50AF50BE50B253C
:10113300E0FFE50A33FE74002FF58274003EF58369
:10114300E4F0A3F0050BE50B7002050AB4E8DEE555
:101153000AB403D91218D3121A1C7DA77F01121ADD
:10116300957BFF7A0079037512047D0112171A7BB0
:10117300FF7A00790D7512047D0212171AE4F50A3D
:10118300F50B7F647E001219AE050BE50B700205AB
:101193000AC394FFE50A940040E87DA67F01121A72
:1011A30095121A1C7BFF7A007917E4F5127D011260
:1011B300171A7BFF7A007928E4F5127D0212171AB9
:1011C3001214168F08E50860DB14B407004003020D
:1011D30014109011E375F003A4C58325F0C5837340
:1011E3000211F80212180212380212890212E502E1
:1011F3001332021361121A1CE4F5097BFF7A00799A
:1012030039E4F512FD12171A1214168F09E509B401
:1012130009E902140D121A1CE4F5097BFF7A00791F
:1012230044E4F512FD12171A1214168F09E509B4D6
:1012330009E902140D121A1CE4F509E4F50AF50B89
:10124300AD0BAF05121949050BE50B7002050AC377
:101253009440E50A940040E8750A00750B40AF0B13
:10126300C3747F9FFD121949050BE50B7002050A34
:10127300C3947FE50A940040E51214168F09E5092B
:10128300B409B802140D121A1CE4F509E4F50AF5C1
:101293000BAF0BC007AE0A7C007D641215DEED2593
:1012A300E0FFEC33FE74FD2FF58274143EF583E406
:1012B30093FE7401937806CEC313CE13D8F9FDD0F1
:1012C30007121949050BE50B7002050AC39480E563
:1012D3000A940040BC1214168F09E509B409AD0243
:1012E300140D121A1CE4F509E4F50AF50BAF0B7D96
:1012F3001F121949050BE50B7002050AC3947FE51C
:101303000A940040E8E4F50AF50BAD0B7F3F121990
:1013130049050BE50B7002050AC39440E50A9400E6
:1013230040E81214168F09E509B409BC02140D1222
:101333001A1CE4F5097BFF7A00795FE4F5127D015D
:1013430012167A7BFF7A00795FE4F5127D0212169A
:101353007A1214168F09E509B409DA02140D121A68
:101363001CE4F509E4F50AF50BAF0B7D0F121949DF
:10137300050BE50B7002050AC39478E50A94004057
:10138300E8E4F50AF50BAD0B7F0F121949050BE5E0
:101393000B7002050AC39438E50A940040E8750A05
:1013A30000750B20E50B24E0FFE50A34FFC313FEB1
:1013B300EF132410F50DE43EF50CAF0BAD0D121930
:1013C30049050BE50B7002050AC39478E50A9400FE
:1013D30040D27BFF7A007967751202E4FD12171A77
:1013E3007BFF7A00796975120F7D0212171A7BFF52
:1013F3007A00796B7512027D0212171A1214168F76
:1014030009E50964096003021367121A1CE4F5086D
:031413000211A71C
:1014FD0008000882090309840A020A7F0AF90B70A1
:10150D000BE40C530CBE0D240D850DE00E360E8430
:10151D000ECC0F0D0F470F790FA40FC60FE10FF370
:10152D000FFE0FFF0FFA0FEB0FD50FB60F8F0F61D9
:10153D000F2B0EEE0EA90E5E0E0C0DB40D560CF209
:10154D000C890C1C0BAA0B350ABC0A4109C30944B2
:10155D0008C3084107BF073D06BC063D05BF05444E
:10156D0004CB045603E40377030E02AA024C01F4E4
:10157D0001A20157011200D5009F0071004A002BF6
:10158D000015000600000002000D001F003A005C6F
:10159D00008700B900F30134017C01CA0220027BEF
:1015AD0002DC034203AD041C04900507058105FE12
:0815BD00067C06FD077E080014
:041AAC00022900000B
:03007300021AF37B
:041AF30053917F325A
:03007B000217B9B0
:1017B900C0E0C0F0C083C082C0D075D000C000C0F6
:1017C90004C005C006C007C2ED85BED285BFD305DA
:1017D9002AE52A70020529D394E7E52964809483D0
:1017E9004006752900752A00E52A25E0FFE5293319
:1017F900FE74002FF58274003EF583E5BFF0A3E582
:10180900BEF0AE29AF2A7C007D0A121633EF25E01F
:10181900FFEE33FE74FD2FF58274143EF583E493D5
:10182900FE740193F5D5EEF5D6D007D006D005D0D4
:0E18390004D000D0D0D082D083D0F0D0E032E6
:030000000218479C
:0C184700787FE4F6D8FD75812A02188E27
:1015C500BB010689828A83E0225002E722BBFE0224
:0915D500E32289828A83E4932257
:1015DE00BC000BBE0029EF8DF084FFADF022E4CCF1
:1015EE00F875F008EF2FFFEE33FEEC33FCEE9DECBA
:1015FE00984005FCEE9DFE0FD5F0E9E4CEFD22ED00
:10160E00F8F5F0EE8420D21CFEADF075F008EF2F49
:10161E00FFED33FD4007985006D5F0F222C398FD3A
:05162E000FD5F0EA22D7
:10163300C2D5EC30E709B2D5E4C39DFDE49CFCEED2
:1016430030E715B2D5E4C39FFFE49EFE1215DEC357
:10165300E49DFDE49CFC80031215DE30D507C3E452
:061663009FFFE49EFE2241
:10166900EB9FF5F0EA9E42F0E99D42F0E89C45F0D7
:01167900224E
:0C1ABE00EE30E707C3E49FFFE49EFE2229
:10185300021123E493A3F8E493A34003F68001F277
:1018630008DFF48029E493A3F85407240CC8C33396
:10187300C4540F4420C8834004F456800146F6DF65
:10188300E4800B0102040810204080901AA3E47E38
:10189300019360BCA3FF543F30E509541FFEE4935A
:1018A300A360010ECF54C025E060A840B8E493A321
:1018B300FAE493A3F8E493A3C8C582C8CAC583CA4C
:1018C300F0A3C8C582C8CAC583CADFE9DEE780BE04
:011AB0000035
:00000001FF
