:100B8900E5845408FFE58454804F4470F584E58476
:100B99005470FFBF70037F0022E4F50FF50EF50DC9
:100BA900F50CE47FE07E2EFDFCAB0FAA0EA90DA883
:100BB9000CC3120DDC5017E50F2401F50FE4350EB7
:100BC900F50EE4350DF50DE4350CF50C80D4E5840E
:100BD9005408FFE58454804F4476F584E5845470C5
:100BE9006470601CE584547024D0600E24E06007B2
:100BF90024F070097F01227F02227F03227F0022D5
:100C0900E5845408FFE58454804F4475F584E584F0
:100C190054706470601CE584547024D0600E24E024
:100C2900600724F070097F04227F05227F06227F56
:100C39000022E5845408FFE58454804F4473F58409
:100C4900E58454706470601CE584547024D0600E8F
:100C590024E0600724F070097F07227F08227F09BA
:060C6900227F00227F0043
:010C6F002262
:10007E000000000000000000000000000000000072
:10008E000000003F00000000000000981800000073
:10009E000008304830400000000000000000000062
:1000AE000004041F041F04000040F840F840400004
:1000BE00000E113F100C0000003008FE887000008A
:1000CE000E110E0106180000001860807088700076
:1000DE00000F110F01010000F008C828F0080800F9
:1000EE000868700000000000000000000000000022
:1000FE000000000718204000000000C03008040077
:10010E00004020180700000000040830C000000066
:10011E000202010F01020200404080F080404000C8
:10012E000101010F01010100000000E000000000CC
:10013E000000000000000000021A1C000000000079
:10014E00010101010101010000000000000000009A
:10015E000000000000000000001818000000000061
:10016E000000000106384000000C30C00000000006
:10017E00000708101008070000E010080810E00043
:10018E000008081F00000000000808F8080800001A
:10019E00000C101010110E000018284888081800C6
:1001AE00000C101111120C000030080808887000A5
:1001BE00000102041F00000000C04048F84848003B
:1001CE00001F111212121100003008080808F0006A
:1001DE00000708111119000000F088080808F00047
:1001EE00001C1010131C1000000000F8000000008E
:1001FE00000E111111110E00007088080888700091
:10020E00000F101010090700000098888810E000F9
:10021E00000000030300000000000018180000009A
:10022E0000000002000000000000020C00000000B0
:10023E000001020408102000000080402010080079
:10024E0002020202020202004040404040404000D2
:10025E000020100804020100000810204080000059
:10026E00001C202020211E0000000018D8000000D5
:10027E000708131417080700E010E828C828D00054
:10028E0000000718070000000878C840C87808006A
:10029E00101F111111120C0008F8080808887000C0
:1002AE000708101010101C00E0100808081020009D
:1002BE00101F10101008070008F808080810E000BA
:1002CE00101F11111710080008F80808C8081000B0
:1002DE00101F11111710080008F80800C0000000C8
:1002EE0007081010101C0000E010080848704000AD
:1002FE00101F1101111F100008F8080008F808005F
:10030E000010101F10100000000808F80808000068
:10031E00000010101F10100006020202FC00000068
:10032E00101F11031418100008F808806818080030
:10033E00101F10000000000008F808080808180038
:10034E00101F1E011E1F100008F800F800F808000C
:10035E00101F1C03101F100008F8088070F8000012
:10036E000708101010080700E01008080810E00039
:10037E00101F111111110E0008F8080000000000E6
:10038E000708101010080700E01028281814E400C1
:10039E00101F1111110E000008F8088060180800D7
:1003AE00000E111110101C0000380808888870000B
:1003BE001810101F10101800000008F80800000098
:1003CE00101F1000101F100000F0080808F00000A9
:1003DE00101E1100111E10000000E018E0000000B9
:1003EE00101F001F001F10000080F800F880000092
:1003FE0010181601161810000818688068180800E2
:10040E00101C1300131C1000000008F80800000058
:10041E0000081010131C1000000838C80808180037
:10042E000000007F40404000000000FC0404040077
:10043E0000300C030000000000000080601C020071
:10044E00004040407F00000000040404FC00000057
:10045E0000002040402000000000000000000000CE
:10046E000000000000000000020202020202020070
:10047E0000404020000000000000000000000000CE
:10048E0000010202020100000030488888F80800CE
:10049E00101F01020202010000F808080808F0000F
:1004AE00000001020202010000E01008080810001E
:1004BE000001020202121F0000F008080810F808DE
:1004CE00000102020202010000F088888888900074
:1004DE000002020F12121800000808F808080000A7
:1004EE00000102020203020000AC525252920C00B2
:1004FE00101F01020202010008F808000008F808A7
:10050E0000021A1B00000000000808F8080800008E
:10051E00000000021A1B00000006020202FC00008E
:10052E00101F00000302020008F848806818080037
:10053E000010101F00000000000808F80808000056
:10054E00020302030201000008F800F800F8080098
:10055E00020301020202010008F808000008F80870
:10056E00000001020201000000E010080810E00087
:10057E00020301020202010002FE0A080808F0004E
:10058E00000102020202030000F008080812FE0237
:10059E0002020301020203000808F8080800000026
:1005AE000001020202030000009848484830000093
:1005BE000002020F02020000000000F00808000016
:1005CE00020300000002030000F008080810F808FB
:1005DE0002030200000203020000E01820C0000027
:1005EE00020300030003020000C038C038C0000040
:1005FE000002030002030200000818E8E0180800D9
:10060E0002030200000203020202E21C30C00000DC
:10061E00000302020203020000081868880818008E
:10062E00000000017E40000000000000FC040000FD
:10063E00000000FF00000000000000FE00000000AF
:10064E000000407E01000000000004FC00000000DD
:10065E0000608080402020C00000000000000000EC
:091165000120000121000122001B
:091075007F0112005F7F0A7E007A
:10107E00EF1FAA0670011E4A6015E4FCFDD3ED9425
:0F108E0014EC6480948050E80DBD00010C80EEDE
:01109D002230
:10109E005384F7E4FDAE07EF3392B5C2B4E4FC0C13
:1010AE00BC03FCD2B4E4FC0CBC03FCEE25E0FF0D4B
:0610BE00BD08E2438408B6
:0110C4002209
:1010C500438408E4FDAE07EF3392B5C2B4E4FC0CEB
:1010D500BC03FCD2B4E4FC0CBC03FCEE25E0FF0D24
:0610E500BD08E25384F790
:0110EB0022E2
:0E005F00AE05EFAF06600302109E1210C52220
:100FA60043848012107A53847F12107A438480120D
:100FB600107A7DE27F0112005F7DA37F0112005F40
:100FC6007DA07F0112005F7DC07F0112005F7D263C
:100FD6007F0112005F7F057E0012107E7D2C1210AD
:100FE600757D2E1210757D2F1210757D817F011271
:100FF600005F7D201210757DF87F0112005F7D0174
:101006007F0112005F7F057E0012107E7DAF7F019B
:0310160002005F76
:02111300AB0728
:10111500ED44B0FF12109EEB54F0C4540FFEEB5497
:0E1125000FFBEE4410FF12109EAF0302109E4F
:0A118C001211137DFFE4FF02005F63
:1010EC007BB7AD037F0112005F7D107F0112005FA3
:1010FC00E4FD7F0112005FE4FAE4FF1210C50ABAA6
:06110C0080F71BBBAFDC05
:0111120022BA
:020003008F1D4F
:10000500ED131313541FF51FB5211AE51DB5221560
:10001500ED5407FF7480A807088002C313D8FC4578
:1000250020F51E8011ED5407FF7480A80708800293
:10003500C313D8FCF51EE51F24F9FFE434FFFE12B7
:100045001180AD07AF1D121113AD1EE4FF12005F45
:09005500851E20851F21851D2256
:01005E00227F
:10066E00EF24E0F51BEDC454F0FFC3743F9FF51962
:0A067E00EB75F008A4F51AE4F51876
:10068800E51825E0F51CE518C3940840030207FEA9
:1006980075F010E51BA4247EF582E5F03400F5839F
:1006A800E5822518F582E43583F583E49330E70A7B
:1006B800E51A2518FFAD1912000375F010E51BA403
:1006C800247EF582E5F03400F583E5822518F5826D
:1006D800E43583F583E49330E60CE51A2518FFE545
:1006E8001914FD12000375F010E51BA4247EF58291
:1006F800E5F03400F583E5822518F582E43583F5C5
:1007080083E49330E50DE51A2518FFE51924FEFD6D
:1007180012000375F010E51BA4247EF582E5F03481
:1007280000F583E5822518F582E43583F583E493A3
:1007380030E40DE51A2518FFE51924FDFD12000324
:1007480075F010E51BA4247EF582E5F03400F583EE
:10075800E5822518F582E43583F583E49330E30DCB
:10076800E51A2518FFE51924FCFD12000375F010A1
:10077800E51BA4247EF582E5F03400F583E58225A7
:1007880018F582E43583F583E49330E20DE51A2504
:1007980018FFE51924FBFD12000375F010E51BA4F2
:1007A800247EF582E5F03400F583E5822518F5828C
:1007B800E43583F583E49330E10DE51A2518FFE568
:1007C8001924FAFD12000375F010E51BA4247EF528
:1007D80082E5F03400F583E5822518F582E4358357
:1007E800F583E49320E003020976E51A2518FFE56E
:1007F8001924F902097275F010E51BA4247EF5820C
:10080800E5F03400F583E5822518F582E43583F5B3
:1008180083E49330E70FE51A251824F8FFE5192437
:10082800F8FD12000375F010E51BA4247EF582E59F
:10083800F03400F583E5822518F582E43583F583E5
:10084800E49330E60FE51A251824F8FFE51924F794
:10085800FD12000375F010E51BA4247EF582E5F077
:100868003400F583E5822518F582E43583F583E4C1
:100878009330E50FE51A251824F8FFE51924F6FD4D
:1008880012000375F010E51BA4247EF582E5F03410
:1008980000F583E5822518F582E43583F583E49332
:1008A80030E40FE51A251824F8FFE51924F5FD12A0
:1008B800000375F010E51BA4247EF582E5F03400F2
:1008C800F583E5822518F582E43583F583E49330D2
:1008D800E30FE51A251824F8FFE51924F4FD1200A2
:1008E8000375F010E51BA4247EF582E5F03400F5CD
:1008F80083E5822518F582E43583F583E49330E2B5
:100908000FE51A251824F8FFE51924F3FD12000352
:1009180075F010E51BA4247EF582E5F03400F5831C
:10092800E5822518F582E43583F583E49330E10FF9
:10093800E51A251824F8FFE51924F2FD12000375BD
:10094800F010E51BA4247EF582E5F03400F583E57C
:10095800822518F582E43583F583E49330E00FE5CA
:0E0968001A251824F8FFE51924F1FD120003EA
:0C0976000518E518C39410500302068811
:010982002252
:060DED008B0C8A0D890E3B
:100DF300E4F511F512F513F514EDC454F02510F5CF
:100E030017D3943F507AED94035075E510940F4037
:100E130002806DE5124511706FAB0CAA0DA90E127D
:100E23000D38605C7E00E5142517FBEE3513FA7C64
:100E3300007D10AF03FE120DA68F157C007D10AF51
:100E430003AE02120DA68D16AB0CAA0D120D38FFC0
:100E5300AB16AD1512066E7401250EF50EE4350DB5
:100E6300F50D0514E514700205137E002517FFEE3A
:100E73003513FED3EF943FEE648094804095800059
:080E8300751100751201808B4E
:010E8B002244
:1010190050726F6A6563742D3100332E372D2D336D
:101029002E3134007072657373207468652062759F
:1010390074746F6E002D2D2D2D2D2D2D2D2D2D2DF3
:101049002D2D2D2D2D0030313233343536373839A9
:10105900006162636465666768696A6B6C6D6E6F6F
:0C106900707172737475767778797A0074
:0A11960075FFDE75FFAD75EF042252
:0D117300758E207591067592A07593FF2270
:04006D0075E884228C
:0711A00075D48875D7802289
:0400760075D103221B
:0711A70075A73075E340223B
:10113300E4FFFE75B1670FBF00010EBE0BF8BFB829
:09114300F5E5B130E7FB75B208D7
:01114C002280
:0711AE0075A88075E703221C
:10114D0012119612117312006D1211A01200761267
:08115D0011A71211330211AEBB
:10098300E4F508F509F50AF50B12114DE4F50AF53E
:100993000BE50B25E0FFE50A33FE74002FF58274A7
:1009A300003EF583E4F0A3F0050BE50B7002050AA6
:1009B300B4E8DEE50AB403D9120FA61210EC7DA742
:1009C3007F0112005F7BFF7A1079197510047D0196
:1009D300120DED7BFF7A1079237510047D02120D41
:1009E300EDE4F50AF50B7F647E0012107E050BE53E
:1009F3000B7002050AC394FFE50A940040E87DA644
:100A03007F0112005F1210EC7BFF7A10792DE4F561
:100A1300107D01120DED7BFF7A10793EE4F5107D18
:100A230002120DED120B898F08E50860DB24FE60CE
:100A330036146053147003020ADB147003020B367E
:100A430024046003020B831210ECE4F5097BFF7AA4
:100A530010794FE4F510FD120DED120B898F09E5A6
:100A630009B409E9020B801210ECE4F5097BFF7A63
:100A730010795AE4F510FD120DED120B898F09E57B
:100A830009B409E9020B801210ECE4F509E4F50A54
:100A9300F50BAD0BAF05120003050BE50B7002055B
:100AA3000AC39440E50A940040E8750A00750B40B8
:100AB300AF0BC3747F9FFD120003050BE50B7002A0
:100AC300050AC3947FE50A940040E5120B898F0958
:100AD300E509B409B8020B801210ECE4F509E4F55A
:100AE3000AF50BAF0BC007AE0A7C007D64120D51F3
:100AF300ED25E0FFEC33FE74702FF582740C3EF5A8
:100B030083E493FE7401937806CEC313CE13D8F90E
:100B1300FDD007120003050BE50B7002050AC39411
:100B230080E50A940040BC120B898F09E509B409DA
:100B3300AD804A1210ECE4F509E4F50AF50BAF0BAE
:100B43007D1F120003050BE50B7002050AC3947F9A
:100B5300E50A940040E8E4F50AF50BAD0B7F3F127C
:100B63000003050BE50B7002050AC39440E50A94E4
:100B73000040E8120B898F09E509B409BC1210EC97
:060B8300E4F508020A0B74
:100C700008000882090309840A020A7F0AF90B7036
:100C80000BE40C530CBE0D240D850DE00E360E84C6
:100C90000ECC0F0D0F470F790FA40FC60FE10FF306
:100CA0000FFE0FFF0FFA0FEB0FD50FB60F8F0F616F
:100CB0000F2B0EEE0EA90E5E0E0C0DB40D560CF29F
:100CC0000C890C1C0BAA0B350ABC0A4109C3094448
:100CD00008C3084107BF073D06BC063D05BF0544E4
:100CE00004CB045603E40377030E02AA024C01F47A
:100CF00001A20157011200D5009F0071004A002B8C
:100D00000015000600000002000D001F003A005C04
:100D1000008700B900F30134017C01CA0220027B84
:100D200002DC034203AD041C04900507058105FEA7
:080D3000067C06FD077E0800A9
:04116E000223000058
:030073000211B5C2
:0411B50053917F32A1
:03007B00020E8CE6
:100E8C00C0E0C0F0C083C082C0D075D000C000C02C
:100E9C0004C005C006C007C2ED85BED285BFD30510
:100EAC0024E52470020523D394E7E523648094831E
:100EBC004006752300752400E52425E0FFE5233367
:100ECC00FE74002FF58274003EF583E5BFF0A3E5B8
:100EDC00BEF0AE23AF247C007D0A120DA6EF25E0F8
:100EEC00FFEE33FE74702FF582740C3EF583E493A1
:100EFC00FE740193F5D5EEF5D6D007D006D005D00B
:0E0F0C0004D000D0D0D082D083D0F0D0E0321C
:03000000020F1AD2
:0C0F1A00787FE4F6D8FD758124020F6199
:100D3800BB010689828A83E0225002E722BBFE02B9
:090D4800E32289828A83E49322EC
:100D5100BC000BBE0029EF8DF084FFADF022E4CC86
:100D6100F875F008EF2FFFEE33FEEC33FCEE9DEC4F
:100D7100984005FCEE9DFE0FD5F0E9E4CEFD22ED95
:100D8100F8F5F0EE8420D21CFEADF075F008EF2FDF
:100D9100FFED33FD4007985006D5F0F222C398FDD0
:050DA1000FD5F0EA226D
:100DA600C2D5EC30E709B2D5E4C39DFDE49CFCEE68
:100DB60030E715B2D5E4C39FFFE49EFE120D51C382
:100DC600E49DFDE49CFC8003120D5130D507C3E47D
:060DD6009FFFE49EFE22D7
:100DDC00EB9FF5F0EA9E42F0E99D42F0E89C45F06D
:010DEC0022E4
:0C118000EE30E707C3E49FFFE49EFE2270
:100F2600020983E493A3F8E493A34003F68001F255
:100F360008DFF48029E493A3F85407240CC8C333CC
:100F4600C4540F4420C8834004F456800146F6DF9B
:100F5600E4800B0102040810204080901165E47EB5
:100F6600019360BCA3FF543F30E509541FFEE49390
:100F7600A360010ECF54C025E060A840B8E493A357
:100F8600FAE493A3F8E493A3C8C582C8CAC583CA82
:100F9600F0A3C8C582C8CAC583CADFE9DEE780BE3A
:01117200007C
:00000001FF
