:020000040800F2
:1000000040080020D95A00085D0200085F0200087D
:1000100063020008670200086B020008000000008D
:100020000000000000000000000000006F02000857
:100030007102000800000000730200087502000849
:10004000F35A0008F35A0008F35A0008F35A00085C
:10005000F35A0008F35A0008F35A0008F35A00084C
:1000600091050008A1050008B1050008F35A000831
:10007000F35A0008F35A0008F35A0008F35A00082C
:10008000F35A0008F35A0008F35A0008F35A00081C
:10009000F35A0008F35A0008F35A0008F35A00080C
:1000A000F35A0008F35A0008F35A0008F35A0008FC
:1000B000F35A00088705000839580008F35A000869
:1000C000F35A0008F35A0008F35A0008F35A0008DC
:1000D000F35A00084F5A0008F35A0008F35A000870
:1000E000F35A0008F35A0008F35A0008F35A0008BC
:1000F000F35A0008F35A0008F35A0008F35A0008AC
:10010000F35A0008F35A0008F35A0008F35A00089B
:10011000F35A0008F35A0008F35A0008F35A00088B
:10012000F35A0008F35A0008F35A0008F35A00087B
:10013000F35A0008F35A0008F35A0008F35A00086B
:10014000F35A0008F35A0008F35A0008F35A00085B
:10015000F35A0008F35A0008F35A0008F35A00084B
:10016000F35A0008F35A0008F35A0008F35A00083B
:10017000F35A0008F35A0008F35A0008F35A00082B
:10018000F35A0008F35A000800F002F800F041F8B2
:100190000AA090E8000C82448344AAF10107DA45E2
:1001A00001D100F036F8AFF2090EBAE80F0013F0F3
:1001B000010F18BFFB1A43F001031847BC98000059
:1001C000DC980000103A24BF78C878C1FAD85207EA
:1001D00024BF30C830C144BF04680C6070470000C1
:1001E0000023002400250026103A28BF78C1FBD840
:1001F000520728BF30C148BF0B607047782907F00D
:10020000E785002070471FB508F02EF81FBD10B518
:1002100010BD07F0BBFE1146FFF7F5FF00F008F830
:1002200007F0D9FE03B4FFF7F2FF03BC05F0B0FB03
:1002300008B54FF41671002005F066FA00900648E4
:1002400000990160A82005F021FB03480068009098
:1002500005F07BFA00BFFEE746000020704700BFB4
:10026000FEE700BFFEE700BFFEE700BFFEE7704706
:1002700070477047704700000CB500200190009057
:100280007648006840F480307449086000BF7348C5
:10029000006800F4003000900198401C0190009824
:1002A00018B90198B0F5A04FF1D16C48006800F47E
:1002B000003010B10120009001E000200090009873
:1002C000012846D165484030006840F080506349BD
:1002D000403108606248006840F44040604908606E
:1002E0005E48083000685D490831086008460068CB
:1002F00040F4004008600846006840F4A0500860E0
:100300005848091F0860081F006840F08070091FE6
:10031000086000BF5148006800F000700028F9D064
:1003200040F20570504908604C480830006820F0E1
:1003300003004A49083108600846006840F002009E
:10034000086000BF45480830006800F00C0008282D
:10035000F8D10CBD10B54548006840F47000434921
:1003600008603E48006840F001003C4908600020F9
:100370003A4908310860394800683D490840374922
:1003800008603C48091D0860081F006820F48020B0
:10039000091F0860002031490C310860FFF76CFF2D
:1003A0004FF0006031498039086010BD70B5002001
:1003B0000022022300240221284D08352D6805F073
:1003C0000C0020B1042806D0082834D107E02A4DBB
:1003D0002A4E356033E02A4D284E35602FE01F4D00
:1003E0002D1D2D68C5F380541C4D2D1D2D6805F065
:1003F0003F0154B1224DB5FBF1F5184E361D36685C
:10040000C6F3881605FB06F209E01B4DB5FBF1F5B6
:10041000124E361D3668C6F3881605FB06F20F4DE0
:100420002D1D2D68C5F301456D1C6B00B2FBF3F566
:10043000124E356003E0104D104E356000BF00BF16
:10044000064D08352D68C5F303150E4E705D0B4D36
:100450002D68C540094E356070BD0000003802406F
:100460000070004008544007003C024088ED00E066
:10047000FFFFF6FE103000240024F40000000020EE
:1004800000127A00040000207FB505460C460121C9
:10049000022005F01EFF0295ADF804400020ADF8E3
:1004A0000600ADF80C0001A9374806F014F9012246
:1004B0001146354806F0B0FD0121334806F094F9A5
:1004C0001D208DF8000001208DF8010003208DF81B
:1004D000020001208DF80300684605F022FB7FBD75
:1004E00010B50121084605F0F4FE0121084605F08B
:1004F000A7FE10BD1CB501221146244805F08DFC55
:10050000022000908DF8040000208DF806000220E3
:100510008DF8050001208DF8070069461B4805F09D
:10052000F1FB1CBD30B589B005460C460795ADF80A
:1005300018400020ADF8200006A94FF0804006F0DA
:10054000CAF801222146900706F002F96020ADF8B2
:1005500004000120ADF806000220ADF81000FA20DA
:10056000039001A9400706F084F90821C80606F0A7
:10057000DDFA0121880706F019F90121880706F044
:1005800033F909B030BD704700040040000002405C
:1005900010B5642005F0DCF9042007F0EAF810BD7E
:1005A00010B5642005F0D4F9082007F0E2F810BD7A
:1005B00010B50A2005F0CCF9102007F0DAF810BDCC
:1005C00010B50A2005F0C4F9202007F0D2F810BDBC
:1005D0000EB500F04FF80121880305F08BFE0221D3
:1005E000062005F092FF0321062005F08EFF04216E
:1005F000062005F08AFF0521062005F086FF3C2035
:10060000009000208DF804000C208DF805000120DA
:100610008DF80600684607F03BF808208DF80800C2
:1006200003208DF8090002208DF80A0001208DF8C2
:100630000B0002A805F075FA09208DF808000220C9
:100640008DF809008DF80A0001208DF80B0002A832
:1006500005F067FA0A208DF8080001208DF80900DE
:1006600002208DF80A0001208DF80B0002A805F089
:1006700058FA0EBD1CB50121402005F0E1FD3C20DB
:10068000009000208DF804008DF8060003208DF8FE
:10069000050001208DF8070069465D4805F032FB32
:1006A0001CBD10B504465B480068401C59490860F1
:1006B00008460068C0EB0010400000F1FA014FF05E
:1006C000804006F0F8F910BD10B5044651480068A6
:1006D000401E5049086008460068C0EB001040000A
:1006E00000F1FA014FF0804006F0E5F910BD1CB5AD
:1006F000044649A018210B46D222CDE900106E21F4
:100700001E2004F0CEFF18200090444802680068C4
:10071000401C424B186002236E21322004F009FF76
:100720001CBD1CB504463EA018210B46D222CDE9C3
:10073000001050211E2004F0B4FF1820009039480A
:1007400002680068401C374B186002235021322099
:1007500004F0EFFE42F6DF6141F65730FFF794FEFA
:100760001CBD31480068C0B270472F48001F0068A8
:10077000C0B270472C4808380068C0B270472A4899
:100780000C380068C0B270472DE9F041AFF2110497
:10079000AFF21F05AFF22D06AFF239070022214656
:1007A000224800F04BF800222946214800F046F884
:1007B000002231461F4800F041F8002239461E4809
:1007C00000F03CF8AFF2A5020021184800F04FF805
:1007D000AFF2E5020021164800F049F8AFF2171217
:1007E0000021144800F043F8AFF2491200211248EA
:1007F00000F03DF80D4800F058F90D4800F055F9AB
:100800000C4800F052F90C4800F04FF9BDE8F081B7
:100810000018024024000020623D20001800002043
:10082000613D2000140000201402434268000020B3
:1008300090000020B8000020E000002070B50446C1
:100840000D4616462821204607F0EEFAA07820F043
:10085000F0008030A070656060688047E17860F3E8
:10086000C711E170E07866F38610E07070BD00F1AA
:10087000080343F821207047014688780009704733
:1008800070B50446606880470546E07800F00700D0
:10089000002802DD2088401C2080E078B5EBD01FC6
:1008A00013D0E078C008401CE17860F3C501E17026
:1008B000C1F3C20003280CDBE07865F3C710E070D9
:1008C000E07820F03800E07003E0E07820F03800B5
:1008D000E070E07800F00700062826D2DFE800F09C
:1008E000032652A1E3C2E078C0F38010E178B0EBB8
:1008F000D11F15D1A07820F0F000A070A06810B131
:100900002046A168884700202080A07820F00F00B2
:10091000401CA070E07820F00700401CE07004E06C
:10092000A07820F0F0008030A070BCE0E078C0F348
:100930008010E178B0EBD11F11D0A07820F0F0004A
:100940001030A070E06810B12046E16888470020B0
:100950002080E07820F00700801CE07011E0208803
:1009600064280EDDA07820F0F0005030A070E0691F
:1009700010B12046E1698847E07820F00700401D6B
:10098000E07090E0E078C0F38010E178B0EBD11F28
:1009900025D1A07820F0F000A070A06810B120460A
:1009A000A1688847A078401CA17860F30301A1707A
:1009B000A07800F00F00022804D1A06910B12046F1
:1009C000A1698847206910B1204621698847002025
:1009D0002080E07820F00700C01CE07020E0208834
:1009E0003C281DDDA07800F00F0001280AD1A07876
:1009F00020F0F0003030A070606968B12046616975
:100A0000884709E0A07800F00F00022804D1A07800
:100A100020F0F0004030A070E07820F00700E07097
:100A200041E0E078C0F38010E178B0EBD11F18D03E
:100A3000A07820F0F0001030A070E06810B12046DF
:100A4000E168884720883C2807DA00202080E07889
:100A500020F00700801CE07003E0E07820F0070041
:100A6000E07020E0E078C0F38010E178B0EBD11FB7
:100A70000AD1A07820F0F0006030A070206A88B120
:100A80002046216A88470DE0A07820F0F000103061
:100A9000A070E06810B12046E1688847E07820F057
:100AA0000700E07000BF00BF70BD01461648026835
:100AB00005E08A4202D14FF0FF307047526A002AA7
:100AC000F7D11148006848620F4801600020F4E740
:100AD00002460D4808E00168914202D14B6A03606A
:100AE00001E001F1240000BF01680029F3D1704743
:100AF00010B50548046803E02046FFF7C1FE646AAC
:100B0000002CF9D110BD00002800002001B5BDF86F
:100B100000000090BDF80000F749088008BD01B54D
:100B2000BDF800000090BDF80000F349891C088062
:100B300008BD08B5F048801C00880090BDF8000092
:100B400008BDED4A1080921C1180704710B5044614
:100B50002046FFF7DBFF052004F0B2FEFFF7E9FFB8
:100B600010BDE6480089E44908807047E249891CC5
:100B70000880704730B5014601F01F04C1F34513EA
:100B8000CA0AE50205EB43151544A8B230BD00BF03
:100B90000100A0F10102D0B2FAD1704730B504468D
:100BA0000D46D648808849F24131884205D0D34865
:100BB000808845F21031884214D1D0494889FFF726
:100BC000A5FF2012FFF7ABFFE0B2FFF7A8FFCB496C
:100BD0008889FFF79BFF2812FFF7A1FFE8B2FFF714
:100BE0009EFFABE0C548808846F6040188421DD1CF
:100BF000C2488079012804D1C0480088401E001BEB
:100C000084B2BE494889FFF781FF2012FFF787FFB2
:100C1000E0B2FFF784FFB9498889FFF777FF281210
:100C2000FFF77DFFE8B2FFF77AFF87E0B3488088DF
:100C300041F66311884247D1B0488079A8B9AF48DE
:100C40000088401E001B84B2AC494889FFF75EFF54
:100C50000020FFF764FF0020FFF761FF2012FFF77D
:100C60005EFFE0B2FFF75BFF16E0A4494889FFF79B
:100C70004DFF2012FFF753FFE0B2FFF750FF9F49EF
:100C80000988491EC1F30F20FFF749FF9B490978E6
:100C9000491EC8B2FFF743FF98498889FFF736FF1E
:100CA0002812FFF73CFFE8B2FFF739FF9349498864
:100CB000491EC1F30F20FFF732FF90498978491E82
:100CC000C8B2FFF72CFF39E08C48808845F21051FC
:100CD000884220D189494889FFF718FF2012FFF781
:100CE0001EFF86494989491C88B2FFF70FFFE0B211
:100CF000FFF715FF81498889FFF708FF2812FFF7E2
:100D00000EFF7E498989491C88B2FFF7FFFEE8B2D1
:100D1000FFF705FF12E079488079012804D1774870
:100D20000088401E001B84B2744948892146FFF7A1
:100D300008FF724988892946FFF703FF30BD2DE976
:100D4000F04105460E4600240027A0466B48008867
:100D5000A84203DD69484088B04202DC0020BDE8BB
:100D6000F08131462846FFF719FF6448808849F230
:100D70004131884211D06148808846F6040188429A
:100D80000BD05E48808845F21031884205D05B4820
:100D9000808841F66311884203D12E20FFF7B6FE0A
:100DA0000DE05648808845F21051884204D14FF436
:100DB0003850FFF7ABFE02E02220FFF7A7FE4F48B6
:100DC000808849F22031884202D10220FFF7DFFEFD
:100DD000FFF7AFFE04464948808841F66311884218
:100DE00001D12046BBE70220FFF7D1FEFFF7A1FEAD
:100DF00004464248808849F2413188420BD03F483E
:100E0000808845F21031884205D03C48808845F200
:100E1000105188420AD10220FFF7B9FEFFF789FE80
:100E20008046E7B24FF6FF7000EA07273348808814
:100E300049F22531884216D03048808844F2355135
:100E4000884210D02D488088091F88420BD02B483B
:100E500080884BF20551884205D0284880884CF2A2
:100E60000551884201D1204679E72448808849F21B
:100E7000413188420BD02148808845F210318842A8
:100E800005D01E48808845F21051884207D1E012F3
:100E9000C002B91240EA411040EAE8205FE720466C
:100EA000FFF768FE5BE700B51448808849F24131DE
:100EB000884211D01148808846F6040188420BD040
:100EC0000E48808845F21031884205D00B48808852
:100ED00041F66311884203D12920FFF717FE14E081
:100EE0000648808845F21051884209D14FF42450B9
:100EF000FFF70CFE09E00000FEFF0760080100207C
:100F000040F273110720FFF71CFE00BD00B5FD483D
:100F1000808849F24131884211D0FA48808846F6EB
:100F2000040188420BD0F748808845F2103188428E
:100F300005D0F448808841F66311884203D1282007
:100F4000FFF7E4FD0EE0EF48808845F2105188423B
:100F500004D14FF42050FFF7D9FD03E00021072012
:100F6000FFF7EFFD00BDF0B5054600240027E5487A
:100F7000807901280BD1E348808846F60401884235
:100F800005D0E048808841F66311884208D1DD48E9
:100F90008079F0B9DB48808841F66311884218D126
:100FA000082D15D2DFE805F00406080A0C0E101211
:100FB00006250DE007250BE0042509E0052507E0DF
:100FC000012505E0002503E0032501E0022500BF1F
:100FD00000BFCC48808849F24131884217D0C948C7
:100FE000808846F60401884211D0C648808845F2C0
:100FF000103188420BD0C348808845F21051884296
:1010000005D0C048808841F6631188427ED1082D02
:101010001CD2DFE805F00406090C0F12151800BFFA
:1010200014E044F0800411E044F040040EE044F089
:10103000C0040BE044F0200408E044F0600405E044
:1010400044F0A00402E044F0E00400BF00BFAD485B
:10105000808845F21051884202D14FF4585700E081
:101060003627A848808845F2103188420DD0A5481F
:10107000808845F21051884207D0A248808841F606
:101080006311884201D044F008049E48808846F6E7
:101090000401884201D144F0020421463846FFF79A
:1010A00050FD9848808841F6631188421DD004F0B5
:1010B000200068B19348008892494988884214DA30
:1010C0009048068840888F490880084646800CE092
:1010D0008C4800888B494988884206DD8948068803
:1010E000408888490880084646808648808845F2BE
:1010F0001051884254D183494889FFF707FD0020E9
:10110000FFF70DFD7F494989491C00E077E088B26F
:10111000FFF7FCFC0020FFF702FD7A494989891C92
:1011200088B2FFF7F3FC77490988491EC1F30F2005
:10113000FFF7F5FC73494989C91C88B2FFF7E6FC43
:1011400070490978491EC8B2FFF7E9FC6D498889E2
:10115000FFF7DCFC0020FFF7E2FC6A498989491CA3
:1011600088B2FFF7D3FC0020FFF7D9FC65498989D5
:10117000891C88B2FFF7CAFC62494988491EC1F33D
:101180000F20FFF7CCFC5F498989C91C88B2FFF7A3
:10119000BDFC5C498978491EC8B2FFF7C0FC55E028
:1011A00058494889FFF7B2FC0020FFF7B8FC00203F
:1011B000FFF7B5FC53490988491EC1F30F20FFF71B
:1011C000AEFC50490978491EC8B2FFF7A8FC4D494A
:1011D0008889FFF79BFC0020FFF7A1FC0020FFF7A8
:1011E0009EFC48494988491EC1F30F20FFF797FC30
:1011F00044498978491EC8B2FFF791FC26E0082DC2
:101200001CD2DFE805F004070A0D0F12151844F090
:10121000300413E044F0100410E044F020040DE02A
:1012200000BF0BE044F0380408E044F0280405E077
:1012300044F0180402E044F0080400BF00BF032794
:1012400044F4805421463846FFF77BFCF0BD30B5AE
:1012500004460D4629462046FFF7A0FCFFF781FC17
:10126000294800882949088030BD70B504460D46DC
:1012700016462448808849F24131884205D02148E9
:10128000808845F21031884214D11E494889FFF701
:101290003DFC2012FFF743FCE0B2FFF740FC194988
:1012A0008889FFF733FC2812FFF739FCE8B2FFF713
:1012B00036FC93E01348808845F21051884227D1CC
:1012C00010494889FFF722FC2012FFF728FC0D493E
:1012D0004989491C88B2FFF719FCE0B2FFF71FFCEF
:1012E00008498889FFF712FC2812FFF718FC054906
:1012F0008989491C88B2FFF709FCE8B2FFF70FFCA7
:101300006CE00000080100202C00002000000860B4
:10131000FE48808841F66311884228D1FB488079D5
:1013200020B9FA480088401E001B84B2F74948895A
:10133000FFF7ECFB2012FFF7F2FBE0B2FFF7EFFB49
:101340002012FFF7ECFBE0B2FFF7E9FBEF498889D9
:10135000FFF7DCFB2812FFF7E2FBE8B2FFF7DFFB49
:101360002812FFF7DCFBE8B2FFF7D9FB36E0E748CD
:10137000808846F6040188421DD1E448807901281E
:1013800004D1E2480088401E001B84B2DF4948892E
:10139000FFF7BCFB2012FFF7C2FBE0B2FFF7BFFB79
:1013A000DA498889FFF7B2FB2812FFF7B8FBE8B2E9
:1013B000FFF7B5FB12E0D5488079012804D1D34866
:1013C0000088401E001B84B2D04948892146FFF79F
:1013D000B8FBCE4988892946FFF7B3FBCB48008983
:1013E000CB490880881C068070BD70B52DED048B3C
:1013F0000446BE20FFF78AFB0520FFF790FB20463E
:1014000006F021FE41EC190B9FEDC20B53EC102BA3
:1014100006F02CFE41EC180B06F0E8FD85B22846DC
:10142000FFF77DFB0120FFF77AFBFF20FFF777FB3B
:101430000020FFF774FB0020FFF771FBBDEC048B6D
:1014400070BD10B50446002C66D1B0498871F020FB
:1014500008804FF4A07048800846808849F24131E6
:1014600088420BD0A948808846F60401884205D0FE
:10147000A648808845F2103188421AD12C20A34911
:1014800008812A2048812B2088810846808846F6DA
:101490000401884205D09D48808845F21031884279
:1014A00006D14FF4A070994908804FF4F07048803D
:1014B000A1E09648808845F21051884210D14FF43F
:1014C0003050924908814FF4285048814FF42C50F5
:1014D00088814FF4F07008804FF4487048808AE0AB
:1014E0008A48808841F6631188420DD12C208749B3
:1014F00008812B2048812A2088814FF4F0700880D1
:101500004FF44870488076E02220804908812020EE
:101510004881212088816EE001207C4988714FF448
:10152000A0700880F02048800846808849F2413148
:10153000884205D07548808845F21031884207D12D
:101540002C20724908812A2048812B2088813FE085
:101550006E48808846F60401884207D12C206B49EA
:1015600008812B2048812A20888131E067488088C3
:1015700045F21051884210D14FF430506349088130
:101580004FF4285048814FF42C5088814FF4487014
:1015900008804FF4F07048801AE05C48808841F67B
:1015A000631188420DD12C20584908812A20488196
:1015B0002B2088814FF4487008804FF4F0704880E9
:1015C00006E022205149088121204881202088817D
:1015D0004E48808846F60401884205D04B488088F2
:1015E00045F21031884206D14FF4F0704749088027
:1015F0004FF4A07048800020FFF7B5FC10BD2DE926
:10160000F04F86B004460D469046994604EB08001C
:10161000401E86B205EB0900401E87B23B48808819
:1016200049F24131884215D03848808845F210315E
:1016300088420FD03548808846F60401884209D098
:1016400032488079012826D13048808841F66311DC
:10165000884220D12D494889FFF758FA2012FFF718
:101660005EFAE0B2FFF75BFA3012FFF758FAF0B219
:10167000FFF755FA25498889FFF748FA2812FFF73E
:101680004EFAE8B2FFF74BFA3812FFF748FAF8B211
:10169000FFF745FAC0E01D48808841F66311884293
:1016A0003CD11A480088A0EB0800001B84B205EB6F
:1016B0000900401E1FFA80F914494889FFF726FAED
:1016C0002012FFF72CFAE0B2FFF729FA04EB080129
:1016D000491EC1F30F20FFF722FA04EB0801491E4F
:1016E000C8B2FFF71CFA09498889FFF70FFA2812D8
:1016F000FFF715FAE8B2FFF712FA4FEA2920FFF7D1
:101700000EFA09F0FF00FFF70AFA85E00801002051
:10171000FEFF07606666666666660440FE4880886F
:1017200045F21051884244D1FB494889FFF7EEF950
:101730002012FFF7F4F9F8494989491C88B2FFF7EC
:10174000E5F9E0B2FFF7EBF9F3494989891C88B262
:10175000FFF7DCF93012FFF7E2F9EF494989C91CBC
:1017600088B2FFF7D3F9F0B2FFF7D9F9EA498889CF
:10177000FFF7CCF92812FFF7D2F9E7498989491C0C
:1017800088B2FFF7C3F9E8B2FFF7C9F9E2498989DE
:10179000891C88B2FFF7BAF93812FFF7C0F9DE49A1
:1017A0008989C91C88B2FFF7B1F9F8B2FFF7B7F918
:1017B00032E0D948807901280ED1AA46BB46D648E6
:1017C0000088801B401E80B20190D3480088001B17
:1017D000401E80B2009003E0A246B34601950097F8
:1017E00050200590512004905220039053200290E5
:1017F00051460598FFF7A5F959460498FFF7A1F956
:1018000001990398FFF79DF900990298FFF799F95C
:1018100029462046FFF7C2F906B0BDE8F08F70B543
:1018200004460026BC48058840884543BA4880885D
:1018300046F60401884216D1B7488079012812D1B2
:101840000020B54988712A2048812B2088810021F9
:101850000846FFF7A3F90120AF4988712B20488182
:101860002A20888103E000210846FFF797F9FFF757
:1018700078F9002602E0A9480480761CAE42FAD32B
:1018800070BD00B5A1B00020209001217A2004F0A5
:10189000D7FC0121084604F00BFD4EF2B3701E90F8
:1018A00002208DF87C0000208DF87E0003208DF84A
:1018B0007D0001208DF87F001EA9994804F022FACE
:1018C0004FF680701E9002208DF87C0000208DF86D
:1018D0007E0003208DF87D0001208DF87F001EA979
:1018E000904804F00FFA0C2200218D4804F095FA7C
:1018F0000C2201218A4804F090FA0C220421884825
:1019000004F08BFA0C220521854804F086FA0C229B
:101910000721834804F081FA0C220821804804F052
:101920007CFA0C2209217E4804F077FA0C220A2165
:101930007B4804F072FA0C220D21794804F06DFA0C
:101940000C220E21764804F068FA0C220F2174480C
:1019500004F063FA0C220721724804F05EFA0C22AC
:101960000821704804F059FA0C2209216D4804F04E
:1019700054FA0C220A216B4804F04FFA0C220B2176
:10198000684804F04AFA0C221146664804F045FA09
:101990000C220D21634804F040FA0C220E2161480C
:1019A00004F03BFA0C220F215E4804F036FA0F20B7
:1019B0000890002009903C200A9000200B900C9089
:1019C0000D900E90092001900020029008200390B5
:1019D0000020049005900690079006200F900020AC
:1019E00010901190102012900020139015901490D8
:1019F000169017904FF480501890002019904FF4D3
:101A000080401A9000201B9008A81C9001A81D90EF
:101A10000FA805F0D2FE0121062005F059FF322063
:101A200003F096FF01210020FFF78BF8322003F02E
:101A30008FFF0020FFF78AF83749888008468088A2
:101A4000FF280ADB084680884FF6FF71884204D0E1
:101A500031488088B0F5134F5DD1D320FFF756F899
:101A6000FFF767F82C498880FFF763F82A498880D8
:101A7000FFF75FF828498880084680884FF6FF7195
:101A800001EA002024498880FFF753F82249898819
:101A90000843214988800846808849F241318842BC
:101AA00039D0BF20FFF732F8FFF743F81A49888092
:101AB000FFF73FF818498880FFF73BF81649888000
:101AC000FFF737F814498880084680884FF6FF7181
:101AD00001EA002010498880FFF72BF80E49898819
:101AE00008430D4988800846808846F604018842EC
:101AF00011D0D420FFF70AF8FFF71BF806498880B9
:101B0000FFF717F804498880FFF713F80249888027
:101B10000846808808E06FE00801002000000860A7
:101B2000000C0240001002404FF6FF7101EA002055
:101B3000FE498880FEF7FDFFFC4989880843FB4980
:101B400088800846808845F21031884254D04FF48E
:101B50005A40FEF7DBFFFEF7ECFFF44988804FF4B4
:101B60005B40FEF7D3FFFEF7E4FFF04988800846AC
:101B700080884FF6FF7101EA0020EC4988804FF41D
:101B80005C40FEF7C3FFFEF7D4FFE84989880843AD
:101B9000E649888008468088B0F5004F02D145F2BA
:101BA00010508880E148808845F21051884223D047
:101BB000A120FEF7ABFFFEF7BCFFDC498880FEF7F3
:101BC000B8FFDA498880084680884FF6FF7101EA3D
:101BD0000020D6498880FEF7ACFFD44989880843A5
:101BE000D24988800846808845F26171884203D1D5
:101BF00041F66310CD498880CC48808849F2413154
:101C0000884211D0C948808845F2103188420BD0F3
:101C1000C648808845F21051884205D0C348808864
:101C200041F6631188421DD1C148006820F00F00C1
:101C30004FF02041C1F81C010846D0F81C0120F4E7
:101C40007060C1F81C010846D0F81C0140F0030088
:101C5000C1F81C010846D0F81C0140F40070C1F81E
:101C60001C0128E0B148808846F60401884205D06E
:101C7000AE4880884CF2055188421CD1AC480068BF
:101C800020F00F004FF02041C1F81C010846D0F8A9
:101C90001C0120F47060C1F81C010846D0F81C013A
:101CA00040F00A00C1F81C010846D0F81C0140F4BD
:101CB0004060C1F81C019D4881889EA006F048F84C
:101CC0009A48808849F2413188427CD1CF20FEF782
:101CD0001DFF0020FEF723FFC120FEF720FF30206C
:101CE000FEF71DFFED20FEF711FF6420FEF717FF42
:101CF0000320FEF714FF1220FEF711FF8120FEF7EC
:101D00000EFFE820FEF702FF8520FEF708FF1020F7
:101D1000FEF705FF7A20FEF702FFCB20FEF7F6FE66
:101D20003920FEF7FCFE2C20FEF7F9FE0020FEF71E
:101D3000F6FE3420FEF7F3FE0220FEF7F0FEF72059
:101D4000FEF7E4FE2020FEF7EAFEEA20FEF7DEFEC4
:101D50000020FEF7E4FE0020FEF7E1FEC020FEF7C3
:101D6000D5FE1B20FEF7DBFEC120FEF7CFFE0120D3
:101D7000FEF7D5FEC520FEF7C9FE3020FEF7CFFEE8
:101D80003020FEF7CCFEC720FEF7C0FEB720FEF7DE
:101D9000C6FE3620FEF7BAFE4820FEF7C0FE3A2007
:101DA000FEF7B4FE5520FEF7BAFEB120FEF7AEFEF8
:101DB0000020FEF7B4FE1A20FEF7B1FEB620FEF7B3
:101DC000A5FE0A2000E099E0FEF7A9FEA220FEF79A
:101DD000A6FEF220FEF79AFE0020FEF7A0FE2620C7
:101DE000FEF794FE0120FEF79AFEE020FEF78EFE3D
:101DF0000F20FEF794FE2A20FEF791FE2820FEF722
:101E00008EFE0820FEF78BFE0E20FEF788FE0820CF
:101E1000FEF785FE5420FEF782FEA920FEF77FFE26
:101E20004320FEF77CFE0A20FEF779FE0F20FEF726
:101E300076FE0020FEF773FE0020FEF770FE002005
:101E4000FEF76DFE0020FEF76AFEE120FEF75EFE63
:101E50000020FEF764FE1520FEF761FE1720FEF756
:101E60005EFE0720FEF75BFE1120FEF758FE0620FF
:101E7000FEF755FE2B20FEF752FE5620FEF74FFED2
:101E80003C20FEF74CFE0520FEF749FE1020FEF731
:101E900046FE0F20FEF743FE3F20FEF740FE3F20A8
:101EA000FEF73DFE0F20FEF73AFE2B20FEF72EFE3A
:101EB0000020FEF734FE0020FEF731FE0120FEF781
:101EC0002EFE3F20FEF72BFE2A20FEF71FFE0020ED
:101ED000FEF725FE0020FEF722FE0020FEF71FFE83
:101EE000EF20FEF71CFE1120FEF710FE782003F015
:101EF0002FFD2920FEF70AFE03F02BB90B4880883E
:101F000046F6040188427DD11120FEF7FFFD142022
:101F100003F01EFDD020FEF7F9FD0720FEF7FFFDC0
:101F20004220FEF7FCFD1D200CE00000080100200F
:101F30001C0100A0204C43442049443A25780D0A56
:101F400000000000FEF7EBFDD120FEF7DFFD0020D2
:101F5000FEF7E5FD1A20FEF7E2FD0920FEF7DFFDA2
:101F6000D220FEF7D3FD0120FEF7D9FD2220FEF797
:101F7000D6FDC020FEF7CAFD1020FEF7D0FD3B20A5
:101F8000FEF7CDFD0020FEF7CAFD0220FEF7C7FDDB
:101F90001120FEF7C4FDC520FEF7B8FD0320FEF7B3
:101FA000BEFDC820FEF7B2FD0020FEF7B8FD2520DB
:101FB000FEF7B5FD2120FEF7B2FD0520FEF7AFFDCF
:101FC0000020FEF7ACFD0A20FEF7A9FD6520FEF714
:101FD000A6FD2520FEF7A3FD7720FEF7A0FD5020EB
:101FE000FEF79DFD0F20FEF79AFD0020FEF797FDFE
:101FF000F820FEF78BFD0120FEF791FDFE20FEF795
:1020000085FD00E039E00020FEF789FD0220FEF7A3
:1020100086FD2020FEF77AFD3620FEF777FD0820AA
:10202000FEF77DFD3A20FEF771FD5520FEF777FDA6
:102030002B20FEF76BFD0020FEF771FD0020FEF760
:102040006EFD0120FEF76BFD3F20FEF768FD2A20A4
:10205000FEF75CFD0020FEF762FD0020FEF75FFD4D
:102060000120FEF75CFDDF20FEF759FD782003F02C
:102070006FFC2920FEF74AFD3EE7FE48808845F2C6
:102080001031884240F07C87ED20FEF73FFD0120B3
:10209000FEF745FDFE20FEF742FDEE20FEF736FD81
:1020A000DE20FEF73CFD2120FEF739FDF120FEF792
:1020B0002DFD0120FEF733FDDF20FEF727FD102068
:1020C000FEF72DFDC420FEF721FD8F20FEF727FD32
:1020D000C620FEF71BFD0020FEF721FDE220FEF7E3
:1020E0001EFDE220FEF71BFDE220FEF718FDBF20DB
:1020F000FEF70CFDAA20FEF712FDB020FEF706FD4C
:102100000D20FEF70CFD0020FEF709FD0D20FEF767
:1021100006FD0020FEF703FD1120FEF700FD002064
:10212000FEF7FDFC1920FEF7FAFC0020FEF7F7FC95
:102130002120FEF7F4FC0020FEF7F1FC2D20FEF735
:10214000EEFC0020FEF7EBFC3D20FEF7E8FC002053
:10215000FEF7E5FC5D20FEF7E2FC0020FEF7DFFC69
:102160005D20FEF7DCFC0020FEF7D9FCB120FEF775
:10217000CDFC8020FEF7D3FC0020FEF7D0FC8B20A6
:10218000FEF7CDFC0020FEF7CAFC9620FEF7C7FC48
:102190000020FEF7C4FCB220FEF7B8FC0020FEF7DA
:1021A000BEFC0020FEF7BBFC0220FEF7B8FC0020BE
:1021B000FEF7B5FC0320FEF7B2FC0020FEF7AFFCF3
:1021C000B320FEF7A3FC0020FEF7A9FC0020FEF7D9
:1021D000A6FC0020FEF7A3FC0020FEF7A0FC0020D8
:1021E000FEF79DFC0020FEF79AFC0020FEF797FC0E
:1021F0000020FEF794FC0020FEF791FC0020FEF783
:102200008EFC0020FEF78BFC0020FEF788FC0020EF
:10221000FEF785FC0020FEF782FC0020FEF77FFC25
:102220000020FEF77CFC0020FEF779FC0020FEF782
:1022300076FC0020FEF773FC0020FEF770FC002007
:10224000FEF76DFC0020FEF76AFC0020FEF767FC3D
:102250000020FEF764FCB420FEF758FC8B20FEF74C
:102260005EFC0020FEF75BFC9620FEF758FC002089
:10227000FEF755FCA120FEF752FC0020FEF74FFCB4
:10228000B520FEF743FC0220FEF749FC0020FEF7D4
:1022900046FC0320FEF743FC0020FEF740FC042030
:1022A000FEF73DFC0020FEF73AFCB620FEF72EFCC0
:1022B0000020FEF734FC0020FEF731FCB720FEF7CB
:1022C00025FC0020FEF72BFC0020FEF728FC3F2019
:1022D000FEF725FC0020FEF722FC5E20FEF71FFC27
:1022E0000020FEF71CFC6420FEF719FC0020FEF71E
:1022F00016FC8C20FEF713FC0020FEF710FCAC202F
:10230000FEF70DFC0020FEF70AFCDC20FEF707FCC0
:102310000020FEF704FC7020FEF701FC0020FEF711
:10232000FEFB9020FEF7FBFB0020FEF7F8FBEB2006
:10233000FEF7F5FB0020FEF7F2FBDC20FEF7EFFBDB
:102340000020FEF7ECFBB820FEF7E0FB0020FEF7D4
:10235000E6FB0020FEF7E3FB0020FEF7E0FB002099
:10236000FEF7DDFB0020FEF7DAFB0020FEF7D7FBCF
:102370000020FEF7D4FB0020FEF7D1FBBA20FEF7C9
:10238000C5FB2420FEF7CBFB0020FEF7C8FB002096
:10239000FEF7C5FB0020FEF7C2FBC120FEF7B6FB2F
:1023A0002020FEF7BCFB0020FEF7B9FB5420FEF70F
:1023B000B6FB0020FEF7B3FBFF20FEF7B0FB0020CA
:1023C000FEF7ADFBC220FEF7A1FB0A20FEF7A7FB3C
:1023D0000020FEF7A4FB0420FEF7A1FB0020FEF77F
:1023E0009EFBC320FEF792FB3C20FEF798FB0020EB
:1023F000FEF795FB3A20FEF792FB0020FEF78FFBDD
:102400003920FEF78CFB0020FEF789FB3720FEF712
:1024100086FB0020FEF783FB3C20FEF780FB0020BC
:10242000FEF77DFB3620FEF77AFB0020FEF777FBF8
:102430003220FEF774FB0020FEF771FB2F20FEF721
:102440006EFB0020FEF76BFB2C20FEF768FB0020E4
:10245000FEF765FB2920FEF762FB0020FEF75FFB1D
:102460002620FEF75CFB0020FEF759FB2420FEF738
:1024700056FB01E0080100200020FEF750FB24205D
:10248000FEF74DFB0020FEF74AFB2320FEF747FB3B
:102490000020FEF744FB3C20FEF741FB0020FEF746
:1024A0003EFB3620FEF73BFB0020FEF738FB3220D8
:1024B000FEF735FB0020FEF732FB2F20FEF72FFB47
:1024C0000020FEF72CFB2C20FEF729FB0020FEF756
:1024D00026FB2920FEF723FB0020FEF720FB262009
:1024E000FEF71DFB0020FEF71AFB2420FEF717FB6A
:1024F0000020FEF714FB2420FEF711FB0020FEF75E
:102500000EFB2320FEF70BFB0020FEF708FBC42088
:10251000FEF7FCFA6220FEF702FB0020FEF7FFFA4E
:102520000520FEF7FCFA0020FEF7F9FA8420FEF7FA
:10253000F6FA0020FEF7F3FAF020FEF7F0FA00209A
:10254000FEF7EDFA1820FEF7EAFA0020FEF7E7FAA8
:10255000A420FEF7E4FA0020FEF7E1FA1820FEF7C7
:10256000DEFA0020FEF7DBFA5020FEF7D8FA002052
:10257000FEF7D5FA0C20FEF7D2FA0020FEF7CFFACC
:102580001720FEF7CCFA0020FEF7C9FA9520FEF7D7
:10259000C6FA0020FEF7C3FAF320FEF7C0FA0020C7
:1025A000FEF7BDFAE620FEF7BAFA0020FEF7B7FA0A
:1025B000C520FEF7ABFA3220FEF7B1FA0020FEF795
:1025C000AEFA4420FEF7ABFA0020FEF7A8FA652029
:1025D000FEF7A5FA0020FEF7A2FA7620FEF79FFA92
:1025E0000020FEF79CFA8820FEF799FA0020FEF7FB
:1025F00096FAC620FEF78AFA2020FEF790FA00200D
:10260000FEF78DFA1720FEF78AFA0020FEF787FA08
:102610000120FEF784FA0020FEF781FAC720FEF7BA
:1026200075FA0020FEF77BFA0020FEF778FA00200A
:10263000FEF775FA0020FEF772FAC820FEF766FA78
:102640000020FEF76CFA0020FEF769FA0020FEF782
:1026500066FA0020FEF763FAC920FEF757FA002059
:10266000FEF75DFA0020FEF75AFA0020FEF757FA4F
:102670000020FEF754FA0020FEF751FA0020FEF782
:102680004EFA0020FEF74BFA0020FEF748FA002031
:10269000FEF745FA0020FEF742FA0020FEF73FFA67
:1026A0000020FEF73CFA0020FEF739FA0020FEF782
:1026B00036FA0020FEF733FA0020FEF730FAE02069
:1026C000FEF724FA1620FEF72AFA0020FEF727FA72
:1026D0001C20FEF724FA0020FEF721FA2120FEF745
:1026E0001EFA0020FEF71BFA3620FEF718FA00202B
:1026F000FEF715FA4620FEF712FA0020FEF70FFA51
:102700005220FEF70CFA0020FEF709FA6420FEF7CB
:1027100006FA0020FEF703FA7A20FEF700FA0020FE
:10272000FEF7FDF98B20FEF7FAF90020FEF7F7F926
:102730009920FEF7F4F90020FEF7F1F9A820FEF742
:10274000EEF90020FEF7EBF9B920FEF7E8F90020DA
:10275000FEF7E5F9C420FEF7E2F90020FEF7DFF905
:10276000CA20FEF7DCF90020FEF7D9F9D220FEF7E7
:10277000D6F90020FEF7D3F9D920FEF7D0F90020D2
:10278000FEF7CDF9E020FEF7CAF90020FEF7C7F901
:10279000F320FEF7C4F90020FEF7C1F9E120FEF7AF
:1027A000B5F91620FEF7BBF90020FEF7B8F91C209A
:1027B000FEF7B5F90020FEF7B2F92220FEF7AFF9D7
:1027C0000020FEF7ACF93620FEF7A9F90020FEF74D
:1027D000A6F94520FEF7A3F90020FEF7A0F9522044
:1027E000FEF79DF90020FEF79AF96420FEF797F9AD
:1027F0000020FEF794F97A20FEF791F90020FEF709
:102800008EF98B20FEF78BF90020FEF788F99920CE
:10281000FEF785F90020FEF782F9A820FEF77FF980
:102820000020FEF77CF9B920FEF779F90020FEF7C9
:1028300076F9C420FEF773F90020FEF770F9CA207C
:10284000FEF76DF90020FEF76AF9D220FEF767F96E
:102850000020FEF764F9D820FEF761F90020FEF7AA
:102860005EF9E020FEF75BF90020FEF758F9F3204F
:10287000FEF755F90020FEF752F9E220FEF746F97F
:102880000520FEF74CF90020FEF749F90B20FEF772
:1028900046F90020FEF743F91B20FEF740F900201F
:1028A000FEF73DF93420FEF73AF90020FEF737F93C
:1028B0004420FEF734F90020FEF731F94F20FEF7EF
:1028C0002EF90020FEF72BF96120FEF728F90020F1
:1028D000FEF725F97920FEF722F90020FEF71FF90F
:1028E0008820FEF71CF90020FEF719F99720FEF763
:1028F00016F90020FEF713F9A620FEF710F90020C4
:10290000FEF70DF9B720FEF70AF90020FEF707F9E8
:10291000C220FEF704F90020FEF701F9C720FEF7F8
:10292000FEF80020FEF7FBF8D120FEF7F8F80020B3
:10293000FEF7F5F8D620FEF7F2F80020FEF7EFF8E4
:10294000DD20FEF7ECF80020FEF7E9F8F320FEF7B3
:10295000E6F80020FEF7E3F8E320FEF7D7F80520BD
:10296000FEF7DDF80020FEF7DAF80A20FEF7D7F8C8
:102970000020FEF7D4F81C20FEF7D1F80020FEF767
:10298000CEF83320FEF7CBF80020FEF7C8F844203D
:10299000FEF7C5F80020FEF7C2F85020FEF7BFF89A
:1029A0000020FEF7BCF86220FEF7B9F80020FEF721
:1029B000B6F87820FEF7B3F80020FEF7B0F88820CC
:1029C000FEF7ADF80020FEF7AAF89720FEF7A7F86B
:1029D0000020FEF7A4F8A620FEF7A1F80020FEF7DD
:1029E0009EF8B720FEF79BF80020FEF798F8C2206B
:1029F000FEF795F80020FEF792F8C720FEF78FF853
:102A00000020FEF78CF8D120FEF789F80020FEF7B1
:102A100086F8D520FEF783F80020FEF780F8DD2049
:102A2000FEF77DF80020FEF77AF8F320FEF777F83E
:102A30000020FEF774F8E420FEF768F80120FEF7A6
:102A40006EF80020FEF76BF80120FEF768F8002012
:102A5000FEF765F80220FEF762F80020FEF75FF847
:102A60002A20FEF75CF80020FEF759F83C20FEF71C
:102A700056F80020FEF753F84B20FEF750F80020E0
:102A8000FEF74DF85D20FEF74AF80020FEF747F804
:102A90007420FEF744F80020FEF741F88420FEF78A
:102AA0003EF80020FEF73BF89320FEF738F80020B0
:102AB000FEF735F8A220FEF732F80020FEF72FF8D7
:102AC000B320FEF72CF80020FEF729F8BE20FEF711
:102AD00026F80020FEF723F8C420FEF720F8002097
:102AE000FEF71DF8CD20FEF71AF80020FEF717F8C4
:102AF000D320FEF714F80020FEF711F8DD20FEF7D2
:102B00000EF80020FEF70BF8F320FEF708F800207F
:102B1000FEF705F8E520FDF7F9FF0020FDF7FFFFC0
:102B20000020FDF7FCFF0020FDF7F9FF0020FDF776
:102B3000F6FF0220FDF7F3FF0020FDF7F0FF29204C
:102B4000FDF7EDFF0020FDF7EAFF3C20FDF7E7FF72
:102B50000020FDF7E4FF4B20FDF7E1FF0020FDF72B
:102B6000DEFF5D20FDF7DBFF0020FDF7D8FF7420BE
:102B7000FDF7D5FF0020FDF7D2FF8420FDF7CFFF42
:102B80000020FDF7CCFF9320FDF7C9FF0020FDF7E3
:102B9000C6FFA220FDF7C3FF0020FDF7C0FFB32052
:102BA000FDF7BDFF0020FDF7BAFFBE20FDF7B7FF20
:102BB0000020FDF7B4FFC420FDF7B1FF0020FDF7B2
:102BC000AEFFCD20FDF7ABFF0020FDF7A8FFD3201F
:102BD000FDF7A5FF0020FDF7A2FFDC20FDF79FFF1A
:102BE0000020FDF79CFFF320FDF799FF0020FDF783
:102BF00096FFE620FDF78AFF1120FDF790FF0020E9
:102C0000FDF78DFF3420FDF78AFF0020FDF787FFD9
:102C10005620FDF784FF0020FDF781FF7620FDF7A9
:102C20007EFF0020FDF77BFF7720FDF778FF002077
:102C3000FDF775FF6620FDF772FF0020FDF76FFFBF
:102C40008820FDF76CFF0020FDF769FF9920FDF754
:102C500066FF0020FDF763FFBB20FDF760FF00204B
:102C6000FDF75DFF9920FDF75AFF0020FDF757FFA4
:102C70006620FDF754FF0020FDF751FF5520FDF7BA
:102C80004EFF0020FDF74BFF5520FDF748FF0020C9
:102C9000FDF745FF4520FDF742FF0020FDF73FFF10
:102CA0004320FDF73CFF0020FDF739FF4420FDF7EE
:102CB00036FF0020FDF733FFE720FDF727FF322026
:102CC000FDF72DFF0020FDF72AFF5520FDF727FF18
:102CD0000020FDF724FF7620FDF721FF0020FDF7FF
:102CE0001EFF6620FDF71BFF0020FDF718FF672081
:102CF000FDF715FF0020FDF712FF6720FDF70FFF1E
:102D00000020FDF70CFF8720FDF709FF0020FDF7ED
:102D100006FF9920FDF703FF0020FDF700FFBB2011
:102D2000FDF7FDFE0020FDF7FAFE9920FDF7F7FE06
:102D30000020FDF7F4FE7720FDF7F1FE0020FDF7FF
:102D4000EEFE4420FDF7EBFE0020FDF7E8FE5620E6
:102D5000FDF7E5FE0020FDF7E2FE2320FDF7DFFE94
:102D60000020FDF7DCFE3320FDF7D9FE0020FDF743
:102D7000D6FE4520FDF7D3FE0020FDF7D0FEE8206B
:102D8000FDF7C4FE0020FDF7CAFE0020FDF7C7FED8
:102D90009920FDF7C4FE0020FDF7C1FE8720FDF756
:102DA000BEFE0020FDF7BBFE8820FDF7B8FE002028
:102DB000FDF7B5FE7720FDF7B2FE0020FDF7AFFE70
:102DC0006620FDF7ACFE0020FDF7A9FE8820FDF788
:102DD000A6FE0020FDF7A3FEAA20FDF7A0FE00201E
:102DE000FDF79DFEBB20FDF79AFE0020FDF797FE44
:102DF0009920FDF794FE0020FDF791FE6620FDF777
:102E00008EFE0020FDF78BFE5520FDF788FE00208A
:102E1000FDF785FE5520FDF782FE0020FDF77FFEC1
:102E20004420FDF77CFE0020FDF779FE4420FDF7ED
:102E300076FE0020FDF773FE5520FDF770FE0020A2
:102E4000FDF76DFEE920FDF761FEAA20FDF767FEA4
:102E50000020FDF764FE0020FDF761FE0020FDF775
:102E60005EFE0020FDF752FEAA20FDF758FECF209F
:102E7000FDF74CFE0020FDF752FE0020FDF74FFE4F
:102E80000020FDF74CFE0020FDF749FE0020FDF775
:102E900046FE0020FDF743FE0020FDF740FE002027
:102EA000FDF73DFE0020FDF73AFE0020FDF737FE5E
:102EB0000020FDF734FE0020FDF731FE0020FDF775
:102EC0002EFE0020FDF72BFE0020FDF728FE00203F
:102ED000FDF725FE0020FDF722FEF020FDF716FE8F
:102EE0000020FDF71CFE5020FDF719FE0020FDF725
:102EF00016FE0020FDF713FE0020FDF710FEF32064
:102F0000FDF704FE0020FDF70AFEF920FDF7FEFDA7
:102F10000620FDF704FE1020FDF701FE2920FDF735
:102F2000FEFD0020FDF7FBFD3A20FDF7EFFD5520EB
:102F3000FDF7F5FD1120FDF7E9FD642002F008FD25
:102F40002920FDF7E3FD3520FDF7E0FD0020FDF72A
:102F5000E6FD5120FDF7DAFDFF20FDF7E0FD5320EF
:102F6000FDF7D4FD2C20FDF7DAFD5520FDF7CEFD51
:102F70008220FDF7D4FD2C20FDF7C8FD02F0E9B852
:102F8000FE48808845F2105188427DD155214FF48A
:102F90007040FDF7D6FDAA214FF20100FDF7D1FDEB
:102FA00052214FF20200FDF7CCFD08214FF2030041
:102FB000FDF7C7FD01214FF20400FDF7C2FD0D2111
:102FC0004FF43040FDF7BDFD0D214BF20100FDF740
:102FD000B8FD0D214BF20200FDF7B3FD34214FF493
:102FE0003640FDF7AEFD34214BF20160FDF7A9FD3F
:102FF00034214BF20260FDF7A4FD0D214FF4314066
:10300000FDF79FFD0D214BF20110FDF79AFD0D21FB
:103010004BF20210FDF795FD34214FF43740FDF7D8
:1030200090FD34214BF20170FDF78BFD34214BF202
:103030000270FDF786FD00214FF43240FDF781FD5F
:1030400000214BF20120FDF77CFD00214BF2022014
:10305000FDF777FD24214FF43840FDF772FD242160
:103060004BF60100FDF76DFD24214BF60200FDF744
:1030700068FD01214FF43F40FDF763FD0F214FF440
:103080003340FDF75EFD00E0FDE30F214BF2013020
:10309000FDF757FD0F214BF20230FDF752FD3421B1
:1030A0004FF43940FDF74DFD34214BF60110FDF78B
:1030B00048FD34214BF60210FDF743FD08214FF483
:1030C0003540FDF73EFD08214BF20150FDF739FD7B
:1030D00008214BF20250FDF734FD03214FF442402A
:1030E000FDF72FFD24214FF43A40FDF72AFD24215E
:1030F0004BF60120FDF725FD24214BF60220FDF7BC
:1031000020FD00214FF43C40FDF71BFD78214BF6DC
:103110000140FDF716FD00214BF60240FDF711FDC1
:1031200000214FF43D40FDF70CFD78214BF6015096
:10313000FDF707FD00214BF60250FDF702FD0021CF
:103140004FF43E40FDF7FDFC64214BF60160FDF7B6
:10315000F8FC00214FF45140FDF7F3FC33214DF210
:103160000110FDF7EEFC00214DF20210FDF7E9FC25
:1031700034214DF20310FDF7E4FC00214DF2041060
:10318000FDF7DFFC3A214DF20510FDF7DAFC0021D6
:103190004DF20610FDF7D5FC4A214DF20710FDF760
:1031A000D0FC00214DF20810FDF7CBFC5C214DF264
:1031B0000910FDF7C6FC00214DF20A10FDF7C1FC15
:1031C00081214DF20B10FDF7BCFC00214DF20C10DB
:1031D000FDF7B7FCA6214DF20D10FDF7B2FC002162
:1031E0004DF20E10FDF7ADFCE5214DF20F10FDF78D
:1031F000A8FC01214DF21010FDF7A3FC13214DF2A4
:103200001110FDF79EFC01214DF21210FDF799FC03
:1032100054214DF21310FDF794FC01214DF21410CE
:10322000FDF78FFC82214DF21510FDF78AFC01217C
:103230004DF21610FDF785FCCA214DF21710FDF76F
:1032400080FC02214DF21810FDF77BFC00214DF2AD
:103250001910FDF776FC02214DF21A10FDF771FCF2
:1032600001214DF21B10FDF76CFC02214DF21C10E8
:10327000FDF767FC34214DF21D10FDF762FC0221C1
:103280004DF21E10FDF75DFC67214DF21F10FDF79A
:1032900058FC02214DF22010FDF753FC84214DF221
:1032A0002110FDF74EFC02214DF22210FDF749FCE2
:1032B000A4214DF22310FDF744FC02214DF224100D
:1032C000FDF73FFCB7214DF22510FDF73AFC022136
:1032D0004DF22610FDF735FCCF214DF22710FDF7FA
:1032E00030FC02214DF22810FDF72BFCDE214DF2BF
:1032F0002910FDF726FC02214DF22A10FDF721FCD2
:10330000F2214DF22B10FDF71CFC02214DF22C1086
:10331000FDF717FCFE214DF22D10FDF712FC0321E5
:103320004DF22E10FDF70DFC10214DF22F10FDF780
:1033300008FC03214DF23010FDF703FC33214DF260
:103340003110FDF7FEFB03214DF23210FDF7F9FBC2
:103350006D214DF23310FDF7F4FB00214FF4524084
:10336000FDF7EFFB33214DF20120FDF7EAFB0021D1
:103370004DF20220FDF7E5FB342101E008010020B9
:103380004DF20320FDF7DDFB00214DF20420FDF797
:10339000D8FB3A214DF20520FDF7D3FB00214DF279
:1033A0000620FDF7CEFB4A214DF20720FDF7C9FBB1
:1033B00000214DF20820FDF7C4FB5C214DF20920ED
:1033C000FDF7BFFB00214DF20A20FDF7BAFB81217A
:1033D0004DF20B20FDF7B5FB00214DF20C20FDF75F
:1033E000B0FBA6214DF20D20FDF7ABFB00214DF205
:1033F0000E20FDF7A6FBE5214DF20F20FDF7A1FB06
:1034000001214DF21020FDF79CFB13214DF21120FC
:10341000FDF797FB01214DF21220FDF792FB54219D
:103420004DF21320FDF78DFB01214DF21420FDF725
:1034300088FB82214DF21520FDF783FB01214DF21F
:103440001620FDF77EFBCA214DF21720FDF779FB10
:1034500002214DF21820FDF774FB00214DF21920D6
:10346000FDF76FFB02214DF21A20FDF76AFB0121E7
:103470004DF21B20FDF765FB02214DF21C20FDF7EC
:1034800060FB34214DF21D20FDF75BFB02214DF264
:103490001E20FDF756FB67214DF21F20FDF751FB63
:1034A00002214DF22020FDF74CFB84214DF221201A
:1034B000FDF747FB02214DF22220FDF742FBA4213C
:1034C0004DF22320FDF73DFB02214DF22420FDF7B4
:1034D00038FBB7214DF22520FDF733FB02214DF2D9
:1034E0002620FDF72EFBCF214DF22720FDF729FBEB
:1034F00002214DF22820FDF724FBDE214DF2292088
:10350000FDF71FFB02214DF22A20FDF71AFBF221E5
:103510004DF22B20FDF715FB02214DF22C20FDF77B
:1035200010FBFE214DF22D20FDF70BFB03214DF288
:103530002E20FDF706FB10214DF22F20FDF701FB99
:1035400003214DF23020FDF7FCFA33214DF23120FA
:10355000FDF7F7FA03214DF23220FDF7F2FA6D2163
:103560004DF23320FDF7EDFA00214FF45340FDF703
:10357000E8FA33214DF20130FDF7E3FA00214DF274
:103580000230FDF7DEFA34214DF20330FDF7D9FAAF
:1035900000214DF20430FDF7D4FA3A214DF2053006
:1035A000FDF7CFFA00214DF20630FDF7CAFA4A21A5
:1035B0004DF20730FDF7C5FA00214DF20830FDF756
:1035C000C0FA5C214DF20930FDF7BBFA00214DF243
:1035D0000A30FDF7B6FA81214DF20B30FDF7B1FA52
:1035E00000214DF20C30FDF7ACFAA6214DF20D3062
:1035F000FDF7A7FA00214DF20E30FDF7A2FAE52102
:103600004DF20F30FDF79DFA01214DF21030FDF71C
:1036100098FA13214DF21130FDF793FA01214DF282
:103620001230FDF78EFA54214DF21330FDF789FA6E
:1036300001214DF21430FDF784FA82214DF215304C
:10364000FDF77FFA01214DF21630FDF77AFACA2113
:103650004DF21730FDF775FA02214DF21830FDF7E3
:1036600070FA00214DF21930FDF76BFA02214DF28C
:103670001A30FDF766FA01214DF21B30FDF761FAB1
:1036800002214DF21C30FDF75CFA34214DF21D3061
:10369000FDF757FA02214DF21E30FDF752FA67216D
:1036A0004DF21F30FDF74DFA02214DF22030FDF7AB
:1036B00048FA84214DF22130FDF743FA02214DF200
:1036C0002230FDF73EFAA4214DF22330FDF739FAFE
:1036D00002214DF22430FDF734FAB7214DF22530A6
:1036E000FDF72FFA02214DF22630FDF72AFACF21FD
:1036F0004DF22730FDF725FA02214DF22830FDF773
:1037000020FADE214DF22930FDF71BFA02214DF29D
:103710002A30FDF716FAF2214DF22B30FDF711FA9F
:1037200002214DF22C30FDF70CFAFE214DF22D3026
:10373000FDF707FA03214DF22E30FDF702FA1021B2
:103740004DF22F30FDF7FDF903214DF23030FDF73A
:10375000F8F933214DF23130FDF7F3F903214DF241
:103760003230FDF7EEF96D214DF23330FDF7E9F916
:1037700000214FF45440FDF7E4F933214DF20140AC
:10378000FDF7DFF900214DF20240FDF7DAF93421AF
:103790004DF20340FDF7D5F900214DF20440FDF74D
:1037A000D0F93A214DF20540FDF7CBF900214DF259
:1037B0000640FDF7C6F94A214DF20740FDF7C1F971
:1037C00000214DF20840FDF7BCF95C214DF20940A3
:1037D000FDF7B7F900214DF20A40FDF7B2F981215A
:1037E0004DF20B40FDF7ADF900214DF20C40FDF715
:1037F000A8F9A6214DF20D40FDF7A3F900214DF2E5
:103800000E40FDF79EF9E5214DF20F40FDF799F9C5
:1038100001214DF21040FDF794F913214DF21140B2
:10382000FDF78FF901214DF21240FDF78AF954217D
:103830004DF21340FDF785F901214DF21440FDF7DB
:1038400080F982214DF21540FDF77BF901214DF2FF
:103850001640FDF776F9CA214DF21740FDF771F9D0
:1038600002214DF21840FDF76CF900214DF219408C
:10387000FDF767F902214DF21A40FDF762F90121C7
:103880004DF21B4000E006E3FDF75BF902214DF22B
:103890001C40FDF756F934214DF21D40FDF751F95A
:1038A00002214DF21E40FDF74CF967214DF21F40F9
:1038B000FDF747F902214DF22040FDF742F984213E
:1038C0004DF22140FDF73DF902214DF22240FDF776
:1038D00038F9A4214DF22340FDF733F902214DF2CE
:1038E0002440FDF72EF9B7214DF22540FDF729F9C7
:1038F00002214DF22640FDF724F9CF214DF2274059
:10390000FDF71FF902214DF22840FDF71AF9DE21DB
:103910004DF22940FDF715F902214DF22A40FDF73D
:1039200010F9F2214DF22B40FDF70BF902214DF277
:103930002C40FDF706F9FE214DF22D40FDF701F96F
:1039400003214DF22E40FDF7FCF810214DF22F40DF
:10395000FDF7F7F803214DF23040FDF7F2F833217F
:103960004DF23140FDF7EDF803214DF23240FDF705
:10397000E8F86D214DF23340FDF7E3F800214FF4F4
:103980005540FDF7DEF833214DF20150FDF7D9F82F
:1039900000214DF20250FDF7D4F834214DF20350CE
:1039A000FDF7CFF800214DF20450FDF7CAF83A2197
:1039B0004DF20550FDF7C5F800214DF20650FDF718
:1039C000C0F84A214DF20750FDF7BBF800214DF237
:1039D0000850FDF7B6F85C214DF20950FDF7B1F83B
:1039E00000214DF20A50FDF7ACF881214DF20B5049
:1039F000FDF7A7F800214DF20C50FDF7A2F8A62123
:103A00004DF20D50FDF79DF800214DF20E50FDF7DF
:103A100098F8E5214DF20F50FDF793F801214DF292
:103A20001050FDF78EF813214DF21150FDF789F873
:103A300001214DF21250FDF784F854214DF213503C
:103A4000FDF77FF801214DF21450FDF77AF882213D
:103A50004DF21550FDF775F801214DF21650FDF7A6
:103A600070F8CA214DF21750FDF76BF802214DF2A4
:103A70001850FDF766F800214DF21950FDF761F876
:103A800002214DF21A50FDF75CF801214DF21B5056
:103A9000FDF757F802214DF21C50FDF752F8342182
:103AA0004DF21D50FDF74DF802214DF21E50FDF76D
:103AB00048F867214DF21F50FDF743F802214DF2FF
:103AC0002050FDF73EF884214DF22150FDF739F8E2
:103AD00002214DF22250FDF734F8A4214DF223507B
:103AE000FDF72FF802214DF22450FDF72AF8B721F7
:103AF0004DF22550FDF725F802214DF22650FDF735
:103B000020F8CF214DF22750FDF71BF802214DF28E
:103B10002850FDF716F8DE214DF22950FDF711F877
:103B200002214DF22A50FDF70CF8F2214DF22B50F4
:103B3000FDF707F802214DF22C50FDF702F8FE21A7
:103B40004DF22D50FCF7FDFF03214DF22E50FCF7F6
:103B5000F8FF10214DF22F50FCF7F3FF03214DF237
:103B60003050FCF7EEFF33214DF23150FCF7E9FF06
:103B700003214DF23250FCF7E4FF6D214DF233503A
:103B8000FCF7DFFF00214FF45640FCF7DAFF33214A
:103B90004DF20160FCF7D5FF00214DF20260FCF709
:103BA000D0FF34214DF20360FCF7CBFF00214DF232
:103BB0000460FCF7C6FF3A214DF20560FCF7C1FF37
:103BC00000214DF20660FCF7BCFF4A214DF2076070
:103BD000FCF7B7FF00214DF20860FCF7B2FF5C2153
:103BE0004DF20960FCF7ADFF00214DF20A60FCF7D1
:103BF000A8FF81214DF20B60FCF7A3FF00214DF2DD
:103C00000C60FCF79EFFA6214DF20D60FCF799FFBA
:103C100000214DF20E60FCF794FFE5214DF20F609C
:103C2000FCF78FFF01214DF21060FCF78AFF132192
:103C30004DF21160FCF785FF01214DF21260FCF797
:103C400080FF54214DF21360FCF77BFF01214DF200
:103C50001460FCF776FF82214DF21560FCF771FFCE
:103C600001214DF21660FCF76CFFCA214DF217607E
:103C7000FCF767FF02214DF21860FCF762FF00219C
:103C80004DF21960FCF75DFF02214DF21A60FCF75E
:103C900058FF01214DF21B60FCF753FF02214DF24A
:103CA0001C60FCF74EFF34214DF21D60FCF749FF0C
:103CB00002214DF21E60FCF744FF67214DF21F60A8
:103CC000FCF73FFF02214DF22060FCF73AFF842110
:103CD0004DF22160FCF735FF02214DF22260FCF726
:103CE00030FFA4214DF22360FCF72BFF02214DF29F
:103CF0002460FCF726FFB7214DF22560FCF721FF79
:103D000002214DF22660FCF71CFFCF214DF2276007
:103D1000FCF717FF02214DF22860FCF712FFDE21AD
:103D20004DF22960FCF70DFF02214DF22A60FCF7ED
:103D300008FFF2214DF22B60FCF703FF02214DF248
:103D40002C60FCF7FEFEFE214DF22D60FCF7F9FE23
:103D500003214DF22E60FCF7F4FE10214DF22F608E
:103D6000FCF7EFFE03214DF23060FCF7EAFE332151
:103D70004DF23160FCF7E5FE03214DF23260FCF7B5
:103D8000E0FE6D214DF23360FCF7DBFE55214FF470
:103D90007040FCF7D6FEAA214FF20100FCF7D1FEDD
:103DA00052214FF20200FCF7CCFE08214FF2030033
:103DB000FCF7C7FE00214FF20400FCF7C2FECC2145
:103DC0004FF43140FCF7BDFE00214BF20110FCF72F
:103DD000B8FE05214FF43640FCF7B3FE70214FF4D6
:103DE0003740FCF7AEFE70214BF20170FCF7A9FEE4
:103DF00001214FF43840FCF7A4FE03214BF60100EB
:103E0000FCF79FFE03214BF60200FCF79AFE03210C
:103E10004BF60300FCF795FE02214FF43C40FCF703
:103E200090FE00214BF60140FCF78BFE00214BF683
:103E30000240FCF786FED0214FF44940FCF781FE9A
:103E400002214CF60110FCF77CFE50214CF60210CA
:103E5000FCF777FE50214CF60310FCF772FE502160
:103E60004CF60410FCF76DFE00214FF45450FCF7A3
:103E700068FE55214FF46850FCF763FE4FF48850FC
:103E8000FCF744FE782001F01BFD4FF42450FCF7B2
:103E90003DFE01F05EB9FE48808849F22531884236
:103EA0007ED147F6F001E520FCF74BFE4FF4807120
:103EB0000120FCF746FE4FF4E0610220FCF741FED2
:103EC00041F230010320FCF73CFE00210420FCF706
:103ED00038FE40F202210820FCF733FE00210920C1
:103EE000FCF72FFE00210A20FCF72BFE00210C20FE
:103EF000FCF727FE00210D20FCF723FE00210F20F8
:103F0000FCF71FFE00211020FCF71BFE07211120EB
:103F1000FCF717FE00211220FCF713FE00211320EE
:103F2000FCF70FFE00210720FCF70BFE41F2906129
:103F30001020FCF706FE40F227211120FCF701FEBD
:103F40009D211220FCF7FDFD4FF4C8511320FCF712
:103F5000F8FD25212920FCF7F4FD0D212B20FCF78D
:103F6000F0FD07213020FCF7ECFD40F20331312059
:103F7000FCF7E7FD03213220FCF7E3FD40F20621C8
:103F80003520FCF7DEFD08213620FCF7DAFD40F293
:103F900006413720FCF7D5FD4FF44171382000E091
:103FA00057E0FCF7CEFD07213920FCF7CAFD40F2AF
:103FB00002613C20FCF7C5FD08213D20FCF7C1FD56
:103FC00000215020FCF7BDFDEF215120FCF7B9FD89
:103FD00000215220FCF7B5FD40F23F115320FCF7C1
:103FE000B0FD4FF427416020FCF7ABFD01216120BB
:103FF000FCF7A7FD00216A20FCF7A3FD002180202B
:10400000FCF79FFD00218120FCF79BFD0021822011
:10401000FCF797FD00218320FCF793FD002184200D
:10402000FCF78FFD00218520FCF78BFD10219020EF
:10403000FCF787FD4FF4C0619220FCF782FD40F24F
:1040400033110720FCF77DFD22210020FCF779FDCC
:104050001FE78F48808849F2283188427ED141F29B
:104060008F01EC20FCF76DFD41F23421EF20FCF7CD
:1040700068FD4FF480710120FCF763FD4FF4E061AF
:104080000220FCF75EFD41F230010320FCF759FDF0
:1040900000210420FCF755FD40F202210820FCF726
:1040A00050FD00210920FCF74CFD00210A20FCF7FF
:1040B00048FD01210C20FCF744FD00210D20FCF7F8
:1040C00040FD00210F20FCF73CFD00211020FCF7F3
:1040D00038FD07211120FCF734FD00211220FCF7E8
:1040E00030FD00211320FCF72CFD01210720FCF7F7
:1040F00028FD322001F02CFC41F290411020FCF709
:1041000020FD40F227211120FCF71BFD322001F099
:104110001FFC8A211220FCF714FD322001F018FC4C
:104120004FF4D0511320FCF70CFD06212920FCF799
:1041300008FD0D212B20FCF704FD322001F008FCC6
:1041400000212020FCF7FDFC00212120FCF7F9FCD8
:10415000322001F0FDFB0021302000E074E0FCF78C
:10416000F0FC40F204613120FCF7EBFC40F2053139
:104170003220FCF7E6FC00213520FCF7E2FC40F69B
:1041800009413620FCF7DDFC4FF401713720FCF7C4
:10419000D8FC40F201313820FCF7D3FC40F2077123
:1041A0003920FCF7CEFC00213C20FCF7CAFC40F68D
:1041B0000A213D20FCF7C5FC322001F0C9FB00219B
:1041C0005020FCF7BEFCEF215120FCF7BAFC002187
:1041D0005220FCF7B6FC40F23F115320FCF7B1FC33
:1041E0004FF427416020FCF7ACFC01216120FCF773
:1041F000A8FC00216A20FCF7A4FC00218020FCF729
:10420000A0FC00218120FCF79CFC00218220FCF70F
:1042100098FC00218320FCF794FC00218420FCF70B
:1042200090FC00218520FCF78CFC10219020FCF7ED
:1042300088FC4FF4C0619220FCF783FC40F23311FC
:104240000720FCF77EFC24E61148808849F22031E3
:1042500088427DD100210846FCF773FC4FF4807141
:104260000120FCF76EFC4FF4E0610220FCF769FCD2
:1042700041F230010320FCF764FC00210420FCF72C
:1042800060FC40F202210820FCF75BFC002101E009
:10429000080100200920FCF754FC00210A20FCF74B
:1042A00050FC01210C20FCF74CFC00210D20FCF7F8
:1042B00048FC00210F20FCF744FC322001F048FBB1
:1042C00040F201110720FCF73CFC322001F040FBDA
:1042D0004FF486511020FCF734FC07211120FCF725
:1042E00030FC4FF488711220FCF72BFC4FF4306146
:1042F0001320FCF726FC00212920FCF722FC44F2C5
:1043000010012B20FCF71DFC00215020FCF719FCAC
:10431000EF215120FCF715FC00215220FCF711FC85
:1043200040F23F115320FCF70CFC4FF41C5160206D
:10433000FCF707FC01216120FCF703FC00216A2047
:10434000FCF7FFFB00218020FCF7FBFB002100E0D5
:1043500031E08120FCF7F5FB00218220FCF7F1FB26
:1043600000218320FCF7EDFB00218420FCF7E9FB12
:1043700000218520FCF7E5FB10219020FCF7E1FBF4
:1043800000219220FCF7DDFB01219320FCF7D9FBF3
:104390004FF488719520FCF7D4FB00219720FCF79F
:1043A000D0FB00219820FCF7CCFB40F273110720D2
:1043B000FCF7C7FB6DE5FE48808849F23131884241
:1043C0007DD141F21401E720FCF7BBFB4FF4807173
:1043D0000120FCF7B6FB4FF400710220FCF7B1FBA3
:1043E00041F238010320FCF7ACFB40F20221082027
:1043F000FCF7A7FB00210920FCF7A3FB00210A2002
:10440000FCF79FFB00210C20FCF79BFB00210D20FB
:10441000FCF797FB00210F20FCF793FB00211020F5
:10442000FCF78FFB07211120FCF78BFB00211220EA
:10443000FCF787FB00211320FCF783FBC82001F069
:1044400087FA41F290611020FCF77BFB40F22721B4
:104450001120FCF776FB322001F07AFA0C211220B1
:10446000FCF76FFB322001F073FA4FF40061132068
:10447000FCF767FB11212920FCF763FB0B212B20A4
:10448000FCF75FFB322001F063FA00212020FCF7EB
:1044900058FB40F23F112120FCF753FB0021302054
:1044A000FCF74FFB4FF483713120FCF74AFB0021EE
:1044B0003220FCF746FB4FF40171352000E064E048
:1044C000FCF73FFB41F20A613620FCF73AFB40F271
:1044D00007713720FCF735FB4FF483713820FCF768
:1044E00030FB40F207713920FCF72BFB40F2024110
:1044F0003C20FCF726FB40F60F413D20FCF721FB5A
:1045000000215020FCF71DFBEF215120FCF719FB87
:1045100000215220FCF715FB40F23F115320FCF71D
:1045200010FB4FF41C516020FCF70BFB01216120B4
:10453000FCF707FB00216A20FCF703FB0021802029
:10454000FCF7FFFA00218120FCF7FBFA0021822012
:10455000FCF7F7FA00218320FCF7F3FA002184200E
:10456000FCF7EFFA00218520FCF7EBFA10219020F0
:10457000FCF7E7FA4FF4C0619220FCF7E2FA40F250
:1045800033110720FCF7DDFA83E48948808845F27F
:10459000084188427ED14FF480710120FCF7D1FAA6
:1045A0004FF4E0610220FCF7CCFA41F23001032025
:1045B000FCF7C7FA00210420FCF7C3FA40F20721F8
:1045C0000820FCF7BEFA00210920FCF7BAFA002106
:1045D0000A20FCF7B6FA00210C20FCF7B2FA002101
:1045E0000D20FCF7AEFA00210F20FCF7AAFA1420E8
:1045F00001F0AEF941F2B0611020FCF7A2FA0121FE
:104600001120FCF79EFA01211720FCF79AFA4FF4CB
:104610009C711220FCF795FA4FF400611320FCF70F
:1046200090FA09212920FCF78CFA09212A20FCF7AD
:1046300088FA0021A420FCF784FA00215020FCF71E
:1046400080FAEF215120FCF77CFA00215220FCF780
:1046500078FA40F23F115320FCF773FA4FF41C51E3
:104660006020FCF76EFA01216120FCF76AFA002154
:104670006A20FCF766FA00218020FCF762FA00212C
:104680008120FCF75EFA00218220FCF75AFA002113
:10469000832000E023E0FCF754FA00218420FCF79B
:1046A00050FA00218520FCF74CFA13219020FCF7EA
:1046B00048FA00219220FCF744FA03219320FCF7EA
:1046C00040FA4FF488719520FCF73BFA40F27311E1
:1046D0000720FCF736FA322001F03AF9B8E4344802
:1046E000808841F2055188427ED100210720FCF7E5
:1046F00028FA322001F02CF94FF48E711220FCF7C9
:1047000020FA0121A420FCF71CFA0F210820FCF755
:1047100018FA08210A20FCF714FA08210D20FCF7EA
:1047200010FA40F207713020FCF70BFA0721312014
:10473000FCF707FA40F203613220FCF702FA4FF46B
:10474000E0613320FCF7FDF940F202213420FCF750
:10475000F8F902213520FCF7F4F941F60F71362003
:10476000FCF7EFF940F207713720FCF7EAF9002176
:104770003820FCF7E6F900213920FCF7E2F940F295
:1047800007713A20FCF7DDF900213B20FCF7D9F94D
:1047900007213C20FCF7D5F900213D20FCF7D1F999
:1047A000322001F0D5F801210720FCF7CAF901E019
:1047B0000801002001211720FCF7C3F9322001F085
:1047C000C7F84FF4BD511020FCF7BBF940F2172198
:1047D0001120FCF7B6F94FF48F711220FCF7B1F9F4
:1047E0004FF47061132000E097E0FCF7AAF9002174
:1047F0002A20FCF7A6F90A212920FCF7A2F94FF498
:104800009F711220FCF79DF900215020FCF799F9C7
:10481000EF215120FCF795F900215220FCF791F986
:1048200040F23F115320FCF78CF94FF41C516020EB
:10483000FCF787F901216120FCF783F900216A2048
:10484000FCF77FF900218020FCF77BF90021812013
:10485000FCF777F900218220FCF773F9002183200F
:10486000FCF76FF900218420FCF76BF9002185200B
:10487000FCF767F913219020FCF763F94FF44071BE
:104880009220FCF75EF905219320FCF75AF90021EC
:104890009520FCF756F900219720FCF752F90021EA
:1048A0009820FCF74EF94FF480710120FCF749F98C
:1048B0004FF4E0610220FCF744F941F23801032093
:1048C000FCF73FF900210420FCF73BF900210C2004
:1048D000FCF737F900210F20FCF733F900212020E5
:1048E000FCF72FF900212120FCF72BF921210720CB
:1048F000FCF727F9142001F02BF861210720FCF7C1
:1049000020F9142001F024F840F273110720FCF77D
:1049100018F9142001F01CF895E4FE4880884BF249
:10492000055188427ED100210846FCF70AF9002192
:104930000846FCF706F900210846FCF702F90021B9
:104940000846FCF7FEF80121A420FCF7FAF8142031
:1049500000F0FEFF4FF41C516020FCF7F2F840F22B
:1049600002210820FCF7EDF84FF405713020FCF728
:10497000E8F843F215713120FCF7E3F840F20461E6
:104980003220FCF7DEF840F616613320FCF7D9F848
:1049900042F211213420FCF7D4F84FF4A85135200D
:1049A000FCF7CFF848F207513620FCF7CAF841F27D
:1049B00007413720FCF7C5F841F203413820FCF7E6
:1049C000C0F820213920FCF7BCF81A219020FCF710
:1049D000B8F800211020FCF7B4F807211120FCF7EB
:1049E000B0F800211220FCF7ACF800211320FCF7EE
:1049F000A8F8142000F0ACFF4FF4E6611020FCF79B
:104A0000A0F840F237111120FCF79BF8142000F0B9
:104A10009FFF4FF4DC711220FCF793F8142000F094
:104A200097FF00E083E04FF470611320FCF789F8F2
:104A300080212A20FCF785F848212920FCF781F8FD
:104A4000142000F085FF4FF480710120FCF779F805
:104A50004FF4E0610220FCF774F841F238010320C2
:104A6000FCF76FF840F202210820FCF76AF80021F9
:104A70000A20FCF766F800210C20FCF762F8002100
:104A80000D20FCF75EF830210E20FCF75AF80021CB
:104A90005020FCF756F8EF215120FCF752F8002186
:104AA0005220FCF74EF840F23F115320FCF749F832
:104AB0004FF41C516020FCF744F801216120FCF701
:104AC00040F800216A20FCF73CF811219020FCF707
:104AD00038F84FF4C0619220FCF733F840F20241FD
:104AE0009320FCF72EF802219420FCF72AF81420DA
:104AF00000F02EFF01210720FCF723F8142000F01E
:104B000027FF61210720FCF71CF840F273110720F2
:104B1000FCF717F800212020FCF713F800212120D2
:104B2000FCF70FF822210020FCF70BF811E379487D
:104B300080884CF2055188427ED100210846FCF75E
:104B400000F800210846FBF7FCFF142000F000FFEE
:104B500000210846FBF7F5FF00210846FBF7F1FFAF
:104B600000210846FBF7EDFF00210846FBF7E9FFAF
:104B70000121A420FBF7E5FF142000F0E9FE4FF42B
:104B80001C516020FBF7DDFF40F606010820FBF713
:104B9000D8FF40F203713020FBF7D3FF0121312011
:104BA000FBF7CFFF04213220FBF7CBFF4FF48171DD
:104BB0003320FBF7C6FF4FF440713420FBF7C1FFF1
:104BC00040F203113520FBF7BCFF1F213620FBF715
:104BD000B8FF40F203713720FBF7B3FF0121382003
:104BE000FBF7AFFF04213920FBF7ABFF1521902025
:104BF000FBF7A7FF4FF482611020FBF7A2FF40F202
:104C000047211120FBF79DFF4FF4DE711220FBF7C7
:104C100098FF4FF460611320FBF793FF782000F0BA
:104C200097FE4FF480710120FBF78BFF4FF400716A
:104C30000220FBF786FF00E050E041F23001032044
:104C4000FBF77FFF08210A20FBF77BFF00210C20E8
:104C5000FBF777FF20210E20FBF773FF00210F20C9
:104C6000FBF76FFF00212020FBF76BFF00212120C5
:104C7000FBF767FF3D212A20FBF763FF142000F0BC
:104C800067FE2D212920FBF75CFF00215020FBF758
:104C900058FF4DF2EF015120FBF753FF0021522046
:104CA000FBF74FFF40F23F115320FBF74AFF002173
:104CB0006120FBF746FF00216A20FBF742FF4FF41B
:104CC00040719220FBF73DFF05219320FBF739FF50
:104CD0004FF480710720FBF734FF3AE20D488088DB
:104CE00044F2315188427CD101210020FBF729FF99
:104CF0000A2000F02DFE41F228611020FBF721FF71
:104D00000E211220FBF71DFF40F639211320FBF77F
:104D100018FF01E0080100200A2000F019FE4021E0
:104D20001120FBF70EFF50211520FBF70AFF0A2088
:104D300000F00EFE1E211220FBF703FF0A2000F0F8
:104D400007FE4FF4B1511020FBF7FBFE42F639216C
:104D50001320FBF7F6FE0A2000F0FAFD4FF48071F5
:104D60000120FBF7EEFE4FF440710220FBF7E9FE55
:104D700041F238010320FBF7E4FE40F20221082053
:104D8000FBF7DFFE08210A20FBF7DBFE00213020C5
:104D9000FBF7D7FE40F202413120FBF7D2FE4FF481
:104DA00083713220FBF7CDFE40F203513320FBF735
:104DB000C8FE4FF482713420FBF7C3FE40F201318C
:104DC0003520FBF7BEFE40F207713620FBF7B9FE37
:104DD00040F205313720FBF7B4FE4FF40271382062
:104DE00000E040E0FBF7ADFE40F60B713920FBF729
:104DF000A8FE02214120FBF7A4FE4FF41C516020C5
:104E0000FBF79FFE01216120FBF79BFE4FF404712D
:104E10009020FBF796FE4FF485719220FBF791FEF0
:104E200004219320FBF78DFE4FF48071A020FBF747
:104E300088FE01210720FBF784FE21210720FBF7D4
:104E400080FE23210720FBF77CFE33210720FBF7A0
:104E500078FE40F233110720FBF773FE0021A020FB
:104E6000FBF76FFE75E1F748808844F235518842C0
:104E70007ED130211520FBF764FE10219A20FBF72C
:104E800060FE20211120FBF75CFE43F22841102038
:104E9000FBF757FE02211220FBF753FE41F23801C7
:104EA0001320FBF74EFE282000F052FD1221084689
:104EB000FBF747FE282000F04BFD43F22041102075
:104EC000FBF73FFE43F238011320FBF73AFE462082
:104ED00000F03EFD00213020FBF733FE40F202419E
:104EE0003120FBF72EFE40F207313220FBF729FE7E
:104EF0004FF441713320FBF724FE04213420FBF7EB
:104F000020FE40F201413520FBF71BFE40F2077105
:104F10003620FBF716FE40F205313720FBF711FE75
:104F20004FF4C2613820FBF70CFE4FF4C261392008
:104F3000FBF707FE4FF480710120FBF702FE4FF4F0
:104F400040710220FBF7FDFD41F230010320FBF729
:104F5000F8FD40F608010820FBF7F3FD08210A20C0
:104F6000FBF7EFFD4FF41C516020FBF7EAFD00E07A
:104F700031E001216120FBF7E4FD4FF49F719020A7
:104F8000FBF7DFFD4FF480719220FBF7DAFD4FF461
:104F900080719320FBF7D5FD4FF44051A020FBF723
:104FA000D0FD1021A320FBF7CCFD01210720FBF74A
:104FB000C8FD21210720FBF7C4FD23210720FBF7B3
:104FC000C0FD33210720FBF7BCFD40F23311072061
:104FD000FBF7B7FDBDE09B48808841F6631188422E
:104FE000F8D1E220FBF792FD1D20FBF798FD02208F
:104FF000FBF795FD0420FBF792FD642000F060FCB8
:10500000E020FBF783FD0120FBF789FD0A2000F07B
:105010009FFCE020FBF77AFD0320FBF780FD0C20CE
:1050200000F096FC0120FBF771FD0A2000F090FCD7
:10503000E620FBF76BFD2F20FBF771FDFF20FBF750
:105040006EFDFF20FBF76BFDB020FBF75FFD20201E
:10505000FBF765FD0020FBF762FD0320FBF75FFD1A
:1050600040F21F30FBF75BFD0120FBF758FD40F2DB
:10507000DF10FBF754FD0020FBF751FDB420FBF7D8
:1050800045FD0420FBF74BFD40F21F40FBF747FDB9
:105090000020FBF744FD2E20FBF741FD0020FBF72D
:1050A0003EFD0020FBF73BFD0020FBF738FD002014
:1050B000FBF735FDB620FBF729FD0220FBF72FFD9E
:1050C0004FF40370FBF72BFD0020FBF728FD1720A2
:1050D000FBF725FD1520FBF722FD0020FBF71FFD48
:1050E0000020FBF71CFDF020FBF710FD0320FBF771
:1050F00016FD2920FBF70AFDD020FBF707FD002055
:10510000FBF70DFDBE20FBF701FD0520FBF707FDBA
:10511000FE20FBF704FD0120FBF701FD0020FBF75B
:10512000FEFC0020FBF7FBFC0020FBF7F8FCB8209E
:10513000FBF7ECFC0320FBF7F2FC0120FBF7EFFC94
:10514000BA20FBF7E3FC0120FBF7E9FC6420FCF745
:105150004CF90020FCF775F901203B4908604FF637
:10516000FF70FCF75CFB21B000BD2DE9FC4F05464C
:105170000E4617469846DDF82C90002001903148E5
:10518000808846F60401884229D12E48807901287A
:1051900025D1AB4635462B480088C01B401E86B241
:1051A000474628480088A0EB0B00401E1FFA80F8F5
:1051B0000020244988712A2048812B208881434679
:1051C0003A4631462846CDF80090FFF7CEFF012041
:1051D0001C4988712B2048812A2088811CE0781B7B
:1051E000401C80B20190344614E021462846FBF76B
:1051F000D5FCFBF7B6FC4FF0000A06E01348A0F818
:1052000000900AF101001FFA80FA01988245F5DB4F
:10521000601C84B24445E8DDBDE8FC8F2DE9F84F01
:1052200007460D4690469946DDF828B0A8EB0700E2
:10523000401C1FFA80FAA9EB0500401C80B20090C8
:1052400000241AE008010020BC82404200000860EF
:10525000281981B23846FBF7A1FCFBF782FC002637
:1052600007E004FB0A603BF81000F9490880701C55
:1052700086B25645F5DB601C84B200988442E7DBB9
:10528000BDE8F88F2DE9FF4F84B081468A460020A3
:10529000039002900698A0EB09050798A0EB0A0678
:1052A000CDF80490CDF800A0002D01DD012705E028
:1052B0000DB9002702E04FF0FF376D42002E02DDEE
:1052C0004FF0010806E016B94FF0000802E04FF079
:1052D000FF387642B54201DD2C4600E034464FF0FF
:1052E000000B21E0009A91B2019A90B2FBF7AFFF58
:1052F0000398284403900298304402900398A042F7
:1053000005DD0398001B0390019838440190029832
:10531000A04205DD0298001B0290009840440090D6
:105320000BF101001FFA80FB601C8345DADD08B039
:10533000BDE8F08FF0B504460D4616461F462B46D5
:10534000324629462046FFF79DFF3B462246294626
:105350002046FFF797FF3B46324639462046FFF787
:1053600091FF3B46324629463046FFF78BFFF0BDA2
:105370002DE9F04306460F4690460024454603209B
:10538000A0EB48093CE07A1B91B2321990B2FBF7CE
:105390005EFF3A1B91B2721990B2FBF758FF3A19AF
:1053A00091B2721990B2FBF752FF7A1991B2321989
:1053B00090B2FBF74CFF7A1991B2321B90B2FBF717
:1053C00046FF3A1991B2721B90B2FBF740FF7A1B6D
:1053D00091B2321B90B2FBF73AFF3A1B91B2721BAB
:1053E00090B2FBF734FF641CB9F1000F03DAA000A0
:1053F000801D814404E0601B80000A3081446D1EE2
:10540000AC42C0DDBDE8F0832DE9F84F80460E4682
:1054100017461C46B3462046E31704EB5373DB10D4
:1054200021464FEAE47C04EB5C7C4FEAEC0CA4EBF5
:10543000CC0CBCF1000F02D04FF0010C01E04FF09A
:10544000000C6344224604EBD27C4FEA6C0C03FB55
:105450000CF3DBB20093A7F12000C7B2002558E09F
:105460000C2C07D107EB47007A4901EB800010F8BC
:10547000059013E0102C05D1774800EB071010F8C9
:1054800005900BE0182C07D107EBC700734901EB1F
:10549000800010F8059001E0BDE8F88F4FF0000A99
:1054A00031E009F0800038B16D48008882B23146A1
:1054B0004046FBF7DAFE08E00A9830B969480088F0
:1054C00082B231464046FBF7D0FE4FEA49604FEAD0
:1054D0001069701C86B264484088B04200DCDBE78B
:1054E000A6EB0B00A0420AD15E4608F101001FFAAC
:1054F00080F85D480088404500DCCDE706E00AF111
:10550000010000F0FF0ABAF1080FCADB00BF681CF7
:10551000C5B200988542A3DB00BFBDE710B50246C7
:10552000012000E050430B00A1F10104E1B2F9D1E8
:1055300010BD2DE9FF4F81B0074691461E460E9DD6
:105540004FF0000A002439E0301B401EC1B20A208F
:10555000FFF7E4FFB9FBF0F00A21B0FBF1F201FB29
:105560001208BAF1000F16D1701EA04213DDB8F177
:10557000000F0ED10020AB4605EBDB71491001FB9B
:105580000471009088B22B4620220299FFF73CFF5D
:1055900012E04FF0010A0020AB4605EBDB71491029
:1055A00001FB0471009088B208F13001CAB22B46A9
:1055B0000299FFF729FF00BF601CC4B2B442C3DBED
:1055C00005B0BDE8F08F2DE9FF4F82B00646924648
:1055D0001F46DDE90F480020019000255CE0781BA4
:1055E000401EC1B20A20FFF799FFBAFBF0F00A2172
:1055F000B0FBF1F201FB1209019840BB781EA842F2
:1056000036DDB9F1000F31D108F0800078B108F033
:105610000100A34604EBDB71491001FB056100901A
:1056200088B2234630220399FFF7EEFE0EE008F021
:105630000100A34604EBDB71491001FB05610090FA
:1056400088B2234620220399FFF7DEFE22E00FE016
:105650000000086072820008E6860008D68C000808
:105660002C000020300000200801002001200190C3
:1056700008F00100A34604EBDB71491001FB056152
:10568000009088B209F13001CAB223460399FFF7AE
:10569000BBFE00BF681CC5B2BD42A0DB06B0BDE8C2
:1056A000F08F2DE9F84704460D4690469946DDE90E
:1056B000096704F0FF0A08EB04001FFA80F809EB01
:1056C00005001FFA80F916E0444502DB5446A8198C
:1056D00085B24D4500DB14E0002000903A78334657
:1056E00029462046FFF790FE304606EBD07104EBCA
:1056F00061018CB27F1C38787E2802DC3878202843
:10570000E2DA00BFBDE8F88708B502468DF8002050
:10571000ADF80210009808BD1CB50121202000F052
:105720008FFD4FF4FF70009001208DF804000020E1
:105730008DF8060003208DF8050001208DF8070084
:1057400069464A4800F0DEFA1CBD01B584B0FFF797
:10575000E3FF0121042000F0BCFDBDF8120042F679
:10576000E06191FBF0F0029042F2D000ADF804004D
:105770000020ADF80600ADF80C0001A93C4800F08F
:10578000AAFF012211463A4801F046FC012138489F
:1057900001F02AF81E208DF8000001208DF801008C
:1057A00003208DF8020001208DF80300684600F008
:1057B000B8F905B000BD03B59DF8041011B1012979
:1057C00038D11BE02B49095CC1F3C0012A4A1160A2
:1057D0002849095CC1F38001284AC2F8881225498A
:1057E000095CC1F34001244A083211602149095C77
:1057F00001F00101214AC2F890121BE02049095C26
:10580000C1F3C0011C4A11601D49095CC1F380014C
:105810001A4AC2F888121A49095CC1F34001164AB3
:10582000083211601649095C01F00101134AC2F8FF
:10583000901200BF00BF0CBD08B5124800780828C0
:1058400002D100200F4908700F48006801460090FF
:105850000C480078FFF7AFFF0A480078401C094960
:1058600008700121024801F0FFFB08BD001402404E
:1058700000080040340000208482424200804242FE
:105880003C000020440000204600002010B50446E3
:105890006FF0040000F092F9E11704EB5171C1F3CD
:1058A000C701394A11701046007800EB4001C1EB86
:1058B000C0104FF6FF7101EAC0003449088010BDE6
:1058C0000146314A12784A434FF0E0235A610022E0
:1058D0009A611A46126942F001021A6100BF4FF044
:1058E000E022106900F001021AB100F48032002AAF
:1058F000F5D04FF0E022126922F001024FF0E023D0
:105900001A6100229A6170470146204A12884A4370
:105910004FF0E0235A6100229A611A46126942F060
:1059200001021A6100BF4FF0E022106900F001028D
:105930001AB100F48032002AF5D04FF0E02212694B
:1059400022F001024FF0E0231A6100229A617047B1
:1059500070B504464FF4077094FBF0F0C6B24FF4F4
:10596000077094FBF0F100FB114085B205E04FF4A5
:105970000770FFF7C9FF701EC6B2002EF7D115B130
:105980002846FFF7C1FF70BD4A0000204C000020F0
:1059900000BF704700BF4C4A128802F04002002A44
:1059A000F9D0C2B2484B9A80704710B588B004460F
:1059B0000121084600F044FC0121102000F09AFC6F
:1059C00007220921414800F028FA07220A213F480E
:1059D00000F023FA4FF4C060069002208DF81C00FE
:1059E0008DF81D0000208DF81E0001208DF81F008D
:1059F00006A9364800F086F902940020ADF80C00A4
:105A0000ADF80E00ADF81000ADF814000C20ADF8A4
:105A1000120002A92C4801F06AFC01212A4801F079
:105A2000EEFC012240F22551274801F09EFD252081
:105A30008DF8040003208DF805008DF80600012084
:105A40008DF8070001A800F06CF808B010BD10B583
:105A500040F225511C4801F0C3FD10B31A4801F073
:105A6000FDFCC4B21A48008800F40040C8B91848C8
:105A7000008800F4804060B10A2C03D00020144953
:105A8000088020E01248008840F400401049088057
:105A900019E00D2C06D10E48008840F480400C49D6
:105AA000088010E00A480088C0F30D0009490C5432
:105AB00007480088401C0649088008460088C72817
:105AC00001DD0020088010BD0010014000000240F0
:105AD000540000201601002009488047094800476B
