:020000040800F2
:1000000070070020C5530008C5030008C703000897
:10001000CB030008CF030008D30300080000000052
:10002000000000000000000000000000D7030008EE
:10003000D903000800000000DB030008DD0300080E
:10004000DF530008DF530008DF530008DF530008C8
:10005000DF530008DF530008DF530008DF530008B8
:10006000DF530008DF530008DF530008DF530008A8
:10007000DF530008DF530008DF530008DF53000898
:10008000DF530008DF530008DF530008DF53000888
:10009000DF530008DF530008DF530008DF53000878
:1000A000DF530008DF530008DF530008DF53000868
:1000B000DF530008DF530008DF530008DF53000858
:1000C000DF530008DF530008DF530008DF53000848
:1000D000DF5300083B530008DF530008DF530008DC
:1000E000DF530008DF530008DF530008DF53000828
:1000F000DF530008DF530008DF530008DF53000818
:10010000DF530008DF530008DF530008DF53000807
:10011000DF530008DF530008DF530008DF530008F7
:10012000DF530008DF530008DF530008DF530008E7
:10013000DF530008DF530008DF530008DF530008D7
:10014000DF530008DF530008DF530008DF530008C7
:10015000DF530008DF530008DF530008DF530008B7
:10016000DF530008DF530008DF530008DF530008A7
:10017000DF530008DF530008DF530008DF53000897
:10018000DF530008DF53000800F002F800F041F8E8
:100190000AA090E8000C82448344AAF10107DA45E2
:1001A00001D100F036F8AFF2090EBAE80F0013F0F3
:1001B000010F18BFFB1A43F0010318471483000016
:1001C00034830000103A24BF78C878C1FAD85207A7
:1001D00024BF30C830C144BF04680C6070470000C1
:1001E0000023002400250026103A28BF78C1FBD840
:1001F000520728BF30C148BF0B607047782906F00E
:100200003983002070471FB506F05AFD1FBD10B599
:1002100010BD06F0E7FB1146FFF7F5FF00F008F808
:1002200006F005FC03B4FFF7F2FF03BC05F026F867
:100230001CB500254FF4A06005F0E4F8A82004F0F8
:100240009BFF4FF4E13005F026F800F0D1F901F002
:100250004EF84FF478404549086085E044480088EE
:1002600000F40040002862D042480478302C1BD1B2
:1002700000203F49088040A006F0BCFA12E03D484B
:1002800018210B46D222CDE9001028211E2004F0AF
:1002900040FF00203C4908603548008800F40040D9
:1002A00000B100E0EBE700BF312C1CD10020304949
:1002B000088036A006F09EFA13E02E4810210B4667
:1002C000C822CDE9001046211E2004F022FF0020A4
:1002D0002D49091D08602648008800F4004000B13F
:1002E00000E0EAE700BF302C20D0312C1ED00020E7
:1002F0001F49088029A006F07DFA15E01D4810214D
:100300000B46C822CDE900105A211E2004F001FF3F
:1003100001201D4908602649C1F88402144800885C
:1003200000F4004000B100E0E8E700BF1CE0681CFA
:1003300085B24FF47A7095FBF0F100FB115010B9C3
:100340001CA006F057FA322095FBF0F100FB11508B
:1003500038B90D48006808B9012000E000200A49BA
:1003600008600A2004F06AFF78E70000140000200B
:1003700024000020460000200D0A4C454430D2D114
:10038000B5E3C1C10D0A0000800243420D0A4C458D
:100390004431D2D1B5E3C1C10D0A00000D0A4C456C
:1003A0004430A1A24C454431CFA8C3F00D0A00004F
:1003B000000043420D0AC7EBB7A2CBCDCFFBCFA2C3
:1003C0000D0A0000704700BFFEE700BFFEE700BF58
:1003D000FEE700BFFEE770477047704770470000B8
:1003E0000CB50020019000907648006840F4803001
:1003F0007449086000BF7348006800F40030009042
:100400000198401C0190009818B90198B0F5A04FD0
:10041000F1D16C48006800F4003010B10120009068
:1004200001E0002000900098012846D16548403046
:10043000006840F0805063494031086062480068BD
:1004400040F44040604908605E48083000685D49FB
:10045000083108600846006840F40040086008461B
:10046000006840F4A05008605848091F0860081F41
:10047000006840F08070091F086000BF51480068A4
:1004800000F000700028F9D040F205705049086073
:100490004C480830006820F003004A4908310860E1
:1004A0000846006840F00200086000BF4548083078
:1004B000006800F00C000828F8D10CBD10B54548C4
:1004C000006840F47000434908603E48006840F00E
:1004D00001003C49086000203A4908310860394869
:1004E00000683D490840374908603C48091D0860DC
:1004F000081F006820F48020091F0860002031498F
:100500000C310860FFF76CFF4FF000603149803913
:10051000086010BD70B500200022022300240221D3
:10052000284D08352D6805F00C0020B1042806D0B0
:10053000082834D107E02A4D2A4E356033E02A4D91
:10054000284E35602FE01F4D2D1D2D68C5F38054BA
:100550001C4D2D1D2D6805F03F0154B1224DB5FBFA
:10056000F1F5184E361D3668C6F3881605FB06F2FF
:1005700009E01B4DB5FBF1F5124E361D3668C6F38A
:10058000881605FB06F20F4D2D1D2D68C5F301459C
:100590006D1C6B00B2FBF3F5124E356003E0104D9D
:1005A000104E356000BF00BF064D08352D68C5F3FD
:1005B00003150E4E705D0B4D2D68C540094E35601C
:1005C00070BD000000380240007000400854400731
:1005D000003C024088ED00E0FFFFF6FE10300024F2
:1005E0000024F4000000002000127A000400002023
:1005F0001CB50121402005F07DFD03200090012065
:100600008DF8040000208DF8060003208DF8050009
:1006100001208DF807006946034804F0E9FF032133
:10062000014805F061F81CBD0018024001B5BDF895
:1006300000000090BDF80000F749088008BD01B532
:10064000BDF800000090BDF80000F349891C088047
:1006500008BD08B5F048801C00880090BDF8000077
:1006600008BDED4A1080921C1180704710B50446F9
:100670002046FFF7DBFF052004F098FDFFF7E9FFB8
:1006800010BDE6480089E44908807047E249891CAA
:100690000880704730B5014601F01F04C1F34513CF
:1006A000CA0AE50205EB43151544A8B230BD00BFE8
:1006B0000100A0F10102D0B2FAD1704730B5044672
:1006C0000D46D648808849F24131884205D0D3484A
:1006D000808845F21031884214D1D0494889FFF70B
:1006E000A5FF2012FFF7ABFFE0B2FFF7A8FFCB4951
:1006F0008889FFF79BFF2812FFF7A1FFE8B2FFF7F9
:100700009EFFABE0C548808846F6040188421DD1B3
:10071000C2488079012804D1C0480088401E001BCF
:1007200084B2BE494889FFF781FF2012FFF787FF97
:10073000E0B2FFF784FFB9498889FFF777FF2812F5
:10074000FFF77DFFE8B2FFF77AFF87E0B3488088C4
:1007500041F66311884247D1B0488079A8B9AF48C3
:100760000088401E001B84B2AC494889FFF75EFF39
:100770000020FFF764FF0020FFF761FF2012FFF762
:100780005EFFE0B2FFF75BFF16E0A4494889FFF780
:100790004DFF2012FFF753FFE0B2FFF750FF9F49D4
:1007A0000988491EC1F30F20FFF749FF9B490978CB
:1007B000491EC8B2FFF743FF98498889FFF736FF03
:1007C0002812FFF73CFFE8B2FFF739FF9349498849
:1007D000491EC1F30F20FFF732FF90498978491E67
:1007E000C8B2FFF72CFF39E08C48808845F21051E1
:1007F000884220D189494889FFF718FF2012FFF766
:100800001EFF86494989491C88B2FFF70FFFE0B2F5
:10081000FFF715FF81498889FFF708FF2812FFF7C6
:100820000EFF7E498989491C88B2FFF7FFFEE8B2B6
:10083000FFF705FF12E079488079012804D1774855
:100840000088401E001B84B2744948892146FFF786
:1008500008FF724988892946FFF703FF30BD2DE95B
:10086000F04105460E4600240027A0466B4800884C
:10087000A84203DD69484088B04202DC0020BDE8A0
:10088000F08131462846FFF719FF6448808849F215
:10089000413188420BD06148808845F2103188424E
:1008A00005D05E48808841F66311884203D12E202E
:1008B000FFF7BCFE09E05948808845F21051884294
:1008C00003D14FF43850FFF7B1FEFFF7C2FE0446E4
:1008D0005248808841F66311884201D12046CEE714
:1008E0000220FFF7E4FEFFF7B4FE04460220FFF704
:1008F000DEFEFFF7AEFE8046E7B24FF6FF7000EA7D
:100900000727E012C002B91240EA411040EAE8208D
:10091000B5E700B54148808849F24131884211D09D
:100920003E48808846F6040188420BD03B488088C8
:1009300045F21031884205D03848808841F663116D
:10094000884203D12920FFF771FE0FE033488088E9
:1009500045F21051884204D14FF42450FFF766FE4F
:1009600004E040F273110720FFF77BFE00BD00B5E5
:100970002A48808849F24131884211D0274880882E
:1009800046F6040188420BD02448808845F2103195
:10099000884205D02148808841F66311884203D1FE
:1009A0002820FFF743FE0EE01C48808845F21051D6
:1009B000884204D14FF42050FFF738FE03E00021B5
:1009C0000720FFF74EFE00BDF0B5054600240027C6
:1009D0001248807901280BD11048808846F604011E
:1009E000884205D00D48808841F66311884208D1BD
:1009F0000A48807918BB0948808841F6631188420B
:100A00001DD1082D1AD2DFE805F0040B0D0F1113CC
:100A10001517062512E00000FEFF076038000020D1
:100A200007250BE0042509E0052507E0012505E081
:100A3000002503E0032501E0022500BF00BFFE48BA
:100A4000808849F24131884217D0FB48808846F6B9
:100A50000401884211D0F848808845F2103188425C
:100A60000BD0F548808845F21051884205D0F248F5
:100A7000808841F6631188427ED1082D1CD2DFE8C0
:100A800005F00406090C0F12151800BF14E044F01D
:100A9000800411E044F040040EE044F0C0040BE098
:100AA00044F0200408E044F0600405E044F0A004B1
:100AB00002E044F0E00400BF00BFDF48808845F258
:100AC0001051884202D14FF4585700E03627DA48D7
:100AD000808845F2103188420DD0D748808845F291
:100AE0001051884207D0D448808841F6631188426B
:100AF00001D044F00804D048808846F604018842BA
:100B000001D144F0020421463846FFF7AAFDCA4845
:100B1000808841F6631188421DD004F0200068B13E
:100B2000C5480088C4494988884214DAC248068802
:100B30004088C1490880084646800CE0BE480088CD
:100B4000BD494988884206DDBB4806884088BA49C5
:100B5000088008464680B848808845F2105188428F
:100B600054D1B5494889FFF761FD0020FFF767FDC3
:100B7000B1494989491C00E077E088B2FFF756FD8A
:100B80000020FFF75CFDAC494989891C88B2FFF75A
:100B90004DFDA9490988491EC1F30F20FFF74FFDFC
:100BA000A5494989C91C88B2FFF740FDA2490978C7
:100BB000491EC8B2FFF743FD9F498889FFF736FDFC
:100BC0000020FFF73CFD9C498989491C88B2FFF74A
:100BD0002DFD0020FFF733FD97498989891C88B2D4
:100BE000FFF724FD94494988491EC1F30F20FFF700
:100BF00026FD91498989C91C88B2FFF717FD8E49E6
:100C00008978491EC8B2FFF71AFD55E08A4948891C
:100C1000FFF70CFD0020FFF712FD0020FFF70FFD8E
:100C200085490988491EC1F30F20FFF708FD824955
:100C30000978491EC8B2FFF702FD7F498889FFF78E
:100C4000F5FC0020FFF7FBFC0020FFF7F8FC7A49D9
:100C50004988491EC1F30F20FFF7F1FC76498978D6
:100C6000491EC8B2FFF7EBFC26E0082D1CD2DFE8D6
:100C700005F004070A0D0F12151844F0300413E0B4
:100C800044F0100410E044F020040DE000BF0BE03D
:100C900044F0380408E044F0280405E044F0180467
:100CA00002E044F0080400BF00BF032744F480546E
:100CB00021463846FFF7D5FCF0BD30B504460D4659
:100CC00029462046FFF7FAFCFFF7DBFC5B4800886B
:100CD0005B49088030BD70B504460D46164656483F
:100CE000808849F24131884205D05348808845F2D6
:100CF0001031884214D150494889FFF797FC2012DF
:100D0000FFF79DFCE0B2FFF79AFC4B498889FFF79B
:100D10008DFC2812FFF793FCE8B2FFF790FC93E0FC
:100D20004548808845F21051884220D1424948897F
:100D3000FFF77CFC2012FFF782FC3F494989491CE0
:100D400088B2FFF773FCE0B2FFF779FC3A49888973
:100D5000FFF76CFC2812FFF772FC37498989491CA0
:100D600088B2FFF763FCE8B2FFF769FC6CE0324839
:100D7000808841F66311884228D12F48807920B9B4
:100D80002D480088401E001B84B22B494889FFF77C
:100D90004DFC2012FFF753FCE0B2FFF750FC20128D
:100DA000FFF74DFCE0B2FFF74AFC23498889FFF7C3
:100DB0003DFC2812FFF743FCE8B2FFF740FC281285
:100DC000FFF73DFCE8B2FFF73AFC3DE01A488088A7
:100DD00046F6040188421DD117488079012804D1C4
:100DE00015480088401E001B84B213494889FFF74C
:100DF0001DFC2012FFF723FCE0B2FFF720FC0E4998
:100E00008889FFF713FC2812FFF719FCE8B2FFF7F7
:100E100016FC19E008488079012804D106480088AA
:100E2000401E001B84B2044948892146FFF719FC83
:100E300001498889294605E0380000201400002077
:100E400000000860FFF70DFCFA480089FA490880A5
:100E5000891C0E8070BD70B52DED048B0446BE203C
:100E6000FFF7E4FB0520FFF7EAFB204605F017FE3D
:100E700041EC190B9FEDF10B53EC102B05F022FE0A
:100E800041EC180B05F0DEFD85B22846FFF7D7FBD5
:100E90000120FFF7D4FBFF20FFF7D1FB0020FFF775
:100EA000CEFB0020FFF7CBFBBDEC048B70BD10B573
:100EB0000446002C66D1DF498871F02008804FF489
:100EC000A07048800846808849F2413188420BD0A2
:100ED000D848808846F60401884205D0D5488088E5
:100EE00045F2103188421AD12C20D24908812A209B
:100EF00048812B2088810846808846F60401884274
:100F000005D0CC48808845F21031884206D14FF494
:100F1000A070C84908804FF4F0704880A1E0C5482F
:100F2000808845F21051884210D14FF43050C149A9
:100F300008814FF4285048814FF42C5088814FF499
:100F4000F07008804FF4487048808AE0B948808883
:100F500041F6631188420DD12C20B64908812B201F
:100F600048812A2088814FF4F07008804FF448703F
:100F7000488076E02220AF49088120204881212046
:100F800088816EE00120AB4988714FF4A070088021
:100F9000F02048800846808849F24131884205D0D7
:100FA000A448808845F21031884207D12C20A149FD
:100FB00008812A2048812B2088813FE09D48808835
:100FC00046F60401884207D12C209A4908812B203B
:100FD00048812A20888131E09648808845F2105166
:100FE000884210D14FF43050924908814FF4285074
:100FF00048814FF42C5088814FF4487008804FF49A
:10100000F07048801AE08B48808841F6631188426E
:101010000DD12C20874908812A2048812B208881E6
:101020004FF4487008804FF4F070488006E02220AA
:101030008049088121204881202088817D4880883E
:1010400046F60401884205D07A48808845F210317E
:10105000884206D14FF4F070764908804FF4A070B2
:1010600048800020FFF7B0FC10BD2DE9F04F86B09E
:1010700004460D469046994604EB0800401E86B291
:1010800005EB0900401E87B26A48808849F2413169
:10109000884215D06748808845F2103188420FD0C9
:1010A0006448808846F60401884209D06148807906
:1010B000012826D15F48808841F66311884220D1FB
:1010C0005C494889FFF7B2FA2012FFF7B8FAE0B29C
:1010D000FFF7B5FA3012FFF7B2FAF0B2FFF7AFFA46
:1010E00054498889FFF7A2FA2812FFF7A8FAE8B254
:1010F000FFF7A5FA3812FFF7A2FAF8B2FFF79FFA46
:10110000C0E04C48808841F66311884234D1494898
:101110000088A0EB0800001B84B205EB0900401E0C
:101120001FFA80F943494889FFF780FA2012FFF738
:1011300086FAE0B2FFF783FA04EB0801491EC1F317
:101140000F20FFF77CFA04EB0801491EC8B2FFF735
:1011500076FA38498889FFF769FA2812FFF76FFA9B
:10116000E8B2FFF76CFA4FEA2920FFF768FA09F0B6
:10117000FF00FFF764FA85E02E48808845F21051A1
:10118000884244D12B494889FFF750FA2012FFF7D3
:1011900056FA28494989491C88B2FFF747FAE0B254
:1011A000FFF74DFA23494989891C88B2FFF73EFAB7
:1011B0003012FFF744FA1F494989C91C88B2FFF76A
:1011C00035FAF0B2FFF73BFA1A498889FFF72EFA91
:1011D0002812FFF734FA17498989491C88B2FFF7AA
:1011E00025FAE8B2FFF72BFA12498989891C88B2DF
:1011F000FFF71CFA3812FFF722FA0E498989C91C39
:1012000088B2FFF713FAF8B2FFF719FA3AE0094883
:101210008079012816D1AA46BB4606480088801B63
:10122000401E80B2019003480088001B401E80B21F
:1012300000900BE038000020FEFF076066666666DF
:1012400066660440A246B34601950097502005907B
:10125000512004905220039053200290514605984B
:10126000FFF7FFF959460498FFF7FBF90199039836
:10127000FFF7F7F900990298FFF7F3F9294620469E
:10128000FFF71CFA06B0BDE8F08F70B504460026E3
:10129000FE48058840884543FC48808846F604019E
:1012A000884216D1F9488079012812D10020F749E7
:1012B00088712A2048812B20888100210846FFF769
:1012C000FDF90120F14988712B2048812A2088816D
:1012D00003E000210846FFF7F1F9FFF7D2F90026F5
:1012E00002E0EB490C80761CAE42FAD370BD00B52B
:1012F000A1B0002020900121182004F0FBFE012164
:10130000084604F02FFF4EF2B3701E9002208DF8B5
:101310007C0000208DF87E0003208DF87D000120E8
:101320008DF87F001EA9DB4804F062F94FF680704B
:101330001E9002208DF87C0000208DF87E00032096
:101340008DF87D0001208DF87F001EA9D24804F0A1
:101350004FF90C220021CF4804F0D5F90C220121CD
:10136000CC4804F0D0F90C220421CA4804F0CBF98F
:101370000C220521C74804F0C6F90C220721C548F4
:1013800004F0C1F90C220821C24804F0BCF90C2277
:101390000921C04804F0B7F90C220A21BD4804F025
:1013A000B2F90C220D21BB4804F0ADF90C220E213C
:1013B000B84804F0A8F90C220F21B64804F0A3F9AC
:1013C0000C220721B44804F09EF90C220821B248EF
:1013D00004F099F90C220921AF4804F094F90C2289
:1013E0000A21AD4804F08FF90C220B21AA4804F021
:1013F0008AF90C221146A84804F085F90C220D2127
:10140000A54804F080F90C220E21A34804F07BF9D2
:101410000C220F21A04804F076F90F20089000203C
:1014200009903C200A9000200B900C900D900E909B
:1014300009200190002002900820039000200490D1
:1014400005900690079006200F90002010901190B4
:101450001020129000201390159014901690179061
:101460004FF480501890002019904FF480401A904B
:1014700000201B9008A81C9001A81D900FA804F044
:1014800096F90121062004F01DFA322003F0D6FE61
:1014900001210020FFF7E5F8322003F0CFFE002005
:1014A000FFF7E4F87949888008468088FF280ADB3E
:1014B000084680884FF6FF71884204D073488088C0
:1014C000B0F5134F7ED1D320FFF7B0F8FFF7C1F886
:1014D0006E498880FFF7BDF86C498880FFF7B9F83E
:1014E0006A498880084680884FF6FF7101EA00202B
:1014F00066498880FFF7ADF86449898808436349E5
:1015000088800846808849F2413188425AD0BF20FD
:10151000FFF78CF8FFF79DF85C498880FFF799F892
:101520005A498880FFF795F858498880FFF791F865
:1015300056498880084680884FF6FF7101EA0020EE
:1015400052498880FFF785F85049898808434F49F8
:1015500088800846808846F6040188427AD0D420E4
:10156000FFF764F8FFF775F848498880FFF771F8CE
:1015700046498880FFF76DF844498880084680888E
:101580004FF6FF7101EA002040498880FFF761F8BB
:101590003E49898808433D4988800846808845F24D
:1015A0001031884256D04FF45A40FFF73FF8FFF70A
:1015B00050F8364988804FF45B40FFF737F8FFF763
:1015C00048F800E046E031498880084680884FF6B8
:1015D000FF7101EA00202D4988804FF45C40FFF73D
:1015E00025F8FFF736F82949898808432749888074
:1015F00008468088B0F5004F02D145F2105088802F
:101600002248808845F21051884223D0A120FFF75C
:101610000DF8FFF71EF81D498880FFF71AF81B49DF
:101620008880084680884FF6FF7101EA002017493C
:101630008880FFF70EF81549898808431349888088
:101640000846808845F26171884203D141F66310F3
:101650000E4988800D48808849F24131884211D076
:101660000A48808845F2103188420BD007488088AC
:1016700045F21051884205D00448808841F6631134
:10168000884229D1054800680AE00000380000209F
:1016900000000860000C0240001002401C0100A085
:1016A00020F00F004FF02041C1F81C010846D0F88F
:1016B0001C0120F47060C1F81C010846D0F81C0120
:1016C00040F00300C1F81C010846D0F81C0140F4AA
:1016D0000070C1F81C0128E0FE48808846F604012D
:1016E000884205D0FB4880884CF2055188421CD1C5
:1016F000F948006820F00F004FF02041C1F81C01AC
:101700000846D0F81C0120F47060C1F81C0108469E
:10171000D0F81C0140F00A00C1F81C010846D0F8BE
:101720001C0140F44060C1F81C01EA488188EBA02C
:1017300005F060F8E748808849F2413188427CD161
:10174000CF20FEF773FF0020FEF779FFC120FEF7E0
:1017500076FF3020FEF773FFED20FEF767FF642071
:10176000FEF76DFF0320FEF76AFF1220FEF767FF0A
:101770008120FEF764FFE820FEF758FF8520FEF782
:101780005EFF1020FEF75BFF7A20FEF758FFCB20AC
:10179000FEF74CFF3920FEF752FF2C20FEF74FFFDB
:1017A0000020FEF74CFF3420FEF749FF0220FEF731
:1017B00046FFF720FEF73AFF2020FEF740FFEA2021
:1017C000FEF734FF0020FEF73AFF0020FEF737FF58
:1017D000C020FEF72BFF1B20FEF731FFC120FEF7D4
:1017E00025FF0120FEF72BFFC520FEF71FFF30204D
:1017F000FEF725FF3020FEF722FFC720FEF716FF79
:10180000B720FEF71CFF3620FEF710FF4820FEF73A
:1018100016FF3A20FEF70AFF5520FEF710FFB12011
:10182000FEF704FF0020FEF70AFF1A20FEF707FF6D
:10183000B620FEF7FBFE0A2000E099E0FEF7FFFE6F
:10184000A220FEF7FCFEF220FEF7F0FE0020FEF7DD
:10185000F6FE2620FEF7EAFE0120FEF7F0FEE0206D
:10186000FEF7E4FE0F20FEF7EAFE2A20FEF7E7FE71
:101870002820FEF7E4FE0820FEF7E1FE0E20FEF72A
:10188000DEFE0820FEF7DBFE5420FEF7D8FEA9207E
:10189000FEF7D5FE4320FEF7D2FE0A20FEF7CFFE6C
:1018A0000F20FEF7CCFE0020FEF7C9FE0020FEF759
:1018B000C6FE0020FEF7C3FE0020FEF7C0FEE120BA
:1018C000FEF7B4FE0020FEF7BAFE1520FEF7B7FEC5
:1018D0001720FEF7B4FE0720FEF7B1FE1120FEF739
:1018E000AEFE0620FEF7ABFE2B20FEF7A8FE56202C
:1018F000FEF7A5FE3C20FEF7A2FE0520FEF79FFEA8
:101900001020FEF79CFE0F20FEF799FE3F20FEF709
:1019100096FE3F20FEF793FE0F20FEF790FE2B2051
:10192000FEF784FE0020FEF78AFE0020FEF787FE09
:101930000120FEF784FE3F20FEF781FE2A20FEF7FD
:1019400075FE0020FEF77BFE0020FEF778FE0020EB
:10195000FEF775FEEF20FEF772FE1120FEF766FE21
:10196000782003F06BFC2920FEF760FE03F02AB913
:101970005848808846F6040188427CD11120FEF741
:1019800055FE142003F05AFCD020FEF74FFE07202E
:10199000FEF755FE4220FEF752FE1D20FEF74FFED9
:1019A000D120FEF743FE0020FEF749FE1A20FEF785
:1019B00046FE0920FEF743FED220FEF737FE012047
:1019C000FEF73DFE2220FEF73AFEC020FEF72EFE77
:1019D0001020FEF734FE3B20FEF731FE0020FEF71C
:1019E0002EFE0220FEF72BFE1120FEF728FEC5205A
:1019F000FEF71CFE0320FEF722FEC820FEF716FEAF
:101A00000020FEF71CFE2520FEF719FE2120FEF720
:101A100016FE0520FEF713FE0020FEF710FE0A203A
:101A2000FEF70DFE6520FEF70AFE2520FEF707FEF5
:101A30007720FEF704FE5020FEF701FE0F20FEF790
:101A4000FEFD0020FEF7FBFDF820FEF7EFFD012074
:101A5000FEF7F5FDFE20FEF7E9FD0020FEF7EFFDA5
:101A60000220FEF7ECFD2020FEF7E0FD3620FEF719
:101A7000DDFD082000E039E0FEF7E1FD3A20FEF749
:101A8000D5FD5520FEF7DBFD2B20FEF7CFFD002016
:101A9000FEF7D5FD0020FEF7D2FD0120FEF7CFFDB9
:101AA0003F20FEF7CCFD2A20FEF7C0FD0020FEF708
:101AB000C6FD0020FEF7C3FD0120FEF7C0FDDF20BC
:101AC000FEF7BDFD782003F0B9FB2920FEF7AEFD3F
:101AD0004CE70000380000201C0100A0204C4344CB
:101AE0002049443A25780D0A00000000FE4880880D
:101AF00045F21031884240F07C87ED20FEF796FDDC
:101B00000120FEF79CFDFE20FEF799FDEE20FEF77A
:101B10008DFDDE20FEF793FD2120FEF790FDF120E4
:101B2000FEF784FD0120FEF78AFDDF20FEF77EFD33
:101B30001020FEF784FDC420FEF778FD8F20FEF70D
:101B40007EFDC620FEF772FD0020FEF778FDE22044
:101B5000FEF775FDE220FEF772FDE220FEF76FFD55
:101B6000BF20FEF763FDAA20FEF769FDB020FEF757
:101B70005DFD0D20FEF763FD0020FEF760FD0D20EA
:101B8000FEF75DFD0020FEF75AFD1120FEF757FD20
:101B90000020FEF754FD1920FEF751FD0020FEF74E
:101BA0004EFD2120FEF74BFD0020FEF748FD2D20C5
:101BB000FEF745FD0020FEF742FD3D20FEF73FFD0C
:101BC0000020FEF73CFD5D20FEF739FD0020FEF70A
:101BD00036FD5D20FEF733FD0020FEF730FDB1201D
:101BE000FEF724FD8020FEF72AFD0020FEF727FDEA
:101BF0008B20FEF724FD0020FEF721FD9620FEF746
:101C00001EFD0020FEF71BFDB220FEF70FFD002099
:101C1000FEF715FD0020FEF712FD0220FEF70FFD76
:101C20000020FEF70CFD0320FEF709FD0020FEF763
:101C300006FDB320FEF7FAFC0020FEF700FD0020B1
:101C4000FEF7FDFC0020FEF7FAFC0020FEF7F7FC93
:101C50000020FEF7F4FC0020FEF7F1FC0020FEF768
:101C6000EEFC0020FEF7EBFC0020FEF7E8FC002075
:101C7000FEF7E5FC0020FEF7E2FC0020FEF7DFFCAB
:101C80000020FEF7DCFC0020FEF7D9FC0020FEF768
:101C9000D6FC0020FEF7D3FC0020FEF7D0FC00208D
:101CA000FEF7CDFC0020FEF7CAFC0020FEF7C7FCC3
:101CB0000020FEF7C4FC0020FEF7C1FC0020FEF768
:101CC000BEFC0020FEF7BBFCB420FEF7AFFC8B206F
:101CD000FEF7B5FC0020FEF7B2FC9620FEF7AFFC45
:101CE0000020FEF7ACFCA120FEF7A9FC0020FEF7C7
:101CF000A6FCB520FEF79AFC0220FEF7A0FC00200F
:101D0000FEF79DFC0320FEF79AFC0020FEF797FCEF
:101D10000420FEF794FC0020FEF791FCB620FEF7AD
:101D200085FC0020FEF78BFC0020FEF788FCB72026
:101D3000FEF77CFC0020FEF782FC0020FEF77FFC13
:101D40003F20FEF77CFC0020FEF779FC5E20FEF7CA
:101D500076FC0020FEF773FC6420FEF770FC002088
:101D6000FEF76DFC8C20FEF76AFC0020FEF767FC96
:101D7000AC20FEF764FC0020FEF761FCDC20FEF7DF
:101D80005EFC0020FEF75BFC7020FEF758FC002094
:101D9000FEF755FC9020FEF752FC0020FEF74FFCAA
:101DA000EB20FEF74CFC0020FEF749FCDC20FEF7A0
:101DB00046FC0020FEF743FCB820FEF737FC00206D
:101DC000FEF73DFC0020FEF73AFC0020FEF737FC52
:101DD0000020FEF734FC0020FEF731FC0020FEF767
:101DE0002EFC0020FEF72BFC0020FEF728FCBA207A
:101DF000FEF71CFC2420FEF722FC0020FEF71FFC4F
:101E00000020FEF71CFC0020FEF719FCC120FEF7A5
:101E10000DFC2020FEF713FC0020FEF710FC5420E0
:101E2000FEF70DFC0020FEF70AFCFF20FEF707FC82
:101E30000020FEF704FCC220FEF7F8FB0A20FEF7A4
:101E4000FEFB0020FEF7FBFB0420FEF7F8FB002062
:101E5000FEF7F5FBC320FEF7E9FB3C20FEF7EFFBA6
:101E60000020FEF7ECFB3A20FEF7E9FB0020FEF72E
:101E7000E6FB3920FEF7E3FB0020FEF7E0FB37200E
:101E8000FEF7DDFB0020FEF7DAFB3C20FEF7D7FB78
:101E90000020FEF7D4FB3620FEF7D1FB0020FEF732
:101EA000CEFB3220FEF7CBFB0020FEF7C8FB2F2035
:101EB000FEF7C5FB0020FEF7C2FB2C20FEF7BFFBA0
:101EC0000020FEF7BCFB2920FEF7B9FB0020FEF73F
:101ED000B6FB2620FEF7B3FB0020FEF7B0FB242064
:101EE000FEF7ADFB002001E038000020FEF7A7FB65
:101EF0002420FEF7A4FB0020FEF7A1FB2320FEF721
:101F00009EFB0020FEF79BFB3C20FEF798FB002089
:101F1000FEF795FB3620FEF792FB0020FEF78FFBC5
:101F20003220FEF78CFB0020FEF789FB2F20FEF706
:101F300086FB0020FEF783FB2C20FEF780FB0020B1
:101F4000FEF77DFB2920FEF77AFB0020FEF777FBEA
:101F50002620FEF774FB0020FEF771FB2420FEF71D
:101F60006EFB0020FEF76BFB2420FEF768FB0020D1
:101F7000FEF765FB2320FEF762FB0020FEF75FFB08
:101F8000C420FEF753FB6220FEF759FB0020FEF74A
:101F900056FB0520FEF753FB0020FEF750FB842084
:101FA000FEF74DFB0020FEF74AFBF020FEF747FB53
:101FB0000020FEF744FB1820FEF741FB0020FEF74F
:101FC0003EFBA420FEF73BFB0020FEF738FB182069
:101FD000FEF735FB0020FEF732FB5020FEF72FFB0B
:101FE0000020FEF72CFB0C20FEF729FB0020FEF75B
:101FF00026FB1720FEF723FB0020FEF720FB952091
:10200000FEF71DFB0020FEF71AFBF320FEF717FB7F
:102010000020FEF714FBE620FEF711FB0020FEF780
:102020000EFBC520FEF702FB3220FEF708FB002066
:10203000FEF705FB4420FEF702FB0020FEF7FFFA47
:102040006520FEF7FCFA0020FEF7F9FA7620FEF78D
:10205000F6FA0020FEF7F3FA8820FEF7F0FA0020E7
:10206000FEF7EDFAC620FEF7E1FA2020FEF7E7FAC8
:102070000020FEF7E4FA1720FEF7E1FA0020FEF751
:10208000DEFA0120FEF7DBFA0020FEF7D8FAC720BF
:10209000FEF7CCFA0020FEF7D2FA0020FEF7CFFAC6
:1020A0000020FEF7CCFA0020FEF7C9FAC820FEF7A0
:1020B000BDFA0020FEF7C3FA0020FEF7C0FA0020A8
:1020C000FEF7BDFA0020FEF7BAFAC920FEF7AEFA15
:1020D0000020FEF7B4FA0020FEF7B1FA0020FEF768
:1020E000AEFA0020FEF7ABFA0020FEF7A8FA0020B7
:1020F000FEF7A5FA0020FEF7A2FA0020FEF79FFAED
:102100000020FEF79CFA0020FEF799FA0020FEF767
:1021100096FA0020FEF793FA0020FEF790FA0020CE
:10212000FEF78DFA0020FEF78AFA0020FEF787FA04
:10213000E020FEF77BFA1620FEF781FA0020FEF77A
:102140007EFA1C20FEF77BFA0020FEF778FA2120A9
:10215000FEF775FA0020FEF772FA3620FEF76FFAE6
:102160000020FEF76CFA4620FEF769FA0020FEF721
:1021700066FA5220FEF763FA0020FEF760FA642048
:10218000FEF75DFA0020FEF75AFA7A20FEF757FABA
:102190000020FEF754FA8B20FEF751FA0020FEF7DC
:1021A0004EFA9920FEF74BFA0020FEF748FAA820D5
:1021B000FEF745FA0020FEF742FAB920FEF73FFA93
:1021C0000020FEF73CFAC420FEF739FA0020FEF7A3
:1021D00036FACA20FEF733FA0020FEF730FAD22092
:1021E000FEF72DFA0020FEF72AFAD920FEF727FA8B
:1021F0000020FEF724FAE020FEF721FA0020FEF787
:102200001EFAF320FEF71BFA0020FEF718FAE12071
:10221000FEF70CFA1620FEF712FA0020FEF70FFA6E
:102220001C20FEF70CFA0020FEF709FA2220FEF728
:1022300006FA0020FEF703FA3620FEF700FA002027
:10224000FEF7FDF94520FEF7FAF90020FEF7F7F951
:102250005220FEF7F4F90020FEF7F1F96420FEF7B2
:10226000EEF90020FEF7EBF97A20FEF7E8F90020FE
:10227000FEF7E5F98B20FEF7E2F90020FEF7DFF923
:102280009920FEF7DCF90020FEF7D9F9A820FEF727
:10229000D6F90020FEF7D3F9B920FEF7D0F90020D7
:1022A000FEF7CDF9C420FEF7CAF90020FEF7C7F902
:1022B000CA20FEF7C4F90020FEF7C1F9D220FEF7CC
:1022C000BEF90020FEF7BBF9D820FEF7B8F90020D0
:1022D000FEF7B5F9E020FEF7B2F90020FEF7AFF9FE
:1022E000F320FEF7ACF90020FEF7A9F9E220FEF793
:1022F0009DF90520FEF7A3F90020FEF7A0F90B20B9
:10230000FEF79DF90020FEF79AF91B20FEF797F9DA
:102310000020FEF794F93420FEF791F90020FEF733
:102320008EF94420FEF78BF90020FEF788F94F2044
:10233000FEF785F90020FEF782F96120FEF77FF9AC
:102340000020FEF77CF97920FEF779F90020FEF7EE
:1023500076F98820FEF773F90020FEF770F99720D0
:10236000FEF76DF90020FEF76AF9A620FEF767F97F
:102370000020FEF764F9B720FEF761F90020FEF7B0
:102380005EF9C220FEF75BF90020FEF758F9C7207E
:10239000FEF755F90020FEF752F9D120FEF74FF96C
:1023A0000020FEF74CF9D620FEF749F90020FEF791
:1023B00046F9DD20FEF743F90020FEF740F9F3204F
:1023C000FEF73DF90020FEF73AF9E320FEF72EF97B
:1023D0000520FEF734F90020FEF731F90A20FEF758
:1023E0002EF90020FEF72BF91C20FEF728F900201B
:1023F000FEF725F93320FEF722F90020FEF71FF93A
:102400004420FEF71CF90020FEF719F95020FEF7D2
:1024100016F90020FEF713F96220FEF710F90020EC
:10242000FEF70DF97820FEF70AF90020FEF707F90C
:102430008820FEF704F90020FEF701F99720FEF747
:10244000FEF80020FEF7FBF8A620FEF7F8F80020C3
:10245000FEF7F5F8B720FEF7F2F80020FEF7EFF8E8
:10246000C220FEF7ECF80020FEF7E9F8C720FEF7DF
:10247000E6F80020FEF7E3F8D120FEF7E0F80020B0
:10248000FEF7DDF8D520FEF7DAF80020FEF7D7F8E2
:10249000DD20FEF7D4F80020FEF7D1F8F320FEF798
:1024A000CEF80020FEF7CBF8E420FEF7BFF80120BD
:1024B000FEF7C5F80020FEF7C2F80120FEF7BFF8CE
:1024C0000020FEF7BCF80220FEF7B9F80020FEF766
:1024D000B6F82A20FEF7B3F80020FEF7B0F83C204B
:1024E000FEF7ADF80020FEF7AAF84B20FEF7A7F89C
:1024F0000020FEF7A4F85D20FEF7A1F80020FEF70B
:102500009EF87420FEF79BF80020FEF798F88420D0
:10251000FEF795F80020FEF792F89320FEF78FF86B
:102520000020FEF78CF8A220FEF789F80020FEF7C5
:1025300086F8B320FEF783F80020FEF780F8BE206F
:10254000FEF77DF80020FEF77AF8C420FEF777F852
:102550000020FEF774F8CD20FEF771F80020FEF79A
:102560006EF8D320FEF76BF80020FEF768F8DD2048
:10257000FEF765F80020FEF762F8F320FEF75FF83B
:102580000020FEF75CF8E520FEF750F80020FEF78B
:1025900056F80020FEF753F80020FEF750F8002010
:1025A000FEF74DF80220FEF74AF80020FEF747F844
:1025B0002920FEF744F80020FEF741F83C20FEF702
:1025C0003EF80020FEF73BF84B20FEF738F80020DD
:1025D000FEF735F85D20FEF732F80020FEF72FF801
:1025E0007420FEF72CF80020FEF729F88420FEF76F
:1025F00026F80020FEF723F89320FEF720F80020AD
:10260000FEF71DF8A220FEF71AF80020FEF717F8D3
:10261000B320FEF714F80020FEF711F8BE20FEF7F5
:102620000EF80020FEF70BF8C420FEF708F8002093
:10263000FEF705F8CD20FEF702F80020FDF7FFFFBA
:10264000D320FDF7FCFF0020FDF7F9FFDC20FDF7AC
:10265000F6FF0020FDF7F3FFF320FDF7F0FF002069
:10266000FDF7EDFFE620FDF7E1FF1120FDF7E7FFA5
:102670000020FDF7E4FF3420FDF7E1FF0020FDF727
:10268000DEFF5620FDF7DBFF0020FDF7D8FF7620A8
:10269000FDF7D5FF0020FDF7D2FF7720FDF7CFFF34
:1026A0000020FDF7CCFF6620FDF7C9FF0020FDF7F5
:1026B000C6FF8820FDF7C3FF0020FDF7C0FF99206B
:1026C000FDF7BDFF0020FDF7BAFFBB20FDF7B7FF08
:1026D0000020FDF7B4FF9920FDF7B1FF0020FDF7C2
:1026E000AEFF6620FDF7ABFF0020FDF7A8FF5520E9
:1026F000FDF7A5FF0020FDF7A2FF5520FDF79FFF86
:102700000020FDF79CFF4520FDF799FF0020FDF715
:1027100096FF4320FDF793FF0020FDF790FF442034
:10272000FDF78DFF0020FDF78AFFE720FDF77EFF14
:102730003220FDF784FF0020FDF781FF5520FDF7D3
:102740007EFF0020FDF77BFF7620FDF778FF00205D
:10275000FDF775FF6620FDF772FF0020FDF76FFFA4
:102760006720FDF76CFF0020FDF769FF6720FDF78C
:1027700066FF0020FDF763FF8720FDF760FF002064
:10278000FDF75DFF9920FDF75AFF0020FDF757FF89
:10279000BB20FDF754FF0020FDF751FF9920FDF706
:1027A0004EFF0020FDF74BFF7720FDF748FF00208C
:1027B000FDF745FF4420FDF742FF0020FDF73FFFF6
:1027C0005620FDF73CFF0020FDF739FF2320FDF7E1
:1027D00036FF0020FDF733FF3320FDF730FF0020E8
:1027E000FDF72DFF4520FDF72AFF0020FDF727FF0D
:1027F000E820FDF71BFF0020FDF721FF0020FDF77B
:102800001EFF9920FDF71BFF0020FDF718FF872012
:10281000FDF715FF0020FDF712FF8820FDF70FFFE1
:102820000020FDF70CFF7720FDF709FF0020FDF7E2
:1028300006FF6620FDF703FF0020FDF700FF88205C
:10284000FDF7FDFE0020FDF7FAFEAA20FDF7F7FEDA
:102850000020FDF7F4FEBB20FDF7F1FE0020FDF7A0
:10286000EEFE9920FDF7EBFE0020FDF7E8FE662066
:10287000FDF7E5FE0020FDF7E2FE5520FDF7DFFE47
:102880000020FDF7DCFE5520FDF7D9FE0020FDF706
:10289000D6FE4420FDF7D3FE0020FDF7D0FE4420F5
:1028A000FDF7CDFE0020FDF7CAFE5520FDF7C7FE5F
:1028B0000020FDF7C4FEE920FDF7B8FEAA20FDF7D1
:1028C000BEFE0020FDF7BBFE0020FDF7B8FE002095
:1028D000FDF7B5FE0020FDF7A9FEAA20FDF7AFFE2B
:1028E000CF20FDF7A3FE0020FDF7A9FE0020FDF795
:1028F000A6FE0020FDF7A3FE0020FDF7A0FE0020AD
:10290000FDF79DFE0020FDF79AFE0020FDF797FEE3
:102910000020FDF794FE0020FDF791FE0020FDF75A
:102920008EFE0020FDF78BFE0020FDF788FE0020C4
:10293000FDF785FE0020FDF782FE0020FDF77FFEFB
:102940000020FDF77CFE0020FDF779FEF020FDF76A
:102950006DFE0020FDF773FE5020FDF770FE002095
:10296000FDF76DFE0020FDF76AFE0020FDF767FE13
:10297000F320FDF75BFE0020FDF761FEF920FDF777
:1029800055FE0620FDF75BFE1020FDF758FE2920BE
:10299000FDF755FE0020FDF752FE3A20FDF746FEFA
:1029A0005520FDF74CFE1120FDF740FE642002F09B
:1029B00045FC2920FDF73AFE3520FDF737FE0020C3
:1029C000FDF73DFE5120FDF731FEFF20FDF737FEFC
:1029D0005320FDF72BFE2C20FDF731FE5520FDF78F
:1029E00025FE8220FDF72BFE2C20FDF71FFE02F0B6
:1029F000E9B8FE48808845F2105188427ED15521C1
:102A00004FF47040FDF72DFEAA214FF20100FDF7B3
:102A100028FE52214FF20200FDF723FE08214FF25B
:102A20000300FDF71EFE01214FF20400FDF719FE21
:102A30000D214FF43040FDF714FE0D214BF2010043
:102A4000FDF70FFE0D214BF20200FDF70AFE3421C7
:102A50004FF43640FDF705FE34214BF20160FDF7DF
:102A600000FE34214BF20260FDF7FBFD0D214FF417
:102A70003140FDF7F6FD0D214BF20110FDF7F1FDA0
:102A80000D214BF20210FDF7ECFD34214FF43740DD
:102A9000FDF7E7FD34214BF20170FDF7E2FD342133
:102AA0004BF20270FDF7DDFD00214FF43240FDF7DF
:102AB000D8FD00214BF20120FDF7D3FD00214BF2A0
:102AC0000220FDF7CEFD24214FF43840FDF7C9FD6B
:102AD00024214BF60100FDF7C4FD24214BF6020032
:102AE000FDF7BFFD01214FF43F40FDF7BAFD0F2177
:102AF0004FF43340FDF7B5FD0F2100E0FEE34BF24C
:102B00000130FDF7AEFD0F214BF20230FDF7A9FDBC
:102B100034214FF43940FDF7A4FD34214BF6011068
:102B2000FDF79FFD34214BF60210FDF79AFD0821B9
:102B30004FF43540FDF795FD08214BF20150FDF7AC
:102B400090FD08214BF20250FDF78BFD03214FF45D
:102B50004240FDF786FD24214FF43A40FDF781FD08
:102B600024214BF60120FDF77CFD24214BF60220A9
:102B7000FDF777FD00214FF43C40FDF772FD782111
:102B80004BF60140FDF76DFD00214BF60240FDF7CD
:102B900068FD00214FF43D40FDF763FD78214BF6C1
:102BA0000150FDF75EFD00214BF60250FDF759FD87
:102BB00000214FF43E40FDF754FD64214BF60160C7
:102BC000FDF74FFD00214FF45140FDF74AFD332141
:102BD0004DF20110FDF745FD00214DF20210FDF709
:102BE00040FD34214DF20310FDF73BFD00214DF275
:102BF0000410FDF736FD3A214DF20510FDF731FDC9
:102C000000214DF20610FDF72CFD4A214DF2071070
:102C1000FDF727FD00214DF20810FDF722FD5C2194
:102C20004DF20910FDF71DFD00214DF20A10FDF7D0
:102C300018FD81214DF20B10FDF713FD00214DF21F
:102C40000C10FDF70EFDA6214DF20D10FDF709FD4C
:102C500000214DF20E10FDF704FDE5214DF20F109D
:102C6000FDF7FFFC01214DF21010FDF7FAFC1321D6
:102C70004DF21110FDF7F5FC01214DF21210FDF798
:102C8000F0FC54214DF21310FDF7EBFC01214DF245
:102C90001410FDF7E6FC82214DF21510FDF7E1FC62
:102CA00001214DF21610FDF7DCFCCA214DF2171080
:102CB000FDF7D7FC02214DF21810FDF7D2FC0021E0
:102CC0004DF21910FDF7CDFC02214DF21A10FDF75F
:102CD000C8FC01214DF21B10FDF7C3FC02214DF28F
:102CE0001C10FDF7BEFC34214DF21D10FDF7B9FCA0
:102CF00002214DF21E10FDF7B4FC67214DF21F10AA
:102D0000FDF7AFFC02214DF22010FDF7AAFC842153
:102D10004DF22110FDF7A5FC02214DF22210FDF726
:102D2000A0FCA4214DF22310FDF79BFC02214DF2E3
:102D30002410FDF796FCB7214DF22510FDF791FC0C
:102D400002214DF22610FDF78CFCCF214DF2271009
:102D5000FDF787FC02214DF22810FDF782FCDE21F1
:102D60004DF22910FDF77DFC02214DF22A10FDF7EE
:102D700078FCF2214DF22B10FDF773FC02214DF28D
:102D80002C10FDF76EFCFE214DF22D10FDF769FCB5
:102D900003214DF22E10FDF764FC10214DF22F108F
:102DA000FDF75FFC03214DF23010FDF75AFC332193
:102DB0004DF23110FDF755FC03214DF23210FDF7B5
:102DC00050FC6D214DF23310FDF74BFC00214FF408
:102DD0005240FDF746FC33214DF20120FDF741FC46
:102DE00000214DF20220FDF73CFC01E038000020FC
:102DF00034214DF20320FDF734FC00214DF2042074
:102E0000FDF72FFC3A214DF20520FDF72AFC0021A9
:102E10004DF20620FDF725FC4A214DF20720FDF773
:102E200020FC00214DF20820FDF71BFC5C214DF237
:102E30000920FDF716FC00214DF20A20FDF711FCD8
:102E400081214DF20B20FDF70CFC00214DF20C20EE
:102E5000FDF707FCA6214DF20D20FDF702FC002135
:102E60004DF20E20FDF7FDFBE5214DF20F20FDF7A1
:102E7000F8FB01214DF21020FDF7F3FB13214DF279
:102E80001120FDF7EEFB01214DF21220FDF7E9FBC9
:102E900054214DF21320FDF7E4FB01214DF21420E3
:102EA000FDF7DFFB82214DF21520FDF7DAFB012152
:102EB0004DF21620FDF7D5FBCA214DF21720FDF784
:102EC000D0FB02214DF21820FDF7CBFB00214DF283
:102ED0001920FDF7C6FB02214DF21A20FDF7C1FBB8
:102EE00001214DF21B20FDF7BCFB02214DF21C20FD
:102EF000FDF7B7FB34214DF21D20FDF7B2FB022197
:102F00004DF21E20FDF7ADFB67214DF21F20FDF7AE
:102F1000A8FB02214DF22020FDF7A3FB84214DF2F6
:102F20002120FDF79EFB02214DF22220FDF799FBA7
:102F3000A4214DF22320FDF794FB02214DF2242021
:102F4000FDF78FFBB7214DF22520FDF78AFB02210B
:102F50004DF22620FDF785FBCF214DF22720FDF70E
:102F600080FB02214DF22820FDF77BFBDE214DF294
:102F70002920FDF776FB02214DF22A20FDF771FB97
:102F8000F2214DF22B20FDF76CFB02214DF22C209B
:102F9000FDF767FBFE214DF22D20FDF762FB0321BB
:102FA0004DF22E20FDF75DFB10214DF22F20FDF795
:102FB00058FB03214DF23020FDF753FB33214DF236
:102FC0003120FDF74EFB03214DF23220FDF749FB86
:102FD0006D214DF23320FDF744FB00214FF45340A7
:102FE000FDF73FFB33214DF20130FDF73AFB0021A5
:102FF0004DF20230FDF735FB34214DF20330FDF781
:1030000030FB00214DF20430FDF72BFB3A214DF24D
:103010000530FDF726FB00214DF20630FDF721FBC0
:103020004A214DF20730FDF71CFB00214DF208301C
:10303000FDF717FB5C214DF20930FDF712FB002173
:103040004DF20A30FDF70DFB81214DF20B30FDF7FB
:1030500008FB00214DF20C30FDF703FBA6214DF2D9
:103060000D30FDF7FEFA00214DF20E30FDF7F9FAB2
:10307000E5214DF20F30FDF7F4FA01214DF2103049
:10308000FDF7EFFA13214DF21130FDF7EAFA0121B5
:103090004DF21230FDF7E5FA54214DF21330FDF7F1
:1030A000E0FA01214DF21430FDF7DBFA82214DF2F6
:1030B0001530FDF7D6FA01214DF21630FDF7D1FAA1
:1030C000CA214DF21730FDF7CCFA02214DF218302B
:1030D000FDF7C7FA00214DF21930FDF7C2FA0221BF
:1030E0004DF21A30FDF7BDFA01214DF21B30FDF70C
:1030F000B8FA02214DF21C30FDF7B3FA34214DF23B
:103100001D30FDF7AEFA02214DF21E30FDF7A9FA8F
:1031100067214DF21F30FDF7A4FA02214DF2203055
:10312000FDF79FFA84214DF22130FDF79AFA022132
:103130004DF22230FDF795FAA4214DF22330FDF730
:1031400090FA02214DF22430FDF78BFAB7214DF2AF
:103150002530FDF786FA02214DF22630FDF781FA7F
:10316000CF214DF22730FDF77CFA02214DF22830B5
:10317000FDF777FADE214DF22930FDF772FA0221D0
:103180004DF22A30FDF76DFAF2214DF22B30FDF7AA
:1031900068FA02214DF22C30FDF763FAFE214DF260
:1031A0002D30FDF75EFA03214DF22E30FDF759FA6E
:1031B00010214DF22F30FDF754FA03214DF230303B
:1031C000FDF74FFA33214DF23130FDF74AFA032172
:1031D0004DF23230FDF745FA6D214DF23330FDF7F7
:1031E00040FA00214FF45440FDF73BFA33214DF2F1
:1031F0000140FDF736FA00214DF20240FDF731FAA9
:1032000034214DF20340FDF72CFA00214DF2044029
:10321000FDF727FA3A214DF20540FDF722FA002189
:103220004DF20640FDF71DFA4A214DF20740FDF729
:1032300018FA00214DF20840FDF713FA5C214DF217
:103240000940FDF70EFA00214DF20A40FDF709FA98
:1032500081214DF20B40FDF704FA00214DF20C40A4
:10326000FDF7FFF9A6214DF20D40FDF7FAF9002117
:103270004DF20E40FDF7F5F9E5214DF20F40FDF757
:10328000F0F901214DF21040FDF7EBF913214DF259
:103290001140FDF7E6F901214DF21240FDF7E1F989
:1032A00054214DF21340FDF7DCF901214DF2144099
:1032B000FDF7D7F982214DF21540FDF7D2F9012132
:1032C0004DF21640FDF7CDF9CA214DF21740FDF73A
:1032D000C8F902214DF21840FDF7C3F900214DF263
:1032E0001940FDF7BEF902214DF21A40FDF7B9F978
:1032F00001214DF21B40FDF7B4F900E004E3022187
:103300004DF21C40FDF7ADF934214DF21D40FDF7A3
:10331000A8F902214DF21E40FDF7A3F967214DF2F5
:103320001F40FDF79EF902214DF22040FDF799F96B
:1033300084214DF22140FDF794F902214DF2224003
:10334000FDF78FF9A4214DF22340FDF78AF9022100
:103350004DF22440FDF785F9B7214DF22540FDF7E8
:1033600080F902214DF22640FDF77BF9CF214DF285
:103370002740FDF776F902214DF22840FDF771F95B
:10338000DE214DF22940FDF76CF902214DF22A4071
:10339000FDF767F9F2214DF22B40FDF762F90221AA
:1033A0004DF22C40FDF75DF9FE214DF22D40FDF769
:1033B00058F903214DF22E40FDF753F910214DF23B
:1033C0002F40FDF74EF903214DF23040FDF749F94A
:1033D00033214DF23140FDF744F903214DF23240E3
:1033E000FDF73FF96D214DF23340FDF73AF9002129
:1033F0004FF45540FDF735F933214DF20150FDF7FB
:1034000030F900214DF20250FDF72BF934214DF235
:103410000350FDF726F900214DF20450FDF721F984
:103420003A214DF20550FDF71CF900214DF20650EE
:10343000FDF717F94A214DF20750FDF712F9002167
:103440004DF20850FDF70DF95C214DF20950FDF7E2
:1034500008F900214DF20A50FDF703F981214DF2E0
:103460000B50FDF7FEF800214DF20C50FDF7F9F876
:10347000A6214DF20D50FDF7F4F800214DF20E504B
:10348000FDF7EFF8E5214DF20F50FDF7EAF80121C5
:103490004DF21050FDF7E5F813214DF21150FDF7F4
:1034A000E0F801214DF21250FDF7DBF854214DF206
:1034B0001350FDF7D6F801214DF21450FDF7D1F865
:1034C00082214DF21550FDF7CCF801214DF2165036
:1034D000FDF7C7F8CA214DF21750FDF7C2F80221D7
:1034E0004DF21850FDF7BDF800214DF21950FDF7CF
:1034F000B8F802214DF21A50FDF7B3F801214DF250
:103500001B50FDF7AEF802214DF21C50FDF7A9F853
:1035100034214DF21D50FDF7A4F802214DF21E504A
:10352000FDF79FF867214DF21F50FDF79AF8022131
:103530004DF22050FDF795F884214DF22150FDF712
:1035400090F802214DF22250FDF78BF8A4214DF2A4
:103550002350FDF786F802214DF22450FDF781F843
:10356000B7214DF22550FDF77CF802214DF226508F
:10357000FDF777F8CF214DF22750FDF772F80221C1
:103580004DF22850FDF76DF8DE214DF22950FDF780
:1035900068F802214DF22A50FDF763F8F2214DF24E
:1035A0002B50FDF75EF802214DF22C50FDF759F833
:1035B000FE214DF22D50FDF754F803214DF22E500F
:1035C000FDF74FF810214DF22F50FDF74AF8032177
:1035D0004DF23050FDF745F833214DF23150FDF7F3
:1035E00040F803214DF23250FDF73BF86D214DF2CA
:1035F0003350FDF736F800214FF45640FDF731F80F
:1036000033214DF20160FDF72CF800214DF20260EC
:10361000FDF727F834214DF20360FDF722F8002171
:103620004DF20460FDF71DF83A214DF20560FDF7FB
:1036300018F800214DF20660FDF713F84A214DF20B
:103640000760FDF70EF800214DF20860FDF709F85C
:103650005C214DF20960FDF704F800214DF20A608B
:10366000FCF7FFFF81214DF20B60FCF7FAFF002110
:103670004DF20C60FCF7F5FFA6214DF20D60FCF752
:10368000F0FF00214DF20E60FCF7EBFFE5214DF25B
:103690000F60FCF7E6FF01214DF21060FCF7E1FF3F
:1036A00013214DF21160FCF7DCFF01214DF2126095
:1036B000FCF7D7FF54214DF21360FCF7D2FF012134
:1036C0004DF21460FCF7CDFF82214DF21560FCF73E
:1036D000C8FF01214DF21660FCF7C3FFCA214DF26D
:1036E0001760FCF7BEFF02214DF21860FCF7B9FF2E
:1036F00000214DF21960FCF7B4FF02214DF21A606F
:10370000FCF7AFFF01214DF21B60FCF7AAFF02217D
:103710004DF21C60FCF7A5FF34214DF21D60FCF753
:10372000A0FF02214DF21E60FCF79BFF67214DF2C6
:103730001F60FCF796FF02214DF22060FCF791FF1D
:1037400084214DF22160FCF78CFF02214DF22260B2
:10375000FCF787FFA4214DF22360FCF782FF0221D2
:103760004DF22460FCF77DFFB7214DF22560FCF798
:1037700078FF02214DF22660FCF773FFCF214DF256
:103780002760FCF76EFF02214DF22860FCF769FF0D
:10379000DE214DF22960FCF764FF02214DF22A6020
:1037A000FCF75FFFF2214DF22B60FCF75AFF02217C
:1037B0004DF22C60FCF755FFFE214DF22D60FCF719
:1037C00050FF03214DF22E60FCF74BFF10214DF20C
:1037D0002F60FCF746FF03214DF23060FCF741FFFC
:1037E00033214DF23160FCF73CFF03214DF2326092
:1037F000FCF737FF6D214DF23360FCF732FF5521A6
:103800004FF47040FCF72DFFAA214FF20100FCF7A6
:1038100028FF52214FF20200FCF723FF08214FF24C
:103820000300FCF71EFF00214FF20400FCF719FF14
:10383000CC214FF43140FCF714FF00214BF2011072
:10384000FCF70FFF05214FF43640FCF70AFF70210B
:103850004FF43740FCF705FF70214BF20170FCF785
:1038600000FF01214FF43840FCF7FBFE03214BF62B
:103870000100FCF7F6FE03214BF60200FCF7F1FE17
:1038800003214BF60300FCF7ECFE02214FF43C4011
:10389000FCF7E7FE00214BF60140FCF7E2FE0021B9
:1038A0004BF60240FCF7DDFED0214FF44940FCF717
:1038B000D8FE02214CF60110FCF7D3FE50214CF645
:1038C0000210FCF7CEFE50214CF60310FCF7C9FEA7
:1038D00050214CF60410FCF7C4FE00214FF4545064
:1038E000FCF7BFFE55214FF46850FCF7BAFE4FF4C9
:1038F0008850FCF79BFE782001F058FC4FF42450D0
:10390000FCF794FE01F05EB9FE48808849F225314B
:1039100088427DD147F6F001E520FCF7A2FE4FF486
:1039200080710120FCF79DFE4FF4E0610220FCF75E
:1039300098FE41F230010320FCF793FE00210420A1
:10394000FCF78FFE40F202210820FCF78AFE0021DE
:103950000920FCF786FE00210A20FCF782FE0021E8
:103960000C20FCF77EFE00210D20FCF77AFE0021E2
:103970000F20FCF776FE00211020FCF772FE0721D5
:103980001120FCF76EFE00211220FCF76AFE0021D8
:103990001320FCF766FE00210720FCF762FE41F2CF
:1039A00090611020FCF75DFE40F227211120FCF70A
:1039B00058FE9D211220FCF754FE4FF4C8511320ED
:1039C000FCF74FFE25212920FCF74BFE0D212B2073
:1039D000FCF747FE07213020FCF743FE40F203319D
:1039E0003120FCF73EFE03213220FCF73AFE40F284
:1039F00006213520FCF735FE08213620FCF731FE84
:103A000040F206413720FCF72CFE4FF4417100E0F4
:103A100058E03820FCF725FE07213920FCF721FE6D
:103A200040F202613C20FCF71CFE08213D20FCF71F
:103A300018FE00215020FCF714FEEF215120FCF766
:103A400010FE00215220FCF70CFE40F23F115320E3
:103A5000FCF707FE4FF427416020FCF702FE01212E
:103A60006120FCF7FEFD00216A20FCF7FAFD002131
:103A70008020FCF7F6FD00218120FCF7F2FD0021FB
:103A80008220FCF7EEFD00218320FCF7EAFD0021F7
:103A90008420FCF7E6FD00218520FCF7E2FD1021E3
:103AA0009020FCF7DEFD4FF4C0619220FCF7D9FDB9
:103AB00040F233110720FCF7D4FD22210020FCF74F
:103AC000D0FD1FE78F48808849F2283188427DD198
:103AD00041F28F01EC20FCF7C4FD41F23421EF20CC
:103AE000FCF7BFFD4FF480710120FCF7BAFD4FF4E5
:103AF000E0610220FCF7B5FD41F230010320FCF744
:103B0000B0FD00210420FCF7ACFD40F202210820AA
:103B1000FCF7A7FD00210920FCF7A3FD00210A20E6
:103B2000FCF79FFD01210C20FCF79BFD00210D20DF
:103B3000FCF797FD00210F20FCF793FD00211020DA
:103B4000FCF78FFD07211120FCF78BFD00211220CF
:103B5000FCF787FD00211320FCF783FD01210720DE
:103B6000FCF77FFD322001F069FB41F2904110200B
:103B7000FCF777FD40F227211120FCF772FD32207F
:103B800001F05CFB8A211220FCF76BFD322001F072
:103B900055FB4FF4D0511320FCF763FD062129207B
:103BA000FCF75FFD0D212B20FCF75BFD322001F0BF
:103BB00045FB00212020FCF754FD00212120FCF7CB
:103BC00050FD322001F03AFB002100E075E030208A
:103BD000FCF747FD40F204613120FCF742FD40F262
:103BE00005313220FCF73DFD00213520FCF739FD81
:103BF00040F609413620FCF734FD4FF401713720BF
:103C0000FCF72FFD40F201313820FCF72AFD40F28D
:103C100007713920FCF725FD00213C20FCF721FD30
:103C200040F60A213D20FCF71CFD322001F006FB86
:103C300000215020FCF715FDEF215120FCF711FD6C
:103C400000215220FCF70DFD40F23F115320FCF7FC
:103C500008FD4FF427416020FCF703FD012161209E
:103C6000FCF7FFFC00216A20FCF7FBFC0021802010
:103C7000FCF7F7FC00218120FCF7F3FC00218220F7
:103C8000FCF7EFFC00218320FCF7EBFC00218420F3
:103C9000FCF7E7FC00218520FCF7E3FC10219020D5
:103CA000FCF7DFFC4FF4C0619220FCF7DAFC40F235
:103CB00033110720FCF7D5FC24E61248808849F22E
:103CC000203188427ED100210846FCF7CAFC4FF41F
:103CD00080710120FCF7C5FC4FF4E0610220FCF785
:103CE000C0FC41F230010320FCF7BBFC00210420A2
:103CF000FCF7B7FC40F202210820FCF7B2FC0021DF
:103D0000092001E038000020FCF7ABFC00210A206C
:103D1000FCF7A7FC01210C20FCF7A3FC00210D20DF
:103D2000FCF79FFC00210F20FCF79BFC322001F0E8
:103D300085FA40F201110720FCF793FC322001F0D4
:103D40007DFA4FF486511020FCF78BFC07211120DF
:103D5000FCF787FC4FF488711220FCF782FC4FF4CB
:103D600030611320FCF77DFC00212920FCF779FC51
:103D700044F210012B20FCF774FC00215020FCF7CA
:103D800070FCEF215120FCF76CFC00215220FCF765
:103D900068FC40F23F115320FCF763FC4FF41C51C8
:103DA0006020FCF75EFC01216120FCF75AFC002139
:103DB0006A20FCF756FC00218020FCF752FC002111
:103DC000812000E030E0FCF74CFC00218220FCF771
:103DD00048FC00218320FCF744FC00218420FCF7F0
:103DE00040FC00218520FCF73CFC10219020FCF7D2
:103DF00038FC00219220FCF734FC01219320FCF7D1
:103E000030FC4FF488719520FCF72BFC00219720A3
:103E1000FCF727FC00219820FCF723FC40F27311EB
:103E20000720FCF71EFC6DE5FE48808849F2313121
:103E300088427DD141F21401E720FCF712FC4FF4D7
:103E400080710120FCF70DFC4FF400710220FCF79B
:103E500008FC41F238010320FCF703FC40F2022188
:103E60000820FCF7FEFB00210920FCF7FAFB0021EB
:103E70000A20FCF7F6FB00210C20FCF7F2FB0021E6
:103E80000D20FCF7EEFB00210F20FCF7EAFB0021E0
:103E90001020FCF7E6FB07211120FCF7E2FB0021D4
:103EA0001220FCF7DEFB00211320FCF7DAFBC82010
:103EB00001F0C4F941F290611020FCF7D2FB40F20E
:103EC00027211120FCF7CDFB322001F0B7F90C219E
:103ED0001220FCF7C6FB322001F0B0F94FF400616C
:103EE0001320FCF7BEFB11212920FCF7BAFB0B21A4
:103EF0002B20FCF7B6FB322001F0A0F90021202096
:103F0000FCF7AFFB40F23F112120FCF7AAFB002198
:103F10003020FCF7A6FB4FF483713120FCF7A1FBA6
:103F200000213220FCF79DFB4FF40171352000E0A9
:103F300064E0FCF796FB41F20A613620FCF791FB46
:103F400040F207713720FCF78CFB4FF48371382067
:103F5000FCF787FB40F207713920FCF782FB40F247
:103F600002413C20FCF77DFB40F60F413D20FCF771
:103F700078FB00215020FCF774FBEF215120FCF767
:103F800070FB00215220FCF76CFB40F23F115320E4
:103F9000FCF767FB4FF41C516020FCF762FB01212A
:103FA0006120FCF75EFB00216A20FCF75AFB002130
:103FB0008020FCF756FB00218120FCF752FB0021FA
:103FC0008220FCF74EFB00218320FCF74AFB0021F6
:103FD0008420FCF746FB00218520FCF742FB1021E2
:103FE0009020FCF73EFB4FF4C0619220FCF739FBB8
:103FF00040F233110720FCF734FB83E489488088C2
:1040000045F2084188427DD14FF480710120FCF7D0
:1040100028FB4FF4E0610220FCF723FB41F2300162
:104020000320FCF71EFB00210420FCF71AFB40F2E2
:1040300007210820FCF715FB00210920FCF711FBE4
:1040400000210A20FCF70DFB00210C20FCF709FBE6
:1040500000210D20FCF705FB00210F20FCF701FBE0
:10406000142001F0EBF841F2B0611020FCF7F9FAEE
:1040700001211120FCF7F5FA01211720FCF7F1FAD4
:104080004FF49C711220FCF7ECFA4FF400611320FE
:10409000FCF7E7FA09212920FCF7E3FA09212A2095
:1040A000FCF7DFFA0021A420FCF7DBFA0021502006
:1040B000FCF7D7FAEF215120FCF7D3FA0021522068
:1040C000FCF7CFFA40F23F115320FCF7CAFA4FF445
:1040D0001C516020FCF7C5FA01216120FCF7C1FAF0
:1040E00000216A20FCF7BDFA00218020FCF7B9FA14
:1040F00000218120FCF7B5FA00218220FCF7B1FAFB
:10410000002100E024E08320FCF7ABFA00218420AA
:10411000FCF7A7FA00218520FCF7A3FA13219020D1
:10412000FCF79FFA00219220FCF79BFA03219320D1
:10413000FCF797FA4FF488719520FCF792FA40F259
:1041400073110720FCF78DFA322001F077F8B8E4FC
:104150003448808841F2055188427DD100210720F2
:10416000FCF77FFA322001F069F84FF48E711220CB
:10417000FCF777FA0121A420FCF773FA0F2108203D
:10418000FCF76FFA08210A20FCF76BFA08210D20D2
:10419000FCF767FA40F207713020FCF762FA07215A
:1041A0003120FCF75EFA40F203613220FCF759FA45
:1041B0004FF4E0613320FCF754FA40F2022134203E
:1041C000FCF74FFA02213520FCF74BFA41F60F714C
:1041D0003620FCF746FA40F207713720FCF741FA27
:1041E00000213820FCF73DFA00213920FCF739FA8C
:1041F00040F207713A20FCF734FA00213B20FCF72B
:1042000030FA07213C20FCF72CFA00213D20FCF776
:1042100028FA322001F012F801210720FCF721FAD8
:10422000012101E0380000201720FCF71AFA3220A3
:1042300001F004F84FF4BD511020FCF712FA40F2DF
:1042400017211120FCF70DFA4FF48F711220FCF7A3
:1042500008FA4FF4706100E098E01320FCF701FACF
:1042600000212A20FCF7FDF90A212920FCF7F9F9A1
:104270004FF49F711220FCF7F4F900215020FCF755
:10428000F0F9EF215120FCF7ECF900215220FCF766
:10429000E8F940F23F115320FCF7E3F94FF41C51C9
:1042A0006020FCF7DEF901216120FCF7DAF900213A
:1042B0006A20FCF7D6F900218020FCF7D2F9002112
:1042C0008120FCF7CEF900218220FCF7CAF90021F9
:1042D0008320FCF7C6F900218420FCF7C2F90021F5
:1042E0008520FCF7BEF913219020FCF7BAF94FF4B2
:1042F00040719220FCF7B5F905219320FCF7B1F944
:1043000000219520FCF7ADF900219720FCF7A9F9D1
:1043100000219820FCF7A5F94FF480710120FCF7EB
:10432000A0F94FF4E0610220FCF79BF941F238015B
:104330000320FCF796F900210420FCF792F90021F4
:104340000C20FCF78EF900210F20FCF78AF90021E0
:104350002020FCF786F900212120FCF782F9212199
:104360000720FCF77EF9142000F068FF6121072088
:10437000FCF777F9142000F061FF40F27311072079
:10438000FCF76FF9142000F059FF95E4FE4880888F
:104390004BF2055188427CD100210846FCF761F9B7
:1043A00000210846FCF75DF900210846FCF759F9A1
:1043B00000210846FCF755F90121A420FCF751F92A
:1043C000142000F03BFF4FF41C516020FCF749F92A
:1043D00040F202210820FCF744F94FF40571302027
:1043E000FCF73FF943F215713120FCF73AF940F23E
:1043F00004613220FCF735F940F616613320FCF7F2
:1044000030F942F211213420FCF72BF94FF4A85176
:104410003520FCF726F948F207513620FCF721F940
:1044200041F207413720FCF71CF941F203413820E3
:10443000FCF717F920213920FCF713F91A219020F5
:10444000FCF70FF900211020FCF70BF907211120D0
:10445000FCF707F900211220FCF703F900211320D3
:10446000FCF7FFF8142000F0E9FE4FF4E66110209D
:10447000FCF7F7F840F237111120FCF7F2F814209E
:1044800000F0DCFE4FF4DC711220FCF7EAF8142097
:1044900000E085E000F0D2FE4FF470611320FCF7DD
:1044A000E0F880212A20FCF7DCF848212920FCF7DD
:1044B000D8F8142000F0C2FE4FF480710120FCF700
:1044C000D0F84FF4E0610220FCF7CBF841F238015C
:1044D0000320FCF7C6F840F202210820FCF7C1F8DF
:1044E00000210A20FCF7BDF800210C20FCF7B9F8E8
:1044F00000210D20FCF7B5F830210E20FCF7B1F8B3
:1045000000215020FCF7ADF8EF215120FCF7A9F86D
:1045100000215220FCF7A5F840F23F115320FCF790
:10452000A0F84FF41C516020FCF79BF8012161209A
:10453000FCF797F800216A20FCF793F811219020EE
:10454000FCF78FF84FF4C0619220FCF78AF840F234
:1045500002419320FCF785F802219420FCF781F8B2
:10456000142000F06BFE01210720FCF77AF81420DC
:1045700000F064FE61210720FCF773F840F273112C
:104580000720FCF76EF800212020FCF76AF80021D4
:104590002120FCF766F822210020FCF762F811E3E5
:1045A000794880884CF2055188427CD10021084628
:1045B000FCF757F800210846FCF753F8142000F0E8
:1045C0003DFE00210846FCF74CF800210846FCF7A8
:1045D00048F800210846FCF744F800210846FCF79B
:1045E00040F80121A420FCF73CF8142000F026FE3E
:1045F0004FF41C516020FCF734F840F60601082007
:10460000FCF72FF840F203713020FCF72AF8012163
:104610003120FCF726F804213220FCF722F84FF471
:1046200081713320FCF71DF84FF440713420FCF702
:1046300018F840F203113520FCF713F81F2136203B
:10464000FCF70FF840F203713720FCF70AF801215C
:104650003820FCF706F804213920FCF702F8152170
:104660009020FBF7FEFF4FF482611020FBF7F9FF6B
:1046700040F247211120FBF7F4FF4FF4DE711220C6
:10468000FBF7EFFF4FF460611320FBF7EAFF7820A0
:1046900000F0D4FD4FF480710120FBF7E2FF4FF4EE
:1046A0000071022000E052E0FBF7DBFF41F2300135
:1046B0000320FBF7D6FF08210A20FBF7D2FF0021D9
:1046C0000C20FBF7CEFF20210E20FBF7CAFF0021B4
:1046D0000F20FBF7C6FF00212020FBF7C2FF0021BF
:1046E0002120FBF7BEFF3D212A20FBF7BAFF142053
:1046F00000F0A4FD2D212920FBF7B3FF002150205D
:10470000FBF7AFFF4DF2EF015120FBF7AAFF0021AD
:104710005220FBF7A6FF40F23F115320FBF7A1FF09
:1047200000216120FBF79DFF00216A20FBF799FF24
:104730004FF440719220FBF794FF05219320FBF783
:1047400090FF4FF480710720FBF78BFF3AE20E4891
:10475000808844F2315188427ED101210020FBF74C
:1047600080FF0A2000F06AFD41F228611020FBF76B
:1047700078FF0E211220FBF774FF40F63921132039
:10478000FBF76FFF0A2001E03800002000F056FD23
:1047900040211120FBF765FF50211520FBF761FF39
:1047A0000A2000F04BFD1E211220FBF75AFF0A20C1
:1047B00000F044FD4FF4B1511020FBF752FF42F6D8
:1047C00039211320FBF74DFF0A2000F037FD4FF48D
:1047D00080710120FBF745FF4FF440710220FBF789
:1047E00040FF41F238010320FBF73BFF40F202217A
:1047F0000820FBF736FF08210A20FBF732FF0021D3
:104800003020FBF72EFF40F202413120FBF729FF59
:104810004FF483713220FBF724FF40F20351332021
:10482000FBF71FFF4FF482713420FBF71AFF40F2B1
:1048300001313520FBF715FF40F207713620FBF7F9
:1048400010FF40F205313720FBF70BFF4FF40271E8
:104850003820FBF706FF00E03EE040F60B71392000
:10486000FBF7FFFE02214120FBF7FBFE4FF41C513A
:104870006020FBF7F6FE01216120FBF7F2FE4FF40A
:1048800004719020FBF7EDFE4FF485719220FBF749
:10489000E8FE04219320FBF7E4FE4FF48071A02092
:1048A000FBF7DFFE01210720FBF7DBFE21210720BC
:1048B000FBF7D7FE23210720FBF7D3FE3321072088
:1048C000FBF7CFFE40F233110720FBF7CAFE0021B1
:1048D000A020FBF7C6FE75E1F748808844F2355109
:1048E00088427CD130211520FBF7BBFE10219A2095
:1048F000FBF7B7FE20211120FBF7B3FE43F228415E
:104900001020FBF7AEFE02211220FBF7AAFE41F2B7
:1049100038011320FBF7A5FE282000F08FFC1221A0
:104920000846FBF79EFE282000F088FC43F2204159
:104930001020FBF796FE43F238011320FBF791FE9F
:10494000462000F07BFC00213020FBF78AFE40F27D
:1049500002413120FBF785FE40F207313220FBF7A0
:1049600080FE4FF441713320FBF77BFE042134209D
:10497000FBF777FE40F201413520FBF772FE40F273
:1049800007713620FBF76DFE40F205313720FBF74B
:1049900068FE4FF4C2613820FBF763FE4FF4C2613A
:1049A0003920FBF75EFE4FF480710120FBF759FEC2
:1049B0004FF440710220FBF754FE41F23001032016
:1049C000FBF74FFE40F608010820FBF74AFE0821DE
:1049D0000A20FBF746FE4FF41C51602000E033E054
:1049E000FBF73FFE01216120FBF73BFE4FF49F7177
:1049F0009020FBF736FE4FF480719220FBF731FEDA
:104A00004FF480719320FBF72CFE4FF44051A0200F
:104A1000FBF727FE1021A320FBF723FE012107202F
:104A2000FBF71FFE21210720FBF71BFE2321072098
:104A3000FBF717FE33210720FBF713FE40F233117B
:104A40000720FBF70EFEBDE09B48808841F663110E
:104A50008842F8D1E220FBF7E9FD1D20FBF7EFFDCE
:104A60000220FBF7ECFD0420FBF7E9FD642000F0D9
:104A70009DFBE020FBF7DAFD0120FBF7E0FD0A20BB
:104A800000F0DCFBE020FBF7D1FD0320FBF7D7FDB6
:104A90000C2000F0D3FB0120FBF7C8FD0A2000F03A
:104AA000CDFBE620FBF7C2FD2F20FBF7C8FDFF2062
:104AB000FBF7C5FDFF20FBF7C2FDB020FBF7B6FDFD
:104AC0002020FBF7BCFD0020FBF7B9FD0320FBF71E
:104AD000B6FD40F21F30FBF7B2FD0120FBF7AFFD42
:104AE00040F2DF10FBF7ABFD0020FBF7A8FDB42080
:104AF000FBF79CFD0420FBF7A2FD40F21F40FBF7F3
:104B00009EFD0020FBF79BFD2E20FBF798FD00206B
:104B1000FBF795FD0020FBF792FD0020FBF78FFDD2
:104B20000020FBF78CFDB620FBF780FD0220FBF791
:104B300086FD4FF40370FBF782FD0020FBF77FFD3D
:104B40001720FBF77CFD1520FBF779FD0020FBF714
:104B500076FD0020FBF773FDF020FBF767FD0320D7
:104B6000FBF76DFD2920FBF761FDD020FBF75EFD13
:104B70000020FBF764FDBE20FBF758FD0520FBF786
:104B80005EFDFE20FBF75BFD0120FBF758FD0020DA
:104B9000FBF755FD0020FBF752FD0020FBF74FFD12
:104BA000B820FBF743FD0320FBF749FD0120FBF78D
:104BB00046FDBA20FBF73AFD0120FBF740FD6420DB
:104BC000FCF749F90020FCF772F901203B49086025
:104BD0004FF6FF70FCF759FB21B000BD2DE9FC4FEB
:104BE00005460E4617469846DDF82C9000200190A9
:104BF0003148808846F60401884229D12E488079C0
:104C0000012825D1AB4635462B480088C01B401EE5
:104C100086B2474628480088A0EB0B00401E1FFACA
:104C200080F80020244988712A2048812B2088811F
:104C300043463A4631462846CDF80090FFF7CEFF6E
:104C400001201D4988712B2048812A2088811CE081
:104C5000781B401C80B20190344614E0214628465F
:104C6000FBF72CFDFBF70DFD4FF0000A06E01449A1
:104C7000A1F800900AF101001FFA80FA019882451C
:104C8000F5DB601C84B24445E8DDBDE8FC8F2DE90E
:104C9000F84F07460D4690469946DDF828B0A8EB38
:104CA0000700401C1FFA80FAA9EB0500401C80B2E7
:104CB000009000241BE00000380000209482404255
:104CC00000000860281981B23846FBF7F7FCFBF7B3
:104CD000D8FC002607E004FB0A603BF81000F84906
:104CE0000880701C86B25645F5DB601C84B20098C3
:104CF0008442E7DBBDE8F88F2DE9FF4F84B08146A1
:104D00008A460020039002900698A0EB09050798B8
:104D1000A0EB0A06CDF80490CDF800A0002D01DD2F
:104D2000012705E00DB9002702E04FF0FF376D4283
:104D3000002E02DD4FF0010806E016B94FF0000822
:104D400002E04FF0FF387642B54201DD2C4600E02C
:104D500034464FF0000B21E0009A91B2019A90B2D4
:104D6000FBF7ABFF0398284403900298304402906D
:104D70000398A04205DD0398001B03900198384476
:104D800001900298A04205DD0298001B0290009855
:104D9000404400900BF101001FFA80FB601C83452A
:104DA000DADD08B0BDE8F08FF0B504460D461646D2
:104DB0001F462B46324629462046FFF79DFF3B46BD
:104DC000224629462046FFF797FF3B4632463946A2
:104DD0002046FFF791FF3B46324629463046FFF713
:104DE0008BFFF0BD2DE9F04306460F4690460024A8
:104DF00045460320A0EB48093CE07A1B91B23219EA
:104E000090B2FBF75AFF3A1B91B2721990B2FBF7BE
:104E100054FF3A1991B2721990B2FBF74EFF7A190A
:104E200091B2321990B2FBF748FF7A1991B2321B56
:104E300090B2FBF742FF3A1991B2721B90B2FBF7A6
:104E40003CFF7A1B91B2321B90B2FBF736FF3A1B44
:104E500091B2721B90B2FBF730FF641CB9F1000FE6
:104E600003DAA000801D814404E0601B80000A304A
:104E700081446D1EAC42C0DDBDE8F0832DE9F84FE2
:104E800080460E4617461C46B3462046E31704EB01
:104E90005373DB1021464FEAE47C04EB5C7C4FEA61
:104EA000EC0CA4EBCC0CBCF1000F02D04FF0010CC9
:104EB00001E04FF0000C6344224604EBD27C4FEA41
:104EC0006C0C03FB0CF3DBB20093A7F12000C7B21C
:104ED000002556E00C2C07D107EB4700794901EB80
:104EE000800010F8059013E0102C05D1764800EBF7
:104EF000071010F805900BE0182C07D107EBC7003E
:104F0000724901EB800010F8059001E0BDE8F88FD0
:104F10004FF0000A2FE009F0800030B16C483146B4
:104F200002684046FBF7D7FE07E00A9828B96948AF
:104F3000314602684046FBF7CEFE4FEA49604FEA31
:104F40001069701C86B264484088B04200DCDDE71E
:104F5000A6EB0B00A0420AD15E4608F101001FFA41
:104F600080F85D480088404500DCCFE706E00AF1A4
:104F7000010000F0FF0ABAF1080FCCDB00BF681C8B
:104F8000C5B200988542A5DB00BFBFE710B5024659
:104F9000012000E050430B00A1F10104E1B2F9D17E
:104FA00010BD2DE9FF4F81B0074691461E460E9D6C
:104FB0004FF0000A002439E0301B401EC1B20A2025
:104FC000FFF7E4FFB9FBF0F00A21B0FBF1F201FBBF
:104FD0001208BAF1000F16D1701EA04213DDB8F10D
:104FE000000F0ED10020AB4605EBDB71491001FB31
:104FF0000471009088B22B4620220299FFF73EFFF1
:1050000012E04FF0010A0020AB4605EBDB714910BE
:1050100001FB0471009088B208F13001CAB22B463E
:105020000299FFF72BFF00BF601CC4B2B442C3DB80
:1050300005B0BDE8F08F2DE9FF4F82B006469246DD
:105040001F46DDE90F480020019000255CE0781B39
:10505000401EC1B20A20FFF799FFBAFBF0F00A2107
:10506000B0FBF1F201FB1209019840BB781EA84287
:1050700036DDB9F1000F31D108F0800078B108F0C9
:105080000100A34604EBDB71491001FB05610090B0
:1050900088B2234630220399FFF7F0FE0EE008F0B5
:1050A0000100A34604EBDB71491001FB0561009090
:1050B00088B2234620220399FFF7E0FE22E00FE0AA
:1050C00000000860CA6C00083E7100082E770008D6
:1050D000140000201800002038000020012001905A
:1050E00008F00100A34604EBDB71491001FB0561E8
:1050F000009088B209F13001CAB223460399FFF744
:10510000BDFE00BF681CC5B2BD42A0DB06B0BDE855
:10511000F08F2DE9F84704460D4690469946DDE9A3
:10512000096704F0FF0A08EB04001FFA80F809EB96
:1051300005001FFA80F916E0444502DB5446A81921
:1051400085B24D4500DB14E0002000903A783346EC
:1051500029462046FFF792FE304606EBD07104EB5D
:1051600061018CB27F1C38787E2802DC38782028D8
:10517000E2DA00BFBDE8F88710B504466FF004001E
:1051800000F092F9E11704EB5171C1F3C701394AFC
:1051900011701046007800EB4001C1EBC0104FF6D3
:1051A000FF7101EAC0003449088010BD0146314A50
:1051B00012784A434FF0E0235A6100229A611A465E
:1051C000126942F001021A6100BF4FF0E02210693B
:1051D00000F001021AB100F48032002AF5D04FF03D
:1051E000E022126922F001024FF0E0231A6100224E
:1051F0009A6170470146204A12884A434FF0E023E3
:105200005A6100229A611A46126942F001021A613B
:1052100000BF4FF0E022106900F001021AB100F463
:105220008032002AF5D04FF0E022126922F001020C
:105230004FF0E0231A6100229A61704770B504466E
:105240004FF4077094FBF0F0C6B24FF4077094FB74
:10525000F0F100FB114085B205E04FF40770FFF755
:10526000C9FF701EC6B2002EF7D115B12846FFF750
:10527000C1FF70BD1C0000201E00002000BF704751
:1052800000BF4C4A128802F04002002AF9D0C2B294
:10529000484B9A80704710B588B0044601210846F3
:1052A00000F028FF0121102000F07EFF07220921D5
:1052B000414800F028FA07220A213F4800F023FA6B
:1052C0004FF4C060069002208DF81C008DF81D0080
:1052D00000208DF81E0001208DF81F0006A9364819
:1052E00000F086F902940020ADF80C00ADF80E0035
:1052F000ADF81000ADF814000C20ADF8120002A9B2
:105300002C4801F0B2F801212A4801F036F90122B7
:1053100040F22551274801F0E6F925208DF80400D8
:1053200003208DF805008DF8060001208DF8070098
:1053300001A800F06CF808B010BD10B540F225517E
:105340001C4801F00BFA10B31A4801F045F9C4B239
:105350001A48008800F40040C8B91848008800F4D2
:10536000804060B10A2C03D000201449088020E05E
:105370001248008840F400401049088019E00D2CC4
:1053800006D10E48008840F480400C49088010E0A7
:105390000A480088C0F30D0009490C5407480088EA
:1053A000401C0649088008460088C72801DD002007
:1053B000088010BD001001400000024024000020C1
:1053C000460000200948804709480047FEE7FEE7FD
:1053D000FEE7FEE7FEE7FEE7FEE7FEE7FEE7FEE7A5
:1053E00004480549054A064B70470000BD04000803
:1053F0008901000870010020700700207003002060
:105400007003002032490143324A1160704770B581
:10541000002100230F22C4781CB32E4C246804F40E
:10542000E064C4F5E064C4F30721C1F10404E3B20D
:105430000A4144789C40E1B28478144021430C072F
:10544000210E254C05786155047804F01F050124D0
:10545000AC4005786D11AD0005F1E025C5F80041BF
:1054600009E0047804F01F050124AC401B4D0678C8
:10547000761145F8264070BD194A0A400243154B83
:105480001B1F1A60704739B1124A121D126802437D
:10549000104B1B1D1A6006E00E4A121D1268824353
:1054A0000C4B1B1D1A607047042808D14FF0E021F7
:1054B000096941F004014FF0E022116107E04FF06B
:1054C000E021096921F004014FF0E02211617047E9
:1054D0000000FA050CED00E000E400E080E100E0EF
:1054E00080FFFF1F10B504469848844208D101216F
:1054F000084600F06AFE0021012000F066FE76E01A
:105500009348844208D10121022000F05EFE002170
:10551000022000F05AFE6AE08E48844208D1012140
:10552000042000F052FE0021042000F04EFE5EE058
:105530008948844208D10121082000F046FE00215C
:10554000082000F042FE52E08448844208D1012144
:10555000102000F03AFE0021102000F036FE46E058
:105560007F48844208D10121202000F02EFE002136
:10557000202000F02AFE3AE07A48844208D1012136
:10558000402000F022FE0021402000F01EFE2EE010
:105590007548844208D10121802000F016FE0021C8
:1055A000802000F012FE22E07048844208D10121E0
:1055B000801500F00AFE0021A01500F006FE16E09E
:1055C0006B48844208D10121401500F0FEFD002106
:1055D000601500F0FAFD0AE06648844207D1012117
:1055E000001500F0F2FD0021201500F0EEFD10BDC9
:1055F000F0B50A4600210023002400BF3DE001254C
:1056000005FA01F3156805EA03049C4234D10568E4
:105610004F000326BE40B543056015794E00B540E6
:105620000668354305601579012D02D01579022DE4
:1056300016D185684F000326BE40B5438560557975
:105640004E00B540866835438560456801268E402A
:10565000B5434560456896798E40B6B2354345609E
:10566000C5684F000326BE40B543C560D5794E00DE
:10567000B540C6683543C560491C1029BFD3F0BD8D
:105680004FF6FF7101600021017141718171C1719B
:10569000704708B54FF480320092009A0A43009296
:1056A000009AC261C161009AC261C2690092C26976
:1056B000009208BD0246002013690B400BB1012087
:1056C00000E0002070470146086980B2704702463A
:1056D000002053690B400BB1012000E0002070470F
:1056E0000146486980B27047018370474183704723
:1056F0000AB1018300E0418370474161704742690C
:105700004A4042617047F0B5002300244D07ED0E7A
:1057100002FA05F3CE1000F1200555F826504E0789
:10572000F70E0F26BE40B543CF1000F1200646F815
:105730002750CE1000F1200555F8265045EA030405
:10574000CE1000F1200545F82640F0BD00000240D3
:105750000004024000080240000C02400010024019
:105760000014024000180240001C024000200240C9
:10577000002402400028024030B943F2DB028100DD
:10578000A1F1C0410A6005E043F2D2028100A1F11B
:10579000C0410A606FF07042411C8900A1F1C04114
:1057A0000A608100A1F1C041C1F804217047D0E92D
:1057B00001121143C2681143026911434269114346
:1057C00082691143C2691143026A1143426A11435B
:1057D000826A1143C26A1143026B1143026892004C
:1057E000A2F1C0421160816808290BD101688900CB
:1057F000A1F1C041096841F0400201688900A1F1AE
:10580000C0410A60416B0968426B526841EA02116B
:10581000426B926841EA0221426B928941EA02415D
:10582000426B128A41EA0251426B127D41EA0261E7
:10583000426B926911430268521C9200A2F1C0426D
:105840001160C16AB1F5804F1BD1816B0968826B11
:10585000526841EA0211826B926841EA0221826B2E
:10586000128A41EA0251826B127D41EA0261826B27
:105870009269114302689200A2F1C042C2F8041179
:1058800007E06FF0704201688900A1F1C041C1F8E2
:1058900004217047002101600221416000218160E4
:1058A000C160016141618161C16101624FF4805158
:1058B0004162490081620021C1620163F84941638C
:1058C0008163704751B18200A2F1C042126842F078
:1058D00001038200A2F1C042136009E08200A2F13C
:1058E000C0421268EF4B1A408300A3F1C0431A6014
:1058F000704710280AD118214FF02042116640212C
:1059000051664FF0FC319166D16610E01821E64AED
:10591000116040214FF02042C2F884104FF0FC315A
:10592000E14A083211604FF02042C2F88C107047F3
:1059300030B5002100220023446844F00804856843
:105940002C43C5682C4305692C43456944EA45242A
:10595000856944EA4531C4692468C5696D6844EACB
:105960000524C5692D8944EA0544C5692D7B44EAAF
:105970000562046A2468056A6D6844EA0524056ABC
:105980002D8944EA0544056A2D7B44EA05630468D1
:10599000102C05D14FF020442166A266E36608E092
:1059A000C14C21604FF02044C4F88820BE4C0C3418
:1059B000236030BD10210160002141608160C16021
:1059C000016141618161FC21C2691160C26951605C
:1059D000C2699160C269D160026A1160026A516055
:1059E000026A9160026AD160704799B1102808D1AB
:1059F0004FF02042126E42F004024FF020431A662C
:105A00001DE0A94A126842F004024FF02043C3F897
:105A1000802014E0102809D14FF02042126EA14BD3
:105A2000DB1E1A404FF020431A6608E09E4A1268B7
:105A30009C4BDB1E1A404FF02043C3F88020704778
:105A400099B1102808D14FF02042126E42F0400266
:105A50004FF020431A661DE0934A126842F040025C
:105A60004FF02043C3F8802014E0102809D14FF0F4
:105A70002042126E8B4B3F3B1A404FF020431A6678
:105A800008E0894A1268874B3F3B1A404FF0204399
:105A9000C3F88020704701460020102903D14FF041
:105AA0002042506F02E0804A14321068704718207C
:105AB0007D492031086000200906C1F8A4004FF09C
:105AC000FC30794928310860091D0860091D08600B
:105AD0007047016841F01001426841EA4221826842
